:020000040001F9
:10180000F0610120994B01009D4B0100F919010085
:10181000E54C0100EF4C0100F94C01000000000014
:10182000000000000000000000000000611901003D
:10183000A94B010000000000A5190100C1330100FF
:10184000AF4B0100B14B0100B34B0100B54B0100A0
:10185000B74B0100B94B0100BB4B0100BD4B010070
:10186000BF4B0100C14B0100C34B0100C54B010040
:10187000C74B0100C94B0100CB4B0100CD4B010010
:10188000CF4B0100D14B0100D34B0100D54B0100E0
:10189000D74B0100D94B0100DB4B0100DD4B0100B0
:1018A000DF4B0100E14B0100E34B0100E54B010080
:1018B000E74B0100E94B0100EB4B0100ED4B010050
:1018C000EF4B0100F14B0100F34B0100F54B010020
:1018D000F74B0100F94B0100FB4B01006372010063
:1018E0009B720100D7720100137301000000000019
:1018F000054C0100074C0100094C01000B4C010094
:10190000EB7301000F4C0100114C0100C56D01008B
:10191000296E01008D6E0100F16E0100556F01000E
:10192000FD6F01001F4C0100214C0100234C010000
:10193000254C0100274C0100294C01002B4C0100D3
:101940002D4C01002F4C0100DFF810D00AF01AFADC
:10195000004800474F4D0100AFF30080F0610120C7
:10196000224B19680868B0E8F00F80F30988BFF3CC
:101970006F8F4FF0000080F311884EF00D0E70470E
:101980000000000006480068006880F3088862B61E
:1019900061B6BFF34F8FBFF36F8F00DF00BF00BF93
:1019A00008ED00E0EFF30980BFF36F8F0F4B1A686B
:1019B00020E9F00F106008B54FF0800080F3118827
:1019C000BFF34F8FBFF36F8F00F075FF4FF0000034
:1019D00080F31188BDE8084019680868B0E8F00F86
:1019E00080F30988BFF36F8F704700BF00000020AD
:1019F000EFF30580704700001EF0040F0CBFEFF3FB
:101A00000880EFF3098003F015B900F10801416087
:101A10004FF0FF31816000F10801C16001610021D8
:101A20000160704700210161704742684A60936815
:101A30008B60936859609160086103685B1C036068
:101A4000704710B502460B685C1C0CB9106907E0C2
:101A500002F1080000E04068446824689C42FAD91A
:101A600044684C604C68A160886041600A611468F9
:101A7000641C146010BD01460A69D1E90130986008
:101A8000D1E9010358605068884201D188685060EC
:101A9000002008611068401E106010687047000048
:101AA00070B505460E462C4601F06DFCD4E90F12C8
:101AB000206801FB020060600020A0632068A06035
:101AC000E06B401E226C216800FB0210E060FF20EA
:101AD00084F8440084F845009EB9206908B90120C3
:101AE00000E00020A8B904F1100001F0CBF880B1AB
:101AF0004FF08050FA490860BFF34F8FBFF36F8FEC
:101B000007E004F11000FFF780FF04F12400FFF765
:101B10007CFF01F047FC012070BD2DE9F041064635
:101B20000D4617469846069C0DB9246000E02760D4
:101B3000E663256401212046FFF7B2FFBDE8F0818E
:101B40002DE9F84307460D4690460DB9002601E001
:101B500007FB05F606F1480001F0B3FC044644B16A
:101B600004F1480943464A46294638460094FFF79F
:101B7000D4FF2046BDE8F88370B5044601F003FCAD
:101B800094F9455010E0606A08B9012000E0002097
:101B900038B904F1240001F075F818B101F006F924
:101BA00000E003E0681E45B2002DECDC00BFFF2022
:101BB00084F8450001F0F6FB01F0E5FB94F9445090
:101BC00010E0206908B9012000E0002048B904F1C4
:101BD000100001F057F808B101F0E8F8681E45B2AE
:101BE00000E001E0002DECDC00BFFF2084F84400A1
:101BF00001F0D8FB70BD70B5054601F0C4FBA86BC1
:101C0000E96B884201D1012400E0002401F0CAFB05
:101C1000204670BD2DE9F04104460F4615464FF0B1
:101C20000008A66B206C40B9206860BB606801F0BA
:101C300057F980460020606025E07DB93946226C66
:101C4000A06809F016FC216CA0680844A060D4E9E3
:101C50000110884217D32068A06014E03946226C36
:101C6000E06809F006FC216CE068401AE060216839
:101C7000E068884203D2216C6068401AE060022D5F
:101C800001D106B1761E701CA0634046BDE8F0810C
:101C90002DE9FF4383B0074688461D464FF00009F3
:101CA0003C4600BF01F06FFBA06BE16B884201D3A3
:101CB000022D28D12A4641462046FFF7ABFF0646B3
:101CC000606A08B9012000E0002068B904F124002E
:101CD00000F0D8FF88B14FF0805081490860BFF311
:101CE0004F8FBFF36F8F08E03EB14FF080507C49BB
:101CF0000860BFF34F8FBFF36F8F01F053FB0120DC
:101D000007B0BDE8F083059818B901F04BFB00203F
:101D1000F6E7B9F1000F04D101A801F016F84FF071
:101D2000010901F03FFB00F0DAFC01F02CFB94F913
:101D30004400401C10B9002084F8440094F9450088
:101D4000401C10B9002084F8450001F02BFB05A9C8
:101D500001A801F001F8F0B92046FFF74CFFA0B14F
:101D600004F11000059900F06BFF2046FFF704FF17
:101D700000F0EAFB002895D14FF0805058490860E8
:101D8000BFF34F8FBFF36F8F8CE72046FFF7F4FE52
:101D900000F0DAFB86E72046FFF7EEFE00F0D4FB0A
:101DA0000020ADE710B504464CB100206060206013
:101DB000E06000231A4619462046FFF769FF10BD70
:101DC0002DE9F0410446012600272246002101208A
:101DD000FFF7B6FE05462846FFF7E4FF2846BDE8B4
:101DE000F0812DE9F05F05468A4616461F462C46CF
:101DF00000BF8021EFF3118081F31188BFF34F8F73
:101E0000BFF36F8F00BF8146A06BE16B884201D3A7
:101E1000022F20D194F945B03A4651462046FFF7AB
:101E2000F9FE0BF1010070B9606A08B9012000E009
:101E3000002068B904F1240000F024FF40B13EB155
:101E40000120306004E00BF1010040B284F845004D
:101E50004FF0010801E04FF0000800BF89F311883E
:101E600000BF4046BDE8F09F2DE9F04705460E460D
:101E70002C4600BF8021EFF3118081F31188BFF35E
:101E80004F8FBFF36F8F00BF8046D4F83890E06B60
:101E900048451DD994F945A009F10100A0630AF154
:101EA000010070B9606A08B9012000E0002068B93B
:101EB00004F1240000F0E6FE40B13EB101203060A4
:101EC00004E00AF1010040B284F84500012700E077
:101ED000002700BF88F3118800BF3846BDE8F087AF
:101EE00004ED00E070B5054601F04DFAA86B08B9A5
:101EF000012400E0002401F055FA204670BD70B5C1
:101F000004460D46206C70B1216CE0680844E06026
:101F10006168E068884201D32068E0602846226C4E
:101F2000E16809F0A6FA70BD2DE9FF4782B00546C9
:101F300089461E464FF0000A2C4600BF01F023FAE6
:101F4000D4F83880B8F1000F3BD0E7684946204606
:101F5000FFF7D5FFDEB9A8F10100A063206810B932
:101F600001F007F86060206908B9012000E0002056
:101F700008BB04F1100000F085FEE0B14FF0805086
:101F800089490860BFF34F8FBFF36F8F13E0E7609D
:101F9000606A08B9012000E0002060B904F1240063
:101FA00000F070FE38B14FF080507F490860BFF3F9
:101FB0004F8FBFF36F8F01F0F5F9012006B0BDE838
:101FC000F087049818B901F0EDF90020F6E7BAF1AE
:101FD000000F04D1684600F0B8FE4FF0010A01F08E
:101FE000E1F900F07CFB01F0CEF994F94400401CCB
:101FF00010B9002084F8440094F94500401C10B941
:10200000002084F8450001F0CDF904A9684600F0ED
:10201000A3FE40BB2046FFF765FFF0B1206830B952
:1020200001F0B1F9606800F0E4FE01F0BBF904F1E1
:102030002400049900F004FE2046FFF79DFD00F007
:1020400083FA00287FF47AAF4FF080505649086039
:10205000BFF34F8FBFF36F8F70E72046FFF78CFD04
:1020600000F072FA6AE72046FFF786FD00F06CFA8E
:102070002046FFF737FF0028EED000209EE72DE92D
:10208000F05F05468A4616462C4600BF8021EFF3D6
:10209000118081F31188BFF34F8FBFF36F8F00BFA3
:1020A0008046D4F83890B9F1000F21D094F944B0AB
:1020B00051462046FFF723FFA9F10100A0630BF171
:1020C000010070B9206908B9012000E0002068B95A
:1020D00004F1100000F0D6FD40B13EB101203060A7
:1020E00004E00BF1010040B284F84400012700E055
:1020F000002700BF88F3118800BF3846BDE8F09F75
:102100002DE9F047054689462C4600BF8021EFF3B4
:10211000118081F31188BFF34F8FBFF36F8F00BF22
:102120000746A06B48B1D4F80C8049462046FFF71B
:10213000E6FEC4F80C80012600E0002600BF87F30D
:10214000118800BF3046BDE8F08770B5044601F045
:102150001AF9A56B01F026F9284670BD70B5044642
:10216000254601F010F9D5E90E10461A01F01AF9CA
:10217000304670BD0146886B704770B504462546F1
:10218000284601F0FCF970BD01468A6B0AB90120AE
:1021900000E00020704701468A6BCB6B9A4201D168
:1021A000012000E00020704704ED00E010B500249D
:1021B00007E004EB8401FE4A02EB8100FFF725FCF7
:1021C000641C052CF5D3FB48FFF71FFCFA48FFF70A
:1021D0001CFCFA48FFF719FCF948FFF716FCF94810
:1021E000FFF713FCF348F8490860F348F749086023
:1021F00010BD10B5044601F0C6F8F5480068401C53
:10220000F3490860F348006840B9F24804600846A2
:10221000006801280DD1FFF7C9FF0AE0EE48006809
:1022200038B9EC480068C06AE16A884201D8E948D8
:102230000460EA480068401CE849086094F82C10E3
:1022400001208840E64909680843E5490860E16AD9
:1022500001EB8101D64A02EB8100211DFFF7E5FB6E
:1022600001F0A0F8DC48006868B1DA480068C06A8C
:10227000E16A884207D24FF08050DA490860BFF324
:102280004F8FBFF36F8F10BD2DE9F05F81460F4672
:1022900090469A460A9E0C9C4FEA8801A522206B24
:1022A00009F0F9F8A8F10100216B01EB800B2BF08C
:1022B000070B002507E0795D04F134004155785D96
:1022C00000B902E06D1C102DF5D300BF00214320A2
:1022D0000155052E00D30426E66266640020A06442
:1022E000201DFFF79FFB04F11800FFF79BFB246103
:1022F000C6F10500A06164620020E06484F850002B
:1023000052464946584601F012F820600B9808B131
:102310000B980460BDE8F09F2DE9FF4F85B0804623
:1023200089461746DDE912ABB80001F0CAF8064647
:1023300056B1542001F0C5F804460CB1266304E000
:10234000304601F01CF900E000247CB10020CDE90A
:1023500000ABCDE902403A4649464046089BFFF7AC
:1023600093FF2046FFF745FF012501E04FF0FF35C1
:10237000284609B0BDE8F08F93490968096809B992
:10238000012100E0002121B14FF0FF31964A116098
:1023900006E08D490968C968C868934A41681160B8
:1023A000704710B50446206B01F0E9F8204601F0B3
:1023B000E6F810BD70B5054600F0E5FF15B9854893
:1023C000006800E028460446201DFFF754FB78B95A
:1023D000E06A00EB8000764951F8200040B994F89B
:1023E0002C10012088407E49096881437C480160A7
:1023F000A06A18B104F11800FFF73DFB77480068A8
:10240000401C7649086073480068844209D1211D48
:102410006B48FFF70AFB75480068401C7349086069
:1024200009E06B480068401E694908602046FFF7D4
:10243000B8FFFFF7A1FF00F0B5FF6748006858B18B
:1024400064480068844207D14FF0805065490860B5
:10245000BFF34F8FBFF36F8F70BD2DE9F0410027A1
:1024600063480068002863D162480068451C6148E1
:1024700005608DB95448D0F800805448006852492E
:1024800008605248C0F800805B480068401C5A4908
:102490000860FFF771FF00BF5348006885423BD3D7
:1024A00000BF49480068006808B9012000E000202A
:1024B00020B14FF0FF304C4908602CE042480068E2
:1024C000C068C4686668B54202D24748066022E028
:1024D000201DFFF7D0FAA06A18B104F11800FFF729
:1024E000CAFA94F82C10012088403D490968084335
:1024F0003B490860E16A01EB81012D4A02EB810052
:10250000211DFFF792FA3349E06A0968C96A8842D7
:10251000C7D30127C5E700BF2E480068C06A00EB9B
:102520008000234951F82000012800D9012704E048
:1025300032480068401C314908603148006800B1E9
:1025400001273846BDE8F08170B50024002600F070
:102550001AFF27480068401E2549086008460068A1
:1025600000287AD11A480068002876D04FE0134836
:10257000C068C46804F11800FFF77DFA201DFFF75A
:102580007AFA94F82C10012088401549096808430C
:1025900013490860E16A01EB8101054A02EB810001
:1025A000211DFFF742FA0B49E06A0968C96A29E070
:1025B000C80B00202C0C0020400C0020540C0020E4
:1025C000680C00207C0C0020040000200800002083
:1025D00010000020000000201C0000202C00002023
:1025E0001800002004ED00E0300000200C00002066
:1025F00038000020140000202800002020000020C7
:1026000024000020884202D30120F9490860F948DB
:10261000006808B9012000E000200028A7D00CB114
:10262000FFF7AAFEF448056865B100BFFFF715FF84
:1026300010B10120EE4908606D1E002DF6D100207A
:10264000ED490860EA48006838B101263007EB49D7
:102650000860BFF34F8FBFF36F8F00F0A3FE3046CB
:1026600070BD2DE9F04105460E46E5480768E5488E
:102670000068001DFFF7FFF950B9E248006890F8C4
:102680002C1001208840E04909688143DE48016040
:10269000681C38B936B1DB480168091DDB48FFF713
:1026A000C4F91AE07C19D74800684460BC4207D2DC
:1026B000D4480168091DD6480068FFF7C2F90CE04C
:1026C000D0480168091DD3480068FFF7BAF9D2481D
:1026D0000068844201D2D0480460BDE8F081CF4850
:1026E0000068401CCD49086070472DE9F04704465A
:1026F00088464FF00009FFF7F2FFC14806682068DE
:1027000000EB08052068B04207D92068A8420BD921
:10271000B54209D94FF0010906E02068A84201D866
:10272000B54201D94FF001092560B9F1000F03D07E
:10273000A81B0021FFF795FFFFF706FF07463FB9EB
:102740004FF08050AD490860BFF34F8FBFF36F8FDC
:10275000BDE8F08770B50446002544B1FFF7BFFF20
:1027600000212046FFF77DFFFFF7EEFE05463DB94D
:102770004FF08050A1490860BFF34F8FBFF36F8FB8
:1027800070BD70B5044600F0FEFD14B99D480068A8
:1027900000E020460646F56A00F004FE284670BDBB
:1027A00070B5024600BF8025EFF3118485F31188D0
:1027B000BFF34F8FBFF36F8F00BF214612B9914C0B
:1027C000246800E014462346D86A00BF81F31188CC
:1027D00000BF70BD2DE9F04780460D464FF000095F
:1027E000052D00D3042500F0CEFDB8F1000F02D175
:1027F0008448006800E040460446666CAE4256D00D
:10280000B5420BD97F48006884420DD07D480068EE
:10281000C06AA84208D84FF0010905E0794800686D
:10282000844201D14FF00109E76AE16A606C884295
:1028300000D1E5626564A06900F0004010B9C5F1FF
:102840000500A06107EB8701754A02EB8101606911
:10285000884201D1012000E00020E0B1201DFFF7F7
:102860000AF930B90120B8406749096881436648D0
:10287000016094F82C1001208840634909680843DE
:1028800061490860E16A01EB8101654A02EB810060
:10289000211DFFF7CAF8B9F1000F07D04FF08050A3
:1028A00056490860BFF34F8FBFF36F8F00BF00F032
:1028B00079FDBDE8F08770B55848006818B101206F
:1028C0004B49086038E00020494908604D480068DD
:1028D000046B4FF0A5352068B0F1A53F0BD16068BF
:1028E000B0F1A53F07D1A068B0F1A53F03D1E068E2
:1028F000B0F1A53F05D0434801683431006802F0CB
:1029000000FA41480068B0FA80F0C0F11F0101EB05
:102910008102434B03EB820042685268426000F13F
:1029200008024368934202D142685268426042689A
:10293000D268344B1A6000BF70BD70B5054600F018
:1029400022FD15B92F48006800E028460446201DE6
:10295000FFF791F878B9E06A00EB8000304951F850
:10296000200040B994F82C100120884026490968BD
:10297000814325480160A06A18B104F11800FFF7EF
:102980007AF8211D2148FFF750F800F00BFD25488B
:10299000006828B100F0F7FCFFF7EEFC00F002FD44
:1029A00018480068844217D11E48006840B14FF0B3
:1029B000805012490860BFF34F8FBFF36F8F0BE059
:1029C0001248006818490968884203D100200D495F
:1029D000086001E0FFF76FFF70BD10B501460020F1
:1029E0000A460A4C5369A34220D101231FE000008C
:1029F00024000020540C00202000002004ED00E002
:102A00001400002000000020180000207C0C002092
:102A100008000020040000203000002038000020C2
:102A2000C80B00201C00002010000020002373B100
:102A3000FE4C936AA34201D1012300E0002333B985
:102A4000936A0BB9012300E0002303B1012010BDFC
:102A500070B505462C4674B3F548006884422AD008
:102A600000F091FC2046FFF7B8FF10B3201DFFF7E0
:102A700002F894F82C1001208840EE4909680843B8
:102A8000EC490860E16A01EB8101EB4A02EB81004D
:102A9000211DFEF7CAFFE649E06A0968C96A884253
:102AA00007D34FF08050E5490860BFF34F8FBFF365
:102AB0006F8F00F077FC70BD2DE9F04106460027CE
:102AC000344600BF8021EFF3118081F31188BFF3FA
:102AD0004F8FBFF36F8F00BF05462046FFF77DFF86
:102AE00020B3D7480068E0B9D149E06A0968C96AEB
:102AF000884200D30127201DFEF7BDFF94F82C105B
:102B000001208840CB4909680843CA490860E16A46
:102B100001EB8101C84A02EB8100211DFEF785FF10
:102B200004E004F11801C148FEF77FFF00BF85F300
:102B3000118800BF3846BDE8F08170B523E0FFF78B
:102B4000CEFDC048006808B9012000E0002005461D
:102B5000FFF7FAFCBDB900F016FCBA48C068C468BB
:102B6000201DFEF788FFB8480068401EB64908607F
:102B7000B6480068401EB549086000F013FC2046C6
:102B8000FFF70FFC00BFB14800680028D7D170BD27
:102B900000BFFFF7D2FFA84800680128F9D94FF01D
:102BA0008050A6490860BFF34F8FBFF36F8FF0E7E7
:102BB0001CB5A74800210B468022CDE90010A5A135
:102BC000A648FFF7A9FB0446012C14D100BF8020C2
:102BD00080F31188BFF34F8FBFF36F8F00BF4FF0AB
:102BE000FF309F49086001209E49086000209E49EF
:102BF000086000F0B2FB1CBD10B500BF802080F360
:102C00001188BFF34F8FBFF36F8F00BF002095492E
:102C1000086000F0B7FB10BD9349086870470021B9
:102C2000914A10687047884800687047014611B99A
:102C30007F48006800E00846024602F13400704711
:102C400070B505460C467A48016818312846FEF7EB
:102C5000F8FE01212046FFF704FD70BD70B5064661
:102C60000C46154644F00040714909688861704877
:102C7000016818313046FEF7D8FE01212846FFF7DB
:102C8000F0FC70BD70B50646F068C46804F1180029
:102C9000FEF7F1FE6A480068A8B9201DFEF7EBFEBA
:102CA00094F82C1001208840624909680843614962
:102CB0000860E16A01EB81015F4A02EB8100211D9E
:102CC000FEF7B3FE04E004F118015848FEF7ADFE2C
:102CD0005749E06A0968C96A884204D90125012078
:102CE0006249086000E00025284670BD2DE9F041EA
:102CF00005460F4647F000402860EC682846FEF77E
:102D0000BAFE201DFEF7B7FE94F82C100120884073
:102D100048490968084347490860E16A01EB8101B5
:102D2000454A02EB8100211DFEF77FFE4049E06A23
:102D30000968C96A884204D9012601204B49086004
:102D400000E000263046BDE8F0814949096801608D
:102D5000454909684160704770B504460D4600F06A
:102D600012FB414802682868401C08B9002619E097
:102D70003F4920680968884204D06068904201D8C1
:102D800001260FE06068101A2968884209D2286875
:102D90006168511A401A28602046FFF7D6FF0026C6
:102DA00000E0012600F0FEFA304670BD01202F49F8
:102DB000086070470246002101E0521C491C10784F
:102DC000A528FAD0890888B270472DE9F041044659
:102DD00014B91748006800E0204607463D6B2846B6
:102DE000FFF7E8FF06463046BDE8F0811049086865
:102DF000704770B505462C46002D70D00C49E06A2E
:102E00000968C96A88426AD2A06900F0004028B9FE
:102E100007480068C06AC0F10500A061E16A01EBE3
:102E20008101054A02EB8101606923E0540C002016
:102E30000000002018000020C80B002004ED00E076
:102E400038000020680C0020100000200C0000203A
:102E50003400002049444C4500000000912B010043
:102E6000300000201C00002014000020240000205E
:102E700028000020884201D1012000E0002050B34A
:102E8000201DFEF7F8FD78B9E06A00EB8000FE49EE
:102E900051F8200040B994F82C1001208840FB49DB
:102EA00009688143F9480160F9480068C06AE06236
:102EB00094F82C1001208840F44909680843F3492C
:102EC0000860E16A01EB8101EF4A02EB8100211DFC
:102ED000FEF7ABFD03E0EE480068C06AE06270BD3B
:102EE00070B505462C460026ADB3A06C401EA0640C
:102EF000616CE06A88422ED0A06C60BB201DFEF79A
:102F0000BAFD78B9E06A00EB8000DF4951F8200093
:102F100040B994F82C1001208840DC4909688143AD
:102F2000DA480160606CE062E06AC0F10500A0610F
:102F300094F82C1001208840D44909680843D349EB
:102F40000860E16A01EB8101CF4A02EB8100211D9B
:102F5000FEF76BFD0126304670BDCD4909688869D2
:102F6000CB490968C96AC1F10501C94A1268916172
:102F70007047C748006830B1C549096801F1480089
:102F8000896C491C0160C2480068704770B50646EC
:102F90000D4600F0F8F9BE480068C06C88B9012001
:102FA000BB49096881F850005DB101212846FFF74F
:102FB00058FB4FF08050B7490860BFF34F8FBFF305
:102FC0006F8F00F0EFF900F0DEF9B1480068C46CD3
:102FD0004CB126B10020AE490968C86403E0601E08
:102FE000AB490968C8640020A949096881F8500004
:102FF00000F0D8F9204670BD2DE9F041074688461B
:1030000014461D4600F0BFF9A148006890F8500032
:10301000022818D09E49096801F14C00C96CB943D7
:10302000016001209A49096881F850005DB10121D1
:103030002846FFF716FB4FF0805096490860BFF313
:103040004F8FBFF36F8F00F0ADF900F09CF91CB10A
:103050008F480068C06C20608D48006890F8500070
:10306000012801D1002608E08949096801F14C00D6
:10307000C96C21EA08010160012600208449096821
:1030800081F8500000F08EF93046BDE8F0812DE95E
:10309000F04781460D4616461F464FF0010A4C4642
:1030A00000F071F90FB1E06C386094F850800220A4
:1030B00084F85000052E17D2DFE806F01503070B41
:1030C0000D00E06C2843E0640EE0E06C401CE0641E
:1030D0000AE0E56408E0B8F1020F01D0E56401E020
:1030E0004FF0000A00E000BF00BFB8F1010F22D18D
:1030F000201DFEF7C0FC94F82C1001208840634985
:103100000968084361490860E16A01EB81015E4A90
:1031100002EB8100211DFEF788FC5D49E06A096829
:10312000C96A884207D94FF080505A490860BFF3F6
:103130004F8FBFF36F8F00F035F95046BDE8F08731
:103140002DE9F84F82460D4616461F46DDF828B099
:1031500001200090544600BF8021EFF3118081F3DD
:103160001188BFF34F8FBFF36F8F00BF81460FB140
:10317000E06C386094F85080022084F85000052EEE
:1031800017D2DFE806F01503070B0D00E06C2843AB
:10319000E0640EE0E06C401CE0640AE0E56408E0F6
:1031A000B8F1020F01D0E56401E00020009000E0DA
:1031B00000BF00BFB8F1010F2DD137480068A8B992
:1031C000201DFEF758FC94F82C10012088402F4950
:1031D000096808432D490860E16A01EB81012A4A28
:1031E00002EB8100211DFEF720FC04E004F1180130
:1031F0002A48FEF71AFC2649E06A0968C96A88422B
:1032000009D9BBF1000F03D00120CBF8000002E088
:1032100001202349086000BF89F3118800BF00988E
:10322000BDE8F88F2DE9F04105460E462C4600BF5B
:103230008021EFF3118081F31188BFF34F8FBFF32B
:103240006F8F00BF074694F85080022084F850002A
:10325000E06C401CE064B8F1010F39D10E48006801
:1032600020BB201DFEF707FC94F82C10012088409D
:1032700006490968084305490860E16A01EB8101D4
:10328000014A02EB81000DE0C80B0020180000206D
:103290000000002004ED00E038000020540C002065
:1032A00024000020211DFEF7C0FB04E004F11801FA
:1032B0001648FEF7BAFB1649E06A0968C96A8842EF
:1032C00006D916B10120306002E0012011490860E2
:1032D00000BF87F3118800BFBDE8F08170B50546D7
:1032E00015B90B48006800E02846064600F04BF888
:1032F00096F85000022804D1002086F850000124DE
:1033000000E0002400F04EF8204670BD540C002070
:10331000000000202400002000BF802080F31188DE
:10332000BFF34F8FBFF36F8F00BF00BFFEE7001FDB
:103330004FF080730360001F21F001030360001F42
:103340002B4B0360143802602038704729484FF037
:10335000E021486107200861704710B526480068E1
:1033600040F47F00244908600846006840F07F4030
:103370000860FFF7EBFF002020490860FEF702FB22
:10338000002010BD704700BF802080F31188BFF37C
:103390004F8FBFF36F8F00BF18480068401C17495C
:1033A0000860704715480068401E144908600846C8
:1033B000006820B9002080F3118800BF00BF70476B
:1033C00010B500BF802080F31188BFF34F8FBFF38B
:1033D0006F8F00BFFFF741F820B14FF080500649D2
:1033E0001C39086000BF002080F3118800BF10BDA9
:1033F00019330100FFAF010020ED00E03C00002088
:1034000010B50146714800E0006803688B42FBD3A9
:103410000246436813448B4204D143684C682344FA
:10342000436001460A464B6813440468A34211D125
:10343000674C03682468A34208D04B68046864683A
:1034400023444B6003681B680B6005E0604B1B68FE
:103450000B6001E003680B60884200D0016010BD82
:1034600030B54FF4A0335B4800F007042CB1C01D09
:1034700020F00700574C041B1B1B0246534C2260D4
:103480000024524D6C60D018083820F00700504CD2
:10349000206000244E4D2D686C604D4D2D682C60D1
:1034A0001146441A4C604A4C24680C604A4D4C68E2
:1034B0002C604A4D4C682C604FF00044484D2C6005
:1034C00030BD2DE9F04105464FF00008FFF707F940
:1034D0003F48006808B9FFF7C3FF4148006828402B
:1034E000002847D145B1083505F0070020B105F0A7
:1034F0000700C0F108000544002D3BD037480068A4
:10350000854237D8314E3046046801E026462468AB
:103510006068A84202D220680028F7D12C480068D1
:10352000844227D0306800F1080820683060606865
:10353000401B102807D967196068401B78606560D8
:103540003846FFF75DFF254960680968081A234976
:1035500008600846006820490968884203D21F486D
:1035600000681D4908601E4960680968084360607A
:1035700000202060FEF7E8FF4046BDE8F08170B50E
:1035800006463546D6B1083D2C461549606809689F
:10359000084098B1206888B9114960680968884373
:1035A0006060FFF79CF80D496068096808440B49A2
:1035B00008602046FFF724FFFEF7C6FF70BD0748EE
:1035C000006870470448006870477047400000205A
:1035D00048000020900C0020500000204C000020EB
:1035E00054000020426901238B409A434261704796
:1035F00070B504460D46164629462046FFF7F2FFF1
:1036000006F0100098B1A0680121A9400843A0600D
:1036100006F0010028B120690121A940084320617A
:1036200026E020690121A9408843206120E0A168AB
:103630000120A8408143A16006F0020028B1E068A3
:103640000121A9400843E06012E0E0680121A9409F
:103650008843E06006F0010028B121690120A840FC
:103660000143216104E021690120A84081432161D7
:103670000120A840206270BD426901238B401A439B
:10368000426170470246D069C84000F001007047AF
:1036900002469069C84000F00100704701228A404C
:1036A000026270472DE9F04107460C4615461E465A
:1036B000DDF81880F149781A8F4273D009DCF048A0
:1036C000384468B1B0F5805F41D0B0F5005F3DD1BE
:1036D00073E0B0F5805F6FD0B0F5405FF7D10CE1DB
:1036E0004FF08040806840F001004FF080418860DA
:1036F000012300222146104600F062FC012D09D171
:10370000DF48404240680121A1400843DC4949426A
:10371000486008E0DA48404240680121A1408843FF
:10372000D74949424860012E08D1D6480068012196
:10373000A1400843D449C1F8000207E0D14801681C
:103740000120A0408143D048C0F800120AE14FF0A8
:103750008040806840F002004FF080418860012383
:1037600000222146184600F02BFC012D07D1C74846
:1037700041680120A0400143C448416006E0C348BD
:1037800041680120A0408143C0484160B8F1010F69
:1037900009D1BF4800680121A1400843BA49C1F8D6
:1037A000000308E03EE0BA4801680120A0408143E0
:1037B000B548C0F80013D5E069E04FF0804080685C
:1037C00040F004004FF08041886001230022214630
:1037D000022000F0F5FB012D07D1AE484168012021
:1037E000A0400143AB48416006E0AA48416801207F
:1037F000A0408143A7484160012E09D1A148103063
:1038000000680121A14008439F49C1F8100208E067
:103810009C48103001680120A04081439A48C0F8BC
:1038200010129FE04FF08040806840F010004FF091
:1038300080418860012300222146032000F0C0FB64
:10384000012D07D18D4841680120A04001438B48DC
:10385000416006E0894840680121A14088438749CA
:103860004860012E09D18748203001680120A0401E
:1038700001438548C0F8201208E0824820300068E3
:103880000121A14088438049C1F820026AE04FF03D
:103890008040806840F020004FF080418860012324
:1038A00000222146042000F08BFB012D07D17A482D
:1038B00041680120A04001437748416006E0764816
:1038C00040680121A140884373494860B8F1010F65
:1038D00009D16F48203001680120A04001436A48A7
:1038E000C0F8201308E06A48203000680121A14098
:1038F00088436549C1F8200334E04FF08040806878
:1039000040F400104FF080418860012300222146DE
:10391000052000F055FB012D07D1604840680121CA
:10392000A14008435D49486006E05C4840680121C9
:10393000A140884359494860012E09D1514830308F
:1039400001680120A04001434F48C0F8301208E050
:103950004C48303000680121A14088434A49C1F8F1
:10396000300200BF00BFBDE8F08110B501234FF069
:10397000844404EB401242F8213010BD10B50023FE
:103980004FF0844404EB401242F8213010BD10B5D2
:103990004FF0844303EB401252F82120C2F101039F
:1039A0004FF0844404EB401242F8213010BD02462F
:1039B0001068C84000F00100704730B5C2F118052A
:1039C0006FF07F4444FA05F3046803FA01F52C43D1
:1039D000046030BD30B5C2F118056FF07F4444FA81
:1039E00005F3046803FA01F5AC43046030BD30B55B
:1039F000C2F118056FF07F4444FA05F3046803FA36
:103A000001F56C40046030BD30B50346C2F11805C5
:103A10006FF07F4040FA05F41868C840204030BD80
:103A200030B5C2F118056FF07F4444FA05F372B661
:103A3000046803FA01F52C43046062B630BD30B56A
:103A4000C2F118056FF07F4444FA05F372B60468BA
:103A500003FA01F5AC43046062B630BD30B5C2F183
:103A600018056FF07F4444FA05F372B6046803FA50
:103A700001F56C40046062B630BD000000500140AA
:103A800000F0FEBF000201400000014000200140A4
:103A9000000301400030014000600140008001400F
:103AA000416821F400714160704770B504460D46CD
:103AB000E948204448B1B0F5805F0FD0B0F5005F11
:103AC00015D0B0F5405F24D11AE04FF080408068F7
:103AD00040F400604FF0804188601AE04FF0804071
:103AE000806840F480504FF08041886011E04FF0D2
:103AF0008040806840F400504FF08041886008E0CA
:103B00004FF08040806840F480404FF080418860F2
:103B100000BF00BF2046FFF7C3FF606840F40050BD
:103B20006060A0686FF30D00A060CC4800680009D9
:103B30002968B0FBF1F0401EA1680843A0606068EE
:103B400020F47C00606028798004697940EAC140F3
:103B5000A97940EA8150616808436060BE4820440A
:103B600048B1B0F5805F0AD0B0F5005F0BD0B0F57A
:103B7000405F10D10BE0272000F065F90BE0282012
:103B800000F061F907E0292000F05DF903E02A2048
:103B900000F059F900BF00BFE06880B2E060E8794A
:103BA000401C0004697A40EA0160E1680843E06073
:103BB000606820F07F4060606068E97A40EA0160F8
:103BC0006060606844F2140188436060287A0001F4
:103BD000A97A40EA8100297B40EA81306168084384
:103BE00060609D48204448B1B0F5805F14D0B0F5C6
:103BF000005F1FD0B0F5405F38D129E0287AA97A5C
:103C00000843297B084318B1272000F011F902E08E
:103C1000272000F018F929E0287AA97A0843297B9F
:103C2000084318B1282000F003F902E0282000F032
:103C30000AF91BE0287AA97A0843297B084318B1BE
:103C4000292000F0F5F802E0292000F0FCF80DE052
:103C5000287AA97A0843297B084318B12A2000F062
:103C6000E7F802E02A2000F0EEF800BF00BF70BDC8
:103C7000416841F40071416070470160704702463D
:103C80001368C3F30800086003F4806008B10220E1
:103C900070470020FCE70146486800F0010080F012
:103CA0000100704701464868012222EAD0007047AF
:103CB00001464868C0F34000704782686FF30D0208
:103CC0008260664A12681209B2FBF1F2521E8368E2
:103CD0001A4382607047014660480068020988689C
:103CE000C0F30D00401CB2FBF0F0704710B5436903
:103CF00023F005034361436941EA8204234343619E
:103D000010BD01464869C0F3C010704730B5446922
:103D100024F07A0444614C0044EAC20444EA0314E7
:103D200045692C43446130BD01464869C0F3002019
:103D3000704710B5036923F005030361036941EA85
:103D400082042343036110BD016941F01001016148
:103D5000704701460869C0F3400070470146086992
:103D6000C0F3C000704710B50022FF2903D040F215
:103D7000FF13994201D1002216E0FE2902D0B1F5CD
:103D8000FF7F01D101220FE0F82902D0B1F5FC7FBD
:103D900001D1022208E0802902D0B1F5C07F01D113
:103DA000032201E000BFFEE7836823F060738360B5
:103DB00083684FF4000444EA02642343836010BD27
:103DC0000146886800F4000008B100207047886848
:103DD00000F0806008B10220F8E70120F6E74268B1
:103DE0000A434260704742688A4342607047024615
:103DF00001F0100018B1906800F48000A0B901F43F
:103E0000804018B1906800F4001068B901F0040017
:103E100018B1906800F4003030B901F0400028B1CA
:103E2000906800F0006008B1012070470020FCE7B6
:103E300000F01F02012191404209920002F1E022AC
:103E4000C2F80011704700F01F0201219140044A9E
:103E5000430942F8231070470000FEBF68000020AD
:103E600080E100E0816821F001018160704770B558
:103E700003460C464FF08040806840F080004FF0D1
:103E8000804188601846FFF7EDFF82B9600818602E
:103E9000252000F01F050121A940164D460945F8CF
:103EA000261000BF986840F00200986010E01C6087
:103EB000252000F01F050121A9404509AD0005F1AD
:103EC000E025C5F8001100BF986820F00200986056
:103ED00070BD816841F00101816070475521016129
:103EE00070470146486870470121C160704701462C
:103EF000C868704780E100E010B5044672B6200B38
:103F000027490968884727480068804762B610BD7E
:103F100070B505460E46144605F00F0008B10220A4
:103F200070BD04F0030008B10220F9E772B6A208E0
:103F3000314628461C4B1B6898471A480068804742
:103F400062B60020ECE710B5044672B61E2C06D00F
:103F5000282C0BD0502C10D0782C15D115E01349FB
:103F600040F28940124A1268904715E0114940F228
:103F700089400F4A126890470EE00F4940F289408D
:103F80000B4A1268904707E000BF0C4940F28A4094
:103F9000074A1268904700BF00BF62B610BD00001C
:103FA000600000205800002064000020251FF4ABB2
:103FB0005C0000202929F4AB4D52F8AB6E7AFCABC3
:103FC00070B506285CD2DFE800F0035CB9FDFCFBAD
:103FD000632A33D9062916D2FE4C246801EB8106E8
:103FE0001F25B540AC43FC4DC5F80041A2F1640467
:103FF00001EB8105AC40F84DD5F800512C43F64D4E
:10400000C5F800411AE00C2918D2F24C241D24688E
:104010008D1F05EB85061F25B540AC43EE4DC5F859
:104020000441A2F164048D1F05EB8505AC40EA4D07
:10403000D5F804512C43E84DC5F80441E64C2468FA
:104040004E000325B540AC43E34D2C60632A01D9F3
:10405000012400E014464D00AC40DF4D2D682C4398
:10406000DD4D2C60DD4C246801258D40AC43DB4DDB
:104070002C602C46246803FA01F52C43D74D2C60A4
:10408000BAE2632A34D9062917D2D24C10342468F4
:1040900001EB81061F25B540AC43CF4DC5F810415B
:1040A000A2F1640401EB8105AC40CB4DD5F8105171
:1040B0002C43C94DC5F810411AE00C2918D2C54C43
:1040C000143424688D1F05EB85061F25B540AC43CD
:1040D000C14DC5F81441A2F164048D1F05EB85059F
:1040E000AC40BD4DD5F814512C43BB4DC5F814411F
:1040F000B94C64684E000325B540AC43B64D6C60C6
:10410000632A01D9012400E014464D00AC40B24DB1
:104110006D682C43B04D6C60B04C103424680125A0
:104120008D40AC43AD4D10352C602C46246803FA0D
:1041300001F52C43A94D10352C605DE2632A34D97A
:10414000062917D2A34C2034246801EB81061F25D1
:10415000B540AC43A04DC5F82041A2F1640401EB89
:104160008105AC409C4DD5F820512C439A4DC5F8A3
:1041700020411AE00C2918D2964C243424688D1F53
:1041800005EB85061F25B540AC43934DC5F824418A
:10419000A2F164048D1F05EB8505AC408E4DD5F86A
:1041A00024512C438C4DC5F824418B4CA4684E00FF
:1041B0000325B540AC43884DAC60632A05D902E0C5
:1041C00067E1CFE01BE0012400E014464D00AC4065
:1041D000814DAD682C43804DAC60804C2034246808
:1041E00001258D40AC437D4D20352C602C46246844
:1041F00003FA01F52C43794D20352C60FCE1632A4C
:1042000070D9062917D2734C6034246801EB8106FB
:104210001F25B540AC43704DC5F86041A2F1640460
:1042200001EB8105AC406C4DD5F860512C436A4DD3
:10423000C5F8604156E00C2919D2664C64342468F4
:104240008D1F05EB85061F25B540AC43624DC5F8B3
:104250006441A2F164048D1F05EB8505AC405E4D01
:10426000D5F864512C435C4DC5F864413AE01229FD
:104270001BD2584C68342468A1F10C0505EB850667
:104280001F25B540AC43544DC5F86841A2F1640404
:10429000A1F10C0505EB8505AC404F4DD5F86851F3
:1042A0002C434D4DC5F868411CE018291AD2494CE1
:1042B0006C342468A1F1120505EB85061F25B54075
:1042C000AC43454DC5F86C41A2F16404A1F112055F
:1042D00005EB8505AC40404DD5F86C512C433E4D67
:1042E000C5F86C41102914D23B4C246A4E000325BA
:1042F000B540AC43384D2C62632A01D9012400E05B
:1043000014464D00AC40344D2D6A2C43324D2C6286
:1043100017E0314C646AA1F110056E000325B54029
:10432000AC432D4D6C62632A01D9012400E0144690
:10433000A1F110056D00AC40274D6D6A2C43264D50
:104340006C62264C4034256801248C40A543234CE4
:1043500040342560246803FA01F52C431F4D403595
:104360002C6049E1632A57D9062917D2194C7034B9
:10437000246801EB81061F25B540AC43164DC5F8F6
:104380007041A2F1640401EB8105AC40124DD5F8F7
:1043900070512C43104DC5F870413DE00C291FD2DF
:1043A0000C4C743424688D1F05EB85061F25B54021
:1043B000AC43094DC5F87441A2F164048D1F05EBAF
:1043C0008505AC40044DD5F874512C43024DC5F819
:1043D000744121E00001014000000140000601405D
:1043E000122919D2854C2468A1F10C0505EB85062C
:1043F0001F25B540AC43824DC5F87841A2F1640455
:10440000A1F10C0505EB8505AC407D4DD5F8785143
:104410002C437B4DC5F87841102914D2784C246B7D
:104420004E000325B540AC43754D2C63632A01D97A
:10443000012400E014464D00AC40714D2D6B2C431F
:104440006F4D2C6317E06E4C646BA1F110056E008C
:104450000325B540AC436A4D6C63632A01D901243E
:1044600000E01446A1F110056D00AC40644D6D6B89
:104470002C43634D6C63634C256801248C40A54339
:10448000604C2560246803FA01F52C435D4D2C60D7
:10449000B2E0632A70D9062917D2584C0834246830
:1044A00001EB81061F25B540AC43554DC5F8804151
:1044B000A2F1640401EB8105AC40514DD5F8805167
:1044C0002C434F4DC5F8804156E00C2919D24B4C76
:1044D0000C3424688D1F05EB85061F25B540AC43C1
:1044E000474DC5F88441A2F164048D1F05EB850595
:1044F000AC40434DD5F884512C43414DC5F884411F
:104500003AE012291BD23D4C10342468A1F10C056D
:1045100005EB85061F25B540AC43394DC5F88841EC
:10452000A2F16404A1F10C0505EB8505AC40344D06
:10453000D5F888512C43324DC5F888411CE0182924
:104540001AD22E4C14342468A1F1120505EB85060D
:104550001F25B540AC432A4DC5F88C41A2F1640437
:10456000A1F1120505EB8505AC40254DD5F88C5120
:104570002C43234DC5F88C41102914D2204C246CB7
:104580004E000325B540AC431D4D2C64632A01D970
:10459000012400E014464D00AC40194D2D6C2C4315
:1045A000174D2C6417E0164C646CA1F110056E00D9
:1045B0000325B540AC43124D6C64632A01D9012434
:1045C00000E01446A1F110056D00AC400C4D6D6C7F
:1045D0002C430B4D6C640B4C1034256801248C402B
:1045E000A543084C10342560246803FA01F52C43D8
:1045F000044D10352C6000BF00BF70BD7801014034
:1046000000000140500601402DE9F0418EB0054602
:104610000F46904600263422A44901A806F029FF3F
:10462000012404E001A850F824000644641CBC42A4
:10463000F8D3464405F0030078B96420B5FBF0F1E7
:1046400000FB115030B94FF4C870B5FBF0F100FB1E
:10465000115010B9032F00D3761CA5F26D7040F2F3
:104660006D1100FB016640F26D7411E004F003006F
:1046700068B96420B4FBF0F100FB114030B94FF48D
:10468000C870B4FBF0F100FB114000B9761C641C4B
:10469000AC42EBD3701C0721B0FBF1F201FB12001E
:1046A0000EB0BDE8F08100214162704770B505464B
:1046B0000C464FF08040806840F080704FF08041A1
:1046C00088607B48006A20F00100794908624FF059
:1046D0008040806877490843090588602846FFF7CD
:1046E000E2FF00BFA86A0028FCD0A079617940EA07
:1046F000811028602079E17840EA41106860E27812
:10470000A1782088FFF780FFA17840EAC100A86067
:104710002088E8600120A8611F202862E079217AC2
:1047200040EA4100E861E079217A084318B130207D
:1047300000F0B1F80AE0302000F01F0201219140A2
:104740005D4A430942F8231000BF00BF70BD01213C
:1047500041627047C2680A808268C2F3C3028A70ED
:104760004268C2F34412CA70826802F00703012251
:104770009A400A71426802F01F024A710268C2F34D
:1047800085128A71026802F03F02CA71704770B5E3
:1047900004460D4600BFA06A0028FCD0E878A9783E
:1047A00040EA811020616878297840EA4110606110
:1047B0000220A06100BFA06900F002000028FAD129
:1047C00010202062E06920F01000E061E0692979A2
:1047D00040EA0110E061287910B1302000F05BF868
:1047E00070BDC16941F00101C1617047C16921F02B
:1047F0000101C16170470121016270470146086AE9
:1048000000F001007047C16941F00201C1617047C9
:10481000C16921F00201C161704702210162704744
:104820000146086AC0F340007047C16941F00401C5
:10483000C1617047C16921F00401C1617047042161
:10484000016270470146086AC0F380007047C16981
:1048500041F00801C1617047C16921F00801C161DF
:1048600070470821016270470146086AC0F3C00022
:104870007047C16941F01001C1617047C16921F001
:104880001001C16170471021016270470146086A3A
:10489000C0F30010704700F01F020121914042094F
:1048A000920002F1E022C2F80011704754CC0100DE
:1048B00000E001400004008080E100E04FF0804013
:1048C000006800F00400B0B14FF08040006800F0D4
:1048D000020018B1A448A54908602EE0A448006869
:1048E00000F0010018B1A348A049086025E0A248E3
:1048F0009E49086021E04FF08040006800F0010010
:10490000B8B19B48406A00F0020018B19A48974934
:10491000086002E0944895490860944800680521C1
:10492000B0FBF1F032214843C0F35C008F490860CE
:1049300003E04FF4FA408D4908604FF08040406832
:1049400000F0010020B189480068400887490860EC
:10495000864800688949B0FBF1F0894908607047D2
:104960004FF08041096801F0040161B94FF08041C6
:10497000096801F0010131B9002001E000BF401CCD
:104980001428FBD307E0002001E000BF401C44F6E0
:1049900020618842F9D3704710B50120744908623C
:1049A000FFF7DEFFFFF7DCFF7148406A20F00200EE
:1049B0006F4948620846806A724908406C498862BB
:1049C0000846806A70490843694988620846406A17
:1049D00020F00400486200BF6548006B0028FBD04F
:1049E00010BD10B5FFF7D8FF6148406A40F00100E4
:1049F0005F4948628804006840F00100890408604B
:104A00000846006820F00400086010BD10B50120C1
:104A100057490862FFF7A4FFFFF7A2FF4FF080405D
:104A2000006840F002004FF08041086008460068CE
:104A300040F00400086010BD10B54FF08040806861
:104A400040F080704FF0804188605048006A20F04C
:104A500001004E490862FFF783FF4FF08040006875
:104A600020F001004FF0804108600846006820F007
:104A70000400086010BD10B501203D490860FFF733
:104A80006FFF4FF08040006820F002004FF080413F
:104A900008600846006840F00400086010BD10B5CA
:104AA000002033490860FFF75BFF4FF0804000684B
:104AB00020F002004FF0804108600846006840F096
:104AC0000400086010BD10B54FF08040806840F4CD
:104AD00080004FF0804188607820FFF734FA04208E
:104AE000052813D2DFE800F00306090C0F00FFF7DA
:104AF000D6FF0BE0FFF7BFFF08E0FFF79DFF05E0E3
:104B0000FFF784FF02E0FFF76CFF00BF00BF4FF02C
:104B10008040406820F001004FF080414860084626
:104B200040684860FFF7CAFE10480068184988428C
:104B300003D97820FFF707FA14E00C4800680D4904
:104B4000884203D95020FFF7FEF90BE007480068C0
:104B50001049884203D92820FFF7F5F902E01E200A
:104B6000FFF7F1F910BD000000805101680000203E
:104B700000100340005A6202002D310140420F0034
:104B80006C00002000FEE0FC3200050000E0014067
:104B900000B4C40480C3C90125480047FEE7FEE70E
:104BA000FEE7FEE7FEE7FEE7FEE7FEE7FEE7FEE7DD
:104BB000FEE7FEE7FEE7FEE7FEE7FEE7FEE7FEE7CD
:104BC000FEE7FEE7FEE7FEE7FEE7FEE7FEE7FEE7BD
:104BD000FEE7FEE7FEE7FEE7FEE7FEE7FEE7FEE7AD
:104BE000FEE7FEE7FEE7FEE7FEE7FEE7FEE7FEE79D
:104BF000FEE7FEE7FEE7FEE7FEE7FEE7FEE7FEE78D
:104C0000FEE7FEE7FEE7FEE7FEE7FEE7FEE7FEE77C
:104C1000FEE7FEE7FEE7FEE7FEE7FEE7FEE7FEE76C
:104C2000FEE7FEE7FEE7FEE7FEE7FEE7FEE7FEE75C
:104C30004919010088B0044625686668A768D4F859
:104C40000C80D4F81090D4F814A0D4F818B0E0690F
:104C500007904F48006806904D48001D0068059079
:104C60004B480830006804904948143000680390AD
:104C700047480C30006802904548103000680190A9
:104C800044A007F015FB294648A007F011FB314668
:104C900049A007F00DFB39464AA007F009FB414641
:104CA0004BA007F005FB49464CA007F001FB51461D
:104CB0004DA007F0FDFA59464EA007F0F9FA50A0B2
:104CC000079907F0F5FA0398009050A0DDE9043247
:104CD000069907F0EDFA58A0DDE9012107F0E8FA9E
:104CE00000BFFEE75AA000F01DFA00BFFEE75DA07E
:104CF00000F018FA00BFFEE75DA000F013FA00BF55
:104D0000FEE70C4621465EA007F0D2FA00BFFEE7A0
:104D10001FB50123642202210020FFF751F900236F
:104D2000642203211846FFF74BF94FF4E13000905D
:104D300000208DF808008DF80A008DF80C006946F7
:104D40005448FEF7B2FE5348FEF792FF1FBD10B560
:104D5000FFF7B9FEFFF7DCFF4FA007F0A9FA55A057
:104D600007F0A6FA00F0B0F9FDF722FF002010BD11
:104D700070B504460D4600BF4648FEF799FF00286F
:104D8000FAD121464348FEF778FF204670BD000067
:104D900028ED00E00D0A486172644661756C74206C
:104DA0006465746563746564210D0A005230203DAA
:104DB00020253038580D0A005231203D202530384A
:104DC000580D0A005232203D20253038580D0A0077
:104DD0005233203D20253038580D0A005231323DE3
:104DE00020253038580D0A004C52203D20253038FF
:104DF000580D0A005043203D20253038580D0A0038
:104E00005053523D20253038580D0A004346535226
:104E10003D2530385820484653523D2530385820DB
:104E2000444653523D2530385820414653523D2583
:104E30003038580D0A0000004D4D4641523D253096
:104E4000385820424641523D253038580D0A00005E
:104E50004D656D4D616E616765204661756C740DC1
:104E60000A0000004275734661756C740D0A0000FB
:104E700055736167654661756C740D0A000000002A
:104E8000537461636B4F766572666C6F773A202559
:104E9000730D0A00000002402D2D2D2D2D2D2D2DDE
:104EA0002D2D2D2D2D2D2D2D2D2D2D2D2D2D0D0A75
:104EB000000000004170705F5F5F5F5F41207379A9
:104EC0007374656D2072756E2E2E2E0D0A00000013
:104ED0000D490EA000F026F904E000F0A1F905202C
:104EE000FDF738FCF9E71CB50A4908A000F01AF9EB
:104EF0000948022100234A02CDE9001007A1AFF2C0
:104F00002F00FDF709FA1CBD88CC010025730D0A9E
:104F10000000000092CC0100700000206372746CED
:104F20005F7461736B000000114912A000F0FAF881
:104F30000AE0124909684868804711490968886889
:104F400080470520FDF706FCF3E71CB50D4909A0D5
:104F500000F0E8F80C48032100234FF48062CDE90B
:104F600000100AA1AFF23F00FDF7D6F91CBD00000A
:104F7000A3CC010025730D0A00000000B80000203A
:104F800074010020AFCC0100740000206C697374C0
:104F9000656E5F7461736B0010B57148006801281D
:104FA00000D110BD0120FCF70BFF6E4908600846D8
:104FB000006828B96C496DA007F07AF900BFFEE7D8
:104FC00001206749086000BFEBE786B06A4968A026
:104FD00007F06EF9694800688168002088476748D3
:104FE00000684FF4E1310268002090476348006890
:104FF000416800208847FFF7CFFF00F0C6F900F0B6
:10500000EBF8FFF7A2FFFFF76EFF5D49096808683C
:1050100080475C490968086880475B4909680868F7
:1050200080475948006881680120884756480068D1
:10503000416801208847544800680021C26808463A
:105040009047514800680021C268012090474FF402
:105050007A70FDF77FFB4D480068002102681A2036
:1050600090474A480068002102680320904747485B
:105070000068002142681A209047444800680021D7
:1050800042680320904742490968086880474149BF
:1050900009680868804718223F49684606F0E9F920
:1050A0003E490968886880473C480068016868464E
:1050B00088473A4909684868804704E003F048FB9C
:1050C0000A20FDF747FBF9E71CB5354928A007F092
:1050D000EFF83448022100234A02CDE9001032A142
:1050E000AFF21910FDF718F91CBD10B51C48006887
:1050F00000B910BD00235A1E19461A480068FCF773
:1051000013FF044600BFF4E710B51548006800B966
:1051100010BD00231A46194612480068FCF7B8FD76
:1051200000BFF5E70FB400B5C1B00D48006810B975
:1051300041B05DF814FB43A800904FF4807101A8C2
:10514000009B429A07F0DEF800200090FFF7CDFFA9
:1051500001A918A007F0ACF8FFF7D6FF00BFE7E7FA
:10516000800000207C000020FACC01006572723AB9
:1051700025730D0A00000000C4CC0100C00100200E
:1051800074010020B80000203C010020A001002094
:10519000B80B0020A00B0020D0CC0100D8010020CB
:1051A000E8CC01007800002073746172745F746150
:1051B000736B000025730000104911A0FFF7B2FFC8
:1051C00009E001F022F9104800680169C820884709
:1051D0000520FDF7BFFAF4E71CB50C4908A0FFF75E
:1051E000A1FF0B48022100234A02CDE9001009A1CA
:1051F000AFF23B00FDF790F81CBD000006CD0100AA
:1052000025730D0A000000003C01002010CD0100B4
:1052100084000020686F73745F7461736B0000001A
:1052200010B500F090FD00F0ADF900F069FA10BD86
:1052300070B500206E4909684968086000240EE0D6
:105240006B4800684068001D04EBC40101EB41019C
:1052500000EB81056C21284606F024F9641C022C21
:10526000EEDB70BD2DE9F041002662A002F079FD71
:10527000624908600846006830B92C22604961A084
:10528000FFF750FF00BFFEE76023614A00215B4843
:10529000006802F0E6FD0546602D06D0342258492C
:1052A00058A0FFF73FFF00BFFEE7514800680068C5
:1052B0000068A5283DD057A0FFF734FFA5204C4932
:1052C0000968096808600120494909680968087186
:1052D0000020474909680968487102204449096863
:1052E0000968887100204249096809684873404983
:1052F0000968096808733E4909680968C8713C492A
:105300000968096888604848394909680968086176
:105310000146374800680068416100203449096847
:10532000096888610021324800680068C161761C04
:1053300002E03EA0FFF7F6FE00240FE02C490968CA
:105340000968103151F8240006F0BAFA07463A46C7
:105350000B4621463BA0FFF7E5FE641C022CEDDB6B
:105360008EB1602200212548006802F099FF204894
:1053700000686023002102682048006802F025FFD1
:1053800034A0FFF7CFFEBDE8F08110B537480068C4
:1053900000B110BD3648164908601D48096808600C
:1053A000344813490968486002F090FAFFF75AFF41
:1053B000FFF73EFF01202D49086000BFE9E710B567
:1053C0002A48006800B910BD602200210B4800681F
:1053D00002F066FF06480068602300210268074863
:1053E000006802F0F2FE1BA0FFF79CFE00BFEAE798
:1053F00090000020636F6E660000000094000020A3
:1054000021CD01006572723A25732C25640D0A00C6
:10541000904C01205379732069732066697273740C
:1054200020626F6F740D0A000000204153797320D1
:105430006973206E6F7420666972737420626F6F77
:10544000740D0A006B5B25645D203D2025660D0A06
:1054500000000000777269746520646174612074D3
:105460006F20666C617368200D0A000098000020B0
:1054700088000020F04C0120014600BF3948007828
:10548000704710B538480068012102681520904720
:1054900010BD2DE9F047FDF7BFFB824606F0D6F9B7
:1054A00007460022314B06F0EBF8054606F0EFF90F
:1054B0000446B4F5FA6F01D2BDE8F0872C480068C5
:1054C000201A052800D2F7E729480460264800681A
:1054D00081681520884700F0FF092648007810B140
:1054E000012815D108E0B9F1000F04D12148007856
:1054F000401C204908700FE0B9F1000F07D00020D0
:105500001C4908701C480078401C1B49087003E0C7
:1055100000201849087000BF00BF18480068201A12
:10552000B0F57A7F00D2C7E71448046012480078CB
:105530000A2808DA01200B490870114800688168C0
:105540000120884707E00020064908700C480068E1
:1055500081680020884700200749087005490870C5
:1055600000BFA9E79C000020A00100200000F03F40
:10557000A0000020BC000020A8000020A400002003
:105580003C0100202DE9F04194B0444800684021DE
:10559000826804A890470746002F02DA14B0BDE8DD
:1055A000F0810598022800D3F8E73D48006840687C
:1055B000001D059901EBC10101EB410100EB8104E4
:1055C000049810B1012864D160E0207828B104F17A
:1055D000100134A0FFF7A6FD57E039A0FFF7A2FDA8
:1055E000202104F1100005F05DFF0CAB3CA220214E
:1055F00004F1100006F06CFE0020A0600120E060C5
:1056000038490968C868804780461822414604F135
:10561000340005F02EFF34480068416804F134007E
:10562000884705460E460698C0EB001080004519D5
:1056300046F100062C48006804F14C020368284635
:10564000314698472848006804F13401826827A051
:1056500090472548006804F14C01826825A09047D6
:1056600000202549CDE900010290059A2348E16810
:1056700000680023D0F804C004F11000E047E0689F
:10568000401CE0600120207000BF03E00120E071B9
:1056900000E000BF00BF00BF80E70000B80B0020A3
:1056A000900000206572723A736F636B20697320FB
:1056B000776F726B696E67202C25730D0A000000EE
:1056C0006E6F20776F726B696E67206F72646572A0
:1056D0002C7374617274206368617267650D0A00CF
:1056E00025730000D8010020A80A0020737461729D
:1056F00074000000656E640000005C43A00B002095
:105700002DE9F04700243B4800680068407B0128F1
:1057100001D0BDE8F0873848007810B1012865D184
:105720001BE0FDF779FA814606F090F80746002263
:10573000324B05F0A5FF054606F0A9F83049086090
:105740002D480078401C2C4908702D4814222DA1AA
:10575000036834A0FFF7E6FC49E037490968486868
:105760008047FDF759FA814606F070F80746002297
:10577000224B05F085FF054606F089F804462048CF
:105780000068201A42F2107188422ED923461C224A
:105790001CA124A0FFF7C6FCAFF29B05B5F5203F86
:1057A0000AD902201349096809684873212215A102
:1057B00022A0FFF7B7FC09E000200E49096809683C
:1057C000487326220FA125A0FFF7ACFC1A490968EF
:1057D000C868804700200749096809680873FFF70F
:1057E000EEFD2648FFF79EFC00BF00E000BF00BFB3
:1057F00000BF8EE790000020C00000200000F03FB6
:10580000C40000204150505C776F726B5C776F7200
:105810006B5F6379636C655F7265626F6F742E6333
:105820000000000025732C25642C6E7469636B3AAC
:1058300025640D0A00000000EC0100202D2D2D2D07
:105840002D2D2D2D2D2D2D2D2D2D2D2D25732C4137
:105850005050425F72756E6E696E67002D2D2D2D52
:105860002D2D2D2D2D2D2D2D2D2D2D2D25732C4117
:105870005050415F72756E6E696E6700B0D1010065
:1058800010B5044644B1012C0DD1FE480068012139
:1058900042681A20904707E0FA48006801214268F0
:1058A0000320904700E000BF00BF10BD10B50446C4
:1058B00044B1012C0DD1F3480068002142681A2040
:1058C000904707E0EF4800680021426803209047B6
:1058D00000E000BF00BF10BD2DE9F04F89B0814648
:1058E0004FF0000A0020059009F0FF00E649096822
:1058F0004A6806A9904704900498002802DA09B083
:10590000BDE8F08FE14800684068001D09EBC9015F
:1059100001EB410100EB8104207800B9EFE7069824
:1059200020B101280AD002287FD161E00120207136
:105930004A46D749D7A0FFF7F5FB77E0079805F06F
:1059400080FF0646089805F07CFF0746D64905F01B
:1059500027FE0546314605F055FE0590CB48006808
:105960000068103050F82910059805F019FE60669F
:10597000606E05F0A5FFCDE900014A46C449CBA001
:10598000079BFFF7CFFBFDF747F9834605F05EFF66
:1059900007460022CD4B05F073FE054605F077FF64
:1059A0008246206BAAEB000A4FF47A70BAFBF0F043
:1059B0003C21B0FBF1FA606E05F082FF0546002243
:1059C000C34B05F0CFFE074605F08DFF8346C14966
:1059D000606E8DE80304C048E16800685B464A4693
:1059E000456804F11000A847E068401CE0601DE035
:1059F000A06808990844A060089805F022FF0646B0
:105A0000A24800680068103050F82910304605F0B0
:105A1000C7FD054605F027FFA0664A469C49AFA092
:105A2000089BFFF77FFB01E0FFE700BF00BF00BF5F
:105A300065E72DE9F04F87B08146944800684068DB
:105A4000001D09EBC90101EB410100EB8104FDF7E9
:105A5000E3F8019005F0FAFE00229C4BCDE902012B
:105A600005F00EFECDE9040105F011FF824600208D
:105A70000690834600BF00BF6078E12874D00BDC3D
:105A8000022839D003DC80B101286ED11CE0032844
:105A90005BD0E028F9D1B6E0E22867D0E32875D0E2
:105AA000E42874D0E528F0D1B2E04846FFF7FEFEC6
:105AB000904800680021C268484690476078401CC2
:105AC00060700020A0703AE14846FFF705FF6F487C
:105AD00000680068807928B96078401C60700020F8
:105AE000A0702CE104F0E4FF012804D16078401C90
:105AF00060700020A07022E14846FFF7EDFE20789C
:105B000000B91CE14846FFF7BBFE7A480068012156
:105B1000C26848469047FDF77FF8019005F096FE71
:105B200000226A4BCDE9020105F0AAFDCDE904018E
:105B300005F0ADFE20636078401C60700020A0700E
:105B400020716071A071E071F9E04846FFF7C4FE72
:105B5000206BAAEB000042F21071884207D920792D
:105B600038B1E3206070EAE04EE0E7E04DE000206D
:105B70002071206BAAEB00005F49884208D9A06E13
:105B8000B0F5617F04D2E1206070D8E03EE03EE0F5
:105B9000206BAAEB000042F21071884207D95749E6
:105BA000606E05F0BDFE02D2E2206070C7E054488E
:105BB0000068816848468847012802D1E420607067
:105BC000BDE0E079012802D1E5206070B7E04D49E1
:105BD0000968C868804705904B4800684168059887
:105BE00088470746884648480068416804F14C00E9
:105BF000884705460E46E81B76EB080102D2E020F6
:105C000060709CE09BE000BF00BF00BF00BF00BF12
:105C10006078A0F1E00249463CA0FFF783FA00203B
:105C20002070A06805F00DFE049018480068006818
:105C3000103050F82910049805F0B2FC1A4905906C
:105C400005F0E0FC0690FCF7E7FF019005F0FEFD93
:105C500000221E4BCDE9020105F012FDCDE9040141
:105C600005F015FE8346206BABEB000B4FF47A700A
:105C7000BBFBF0F03C21B0FBF1FB6078A0F1E0034E
:105C800015484FE0A0010020740100209000002082
:105C900033CD0100257328256429203A20736F63D2
:105CA0006B5F6F75740D0A0000007A442573282518
:105CB0006429203A206379635F70756C3A2564200B
:105CC00020207077723A25660D0A00000000F03F30
:105CD00000806B4000005C43A00B0020257328254A
:105CE0006429203A206D696E5F70756C3A25640DE9
:105CF0000A0000003C010020C0D40100000048441C
:105D0000B8000020D8010020A80A00202D2D2D2D3C
:105D10002D3E3A282564296576656E743A25642CF3
:105D20000D0A000000685A46D0F808C004F11000BF
:105D30000699E04700206070A07000E000BF00BF3F
:105D400007B0BDE8F08F10B5002404E02046FFF74F
:105D500070FE601CC4B2022CF8DB10BD2DE9FC47BC
:105D600081468A46F549F6A0FFF7DCF9F648006857
:105D700000680168F5A0FFF7D5F9F34800680068EE
:105D80000179F6A0FFF7CEF9EF4800680068417985
:105D9000F6A0FFF7C7F9EC48006800688179F7A022
:105DA000FFF7C0F9E84800680068017BF7A0FFF73B
:105DB000B9F9E54800680068417BFAA0FFF7B2F93D
:105DC000E14800680068C179FAA0FFF7ABF9DE4846
:105DD000006800688168FCA0FFF7A4F900241CE0BB
:105DE000D94909680968183151F8240005F068FD9F
:105DF00005460E46D44909680968103151F8240057
:105E000005F05EFD07463A460B462146F3A0CDE974
:105E10000056FFF787F9601CC4B2022CE0DBCA48C9
:105E20000068006800F12001F2A0FFF77BF9C64886
:105E30000068006800F14001F2A0FFF773F900204C
:105E4000BDE8FC872DE9F04705460C46F149BCA0AA
:105E5000FFF768F90026B146B246EFA1606805F089
:105E600045FB00B91AE0EDA1606805F03FFB00B901
:105E700043E0ECA1606805F039FB00B960E0EAA1FD
:105E8000606805F033FB00B981E0E9A1606805F0C6
:105E90002DFB00B9B8E00020BDE8F087052D05D046
:105EA000E5A0FFF73FF96FF00100F5E7A06805F006
:105EB0005DFB0646022E02DBE3A0FFF733F9E06844
:105EC00006F0B2FE074605F00EFD8146206906F099
:105ED000ABFE074605F007FD82469B480068006858
:105EE000103040F82690984800680068183040F854
:105EF00026A0FFF764FA0020CEE7032D05D0CEA040
:105F0000FFF710F96FF00100C6E7A06805F02EFB5F
:105F10000646022E02DBCCA0FFF704F9CE498A48E0
:105F200000680068103040F826100021864800689C
:105F30000068183040F82610FFF741FA0020ABE760
:105F4000032D05D0BCA0FFF7EDF86FF00100A3E72B
:105F5000C2A1A06805F0CAFA28B902207A490968E6
:105F6000096888710FE0BFA1A06805F0BFFA28B9E1
:105F70000120754909680968887104E000207249A8
:105F8000096809688871FFF71AFA002084E7042D70
:105F900005D0A9A0FFF7C6F86FF001007CE76A49B9
:105FA0000968096801F12000202105F07BFA6649A3
:105FB0000968096801F14000202105F073FA62497F
:105FC000A3680968096801F12000A8A2202106F051
:105FD0007FF95D49E3680968096801F14000A3A2FF
:105FE000202106F075F958480068006800F1400269
:105FF00055480068006800F120019DA0FFF792F865
:10600000FFF7DDF9002047E7022D05D08AA0FFF752
:1060100089F86FF001003FE700204B4909680968E3
:106020000860FFF7CCF998A0FFF77CF8002108463C
:1060300000F0CDF900202FE770B504460D469A49CF
:106040008AA0FFF76FF801203F4909680968487185
:10605000FFF7B5F995A0FFF765F898A0FFF762F88C
:106060000021084600F0B3F9002070BD2DE9F0438F
:106070008DB006460D46984931A0FFF753F84FF012
:1060800000090027B846304800680068807918B1D8
:10609000781E0DB0BDE8F083042E05D066A0FFF792
:1060A00041F86FF00100F4E78C490968C86880473F
:1060B0000446206828B98AA0FFF734F86FF0010081
:1060C000E7E7D4E90223D4E90410CDE90123CDE9BF
:1060D00003106068009086A2202105A8236806F0BE
:1060E000F7F8686805F042FA0746022F02D36FF00E
:1060F0000200CEE785A1A86805F0F8F930B94FF0A5
:106100000009E86805F032FA804608E081A1A86835
:1061100005F0ECF918B94FF001094FF000087F487D
:10612000006805AB42463946D0F804C04846E0470F
:1061300005A8009043463946F2E0000045CD010035
:1061400025730D0A0000000090000020626F6F743C
:10615000636F64653A253038780D0A00626F6F749A
:106160005F6170703A253038780D0A006F74615F96
:106170007265713A253038780D0A00006E65745FDB
:106180006D6F64653A253038780D0A00665F61747A
:1061900074656D705F7570646174613A25640D0A91
:1061A000000000006170705F6D6F64653A25640DDA
:1061B0000A000000646F776E6C6F61645F757073C6
:1061C00065743A25640D0A00646F776E6C6F6164C4
:1061D0005F616464723A25640D0A00005B25645DAA
:1061E0002079203D2025662A78202B202825662925
:1061F0000D0A0000757365725F6E616D653A2573F7
:106200000D0A0000757365725F7077643A25730D2F
:106210000A00000052CD01006B6200007273745FCF
:106220006B6200006E6574007A645F75736572005E
:1062300064656661756C740075736167652065726D
:1062400072210D0A000000006572723A736F636B71
:10625000206E756D200D0A000000204161697237C3
:106260003830000061697237323400002573000055
:10627000636F6E666967207A645F757365723A252D
:10628000732025730D0A0000636F6E6669672064D2
:10629000656661756C7420736574207375636365DE
:1062A00073730D0A000000005DCD01006F74615F23
:1062B000726571203D20310D0A00000073797374FE
:1062C000656D207265626F6F7420616674657220FF
:1062D0003173200D0A00000065CD0100D8010020B7
:1062E00072746320696E6974206661696C0D0A00BE
:1062F00025303464253032642530326425303264F0
:106300002530326425303264000000006F70656E05
:1063100000000000636C6F7365000000B80B002084
:1063200002A0AA68FEF7FEFE0020B2E66374726C5B
:106330002D3E736F636B5B25645D2025732D3E25B9
:1063400064206D696E20206464683A25730D0A002C
:1063500070B505460E46834983A0FEF7E3FE002490
:1063600006E056F82420214681A0FEF7DBFE641CDF
:10637000AC42F6DB002070BD70B504460D46804986
:1063800079A0FEF7CFFE002070BD082070477D4841
:1063900070472DE9F04106460F467B4972A0FEF793
:1063A000C1FEFFF7F4FF0546002406E055F834204F
:1063B000214676A0FEF7B6FE641CFFF7E6FFA0427A
:1063C000F4DC75A0FEF7AEFE0020BDE8F08170B5EC
:1063D00005460E460024714963A0FEF7A3FE7048EF
:1063E00000680168642088476D49096888688047AB
:1063F000641E05E000BF4FF47A70FCF7ABF900BFF4
:10640000201EA4F10104F5D170BD2DE9F0418AB040
:106410000025002600276348006810B101287DD1BF
:106420000FE061A0FEF77EFE8021604805F03AF89B
:1064300000205F4908605B480068401C59490860BB
:106440008CE05A485A49096845185A4800680122A0
:106450002946036900209847064606B97EE054485D
:10646000006830445249086008460068802803DB11
:1064700000204C49086071E028780A2828D004DC04
:10648000082809D0092861D104E00D2828D07F28E8
:106490005CD100E05FE000BF45480068401E444911
:1064A000086000214148424A12688154404800680F
:1064B00048B13F480068401E3D49086000203B4904
:1064C0003B4A1268885439493BA0FEF72BFE42E054
:1064D00037480068012802D10020354908603AE0B9
:1064E0003748006837A36A46304904680A20A04745
:1064F00007463FB3002420E0224951F8340004F05D
:10650000EEFF80461F4850F834104246274804F0FA
:10651000FBFF88B920A0FEF705FE00E01DE019484A
:1065200000EBC400694642683846904700201D4988
:1065300008600AB0BDE8F081641C082CDCD323A0FD
:10654000FEF7F0FD00201749086004E0297822A03A
:10655000FEF7E8FD00BF00BF00E000BF00BF00BFC6
:10656000E7E700006ECD010025730D0A0000000072
:10657000617267765B25645D3A25730D0A00000041
:1065800077CD0100C800002081CD01000925643AC3
:1065900025730D0A000000000D0A00008ACD0100DD
:1065A000EC0100200C0100200D0A3E00CC4D012022
:1065B00008010020C00100200D0A3E2573000000E4
:1065C000C00A002020090A0D000000000D0A09750C
:1065D0006E6B6E6F77000000256300005D490870E8
:1065E00070475C49487070475A4A921C1154704772
:1065F00010B559480068016858488847002004E0F1
:10660000FF21574A1154411CC8B20228F8D35248FE
:106610000068022252494368504898474E48006833
:1066200081684E48884710BD30B50A460346C517F5
:1066300000EB5575C5F3C701C51700EB5575ED1097
:10664000A0EBC505ECB23AB9454B5B5C0125A54012
:10665000AB43434D6B5409E0012A07D1404B5D5CCD
:106660000123A3401D43EBB23D4D6B5430BD10B52B
:106670003948006802223A49436838489847364802
:10668000006881683548884710BD70B504460E46DD
:10669000002508E0C4EBC401324A1144485D0121E1
:1066A000FFF7C2FF6D1C072DF4DB1EB900202E4939
:1066B000085519E02C48005D401C2B490855084638
:1066C000005D072801DD00200855002508E0C4EB27
:1066D000C401244A1144485D0021FFF7A5FF6D1C49
:1066E0002148005DA842F2DC70BD2DE9F047054667
:1066F000FCF792FA044605F0A9F8804600221B4BED
:1067000004F0BEFF064605F0C2F88246184800684D
:10671000AAEB0000A84201D2BDE8F0871448C0F8F7
:1067200000A00C4801780020FFF77EFF094841785F
:106730000F20FFF779FF002406E00648801C015D6A
:106740002046FFF7A2FF641C022CF6DBFFF78FFF49
:1067500000BFE1E714010020D00A00201001002052
:10676000180100201A010020400100200000F03F25
:10677000440100202DE9F04781464C46207802284C
:1067800001DBBDE8F08720787A4951F82000401CF1
:106790002178784A42F82100FCF741FA824605F058
:1067A00055F807460022744B04F06AFF054605F0D1
:1067B0006EF82178714A42F8210000BFE1E770B518
:1067C00000242AE000220C210520FBF7B9F96C49CE
:1067D00041F824006B48005D6B4901EB44014870AF
:1067E000694901F814406749085D684909680A6801
:1067F00001219047644901EB44036249085D634904
:106800000968634ACD680121A8475E49085D5F4970
:1068100009684A6901219047641C022CD2DB70BDD3
:106820002DE9FE4304460E4617469846022C01DB2E
:10683000BDE8FE8301970096CDF80880504951F8D5
:106840002400002301226946FBF722FA0546012DA8
:1068500004D022464F4950A0FEF764FC00BFE7E792
:106860002DE9F04104460E463746022C03DB4FF07B
:10687000FF30BDE8F081424951F824000023012295
:106880003946FBF751FB0546012D01D10020F0E709
:106890004FF0FF30EDE72DE9F0470024FCF7BCF99D
:1068A000824604F0D3FF07460022334B04F0E8FE93
:1068B000054604F0ECFF814600BF12E02F4850F877
:1068C0002400A9EB000040F6B831884208D92B48D3
:1068D00040F82490E0B200230A461946FFF7A0FFD3
:1068E000641C022CEADB30480068A9EB000041F28E
:1068F0008831884223D32C48C0F80090002417E048
:106900001C4951F82430E0B241F288320121FFF7EE
:1069100087FF264850F82400164951F824100844EF
:10692000224941F824000020124941F82400641C47
:10693000022CE5DB1E480068401C1D4908601C480D
:1069400000680C2814D300240DE0184951F82430B5
:10695000E0B24EF660220221FFF762FF00201349E9
:1069600041F82400641C022CEFDB00201049086071
:10697000BDE8F0874C0100200000F03F54010020EA
:1069800060010020480100205C010020A0010020DF
:106990007567010095CD0100776172696E673A25D0
:1069A000735B25645D0D0A00780100207C010020E6
:1069B0008401002070B504460D461E480068294633
:1069C00002682046904770BD70B504460D461948D0
:1069D0000068294642682046904770BD10B50446BD
:1069E0001448006881682046884710BD2DE9F041B1
:1069F00004460D4616461F460E4800683B46324682
:106A00002946D0F80CC02046E047BDE8F08110B51B
:106A100004460848006801692046884710BD70B5E3
:106A200004460D46034800682946426920469047BF
:106A300070BD0000280A002013B50446354951F8FE
:106A40002400012201A900F085FD1CBD2DE9F041C3
:106A500004460E4600270025042C01DB012718E020
:106A60004FF4806000F050FD05460DB9022710E09C
:106A7000284840F8245028480068284902692046E0
:106A80009047254800683146026820469047BDE897
:106A9000F0812346224A394622A005F009FC00BFB6
:106AA000FEE710B504461C48006841682046884748
:106AB00010BD10B504461848006881682046884714
:106AC00010BD70B504460D46134800682946C268DB
:106AD0002046904770BD70B504460D4616460D49D8
:106AE00051F824003246294600F07AFD70BD10B5F9
:106AF0000446084951F8240000F0B6FD10BD70B5F9
:106B000004460D46044800682946426920469047DD
:106B100070BD00004C4E01206C0A0020396A010053
:106B200099CD01006572725B25645D3A2573282555
:106B300064290D0A0000000010B504460F480068E3
:106B400001682046884710BD10B50C49096848689F
:106B5000804710BD10B5094909688868804710BD95
:106B600010B506490968C868804710BD10B50446CD
:106B70000248006801692046884710BD840A002049
:106B800010B504460B48006801682046884710BDD0
:106B900010B5084909684868804710BD10B5054917
:106BA00009688868804710BD10B502490968C8683F
:106BB000804710BD980A00200146412903D2FE4AB1
:106BC00002EB411000E0002070472DE9F843064633
:106BD0000C460027B846B9463046FFF7EDFF05469C
:106BE0000DB9BDE8F883052C13D2DFE804F00305E6
:106BF000070B0F0001270CE000270AE000274FF0E9
:106C0000010806E000274FF0010902E00127B8461D
:106C100000BF00BFCDF8009043463A46D5E90201D7
:106C2000FCF740FD00BFDCE770B506460D46304678
:106C3000FFF7C2FF044604B970BD25B1D4E90201D3
:106C4000FCF793FE03E0D4E90201FCF797FE00BFD6
:106C5000F2E770B505462846FFF7AEFF04460CB9CB
:106C6000012070BDD4E90201FCF7A1FEF9E72DE98E
:106C7000F04180460D4616461F464046FFF79CFFF2
:106C800004461CB94FF0FF30BDE8F081A661E76112
:106C900065610020F8E770B505462846FFF78CFFD0
:106CA000044614B94FF0FF3070BD0020A061E061D0
:106CB000606100BFF8E7F8B506460D463046FFF7BD
:106CC0007BFF044614B94FF0FF30F8BD012D63D1AE
:106CD000606905284AD2DFE800F003111F2D3B0050
:106CE0000120009000231A46D4E90201FCF7DAFCE7
:106CF0000122D4E90201FCF77BFC3AE0002000907D
:106D000001230022D4E90201FCF7CCFC0022D4E9E3
:106D10000201FCF76DFC2CE0012000900123002211
:106D2000D4E90201FCF7BEFC0222D4E90201FCF71F
:106D30005FFC1EE00120009000231A46D4E9020106
:106D4000FCF7B0FC1122D4E90201FCF751FC10E081
:106D50000020009001230022D4E90201FCF7A2FCEC
:106D60001022D4E90201FCF743FC02E06FF00100BD
:106D7000ABE700BF94F9100000F01F020121914021
:106D80004209920002F1E022C2F8001100BFD4E9EA
:106D90000201FCF771FC13E07DB994F9100000F0DA
:106DA0001F0201219140854A430942F8231000BF88
:106DB000D4E90201FCF716FC02E06FF0020084E760
:106DC000002082E770B500257D48006890B9012059
:106DD0007B490860784C00BF09E0A0687949884287
:106DE00004D12068784941F825006D1C20342068C2
:106DF0004128F2D3002514E0734951F82500FFF72C
:106E0000DBFE0446E168A068FCF73CFC40B1E168A9
:106E1000A068FCF743FCA06910B1E069A16988474C
:106E20006D1C182DE8DB70BD70B500256748006843
:106E300090B90120654908605F4C00BF09E0A06877
:106E40006349884204D12068624941F825006D1CDD
:106E5000203420684128F2D3002514E05D4951F820
:106E60002500FFF7A9FE0446E168A068FCF70AFCCC
:106E700040B1E168A068FCF711FCA06910B1E069BD
:106E8000A16988476D1C182DE8DB70BD70B5002521
:106E90005148006890B901204F490860464C00BF36
:106EA00009E0A0684D49884204D120684C4941F866
:106EB00025006D1C203420684128F2D3002514E001
:106EC000474951F82500FFF777FE0446E168A068BE
:106ED000FCF7D8FB40B1E168A068FCF7DFFBA069D4
:106EE00010B1E069A16988476D1C182DE8DB70BD01
:106EF00070B500253B48006890B901203949086009
:106F00002D4C00BF09E0A0683749884204D12068B1
:106F1000364941F825006D1C203420684128F2D301
:106F2000002514E0314951F82500FFF745FE0446DD
:106F3000E168A068FCF7A6FB40B1E168A068FCF737
:106F4000ADFBA06910B1E069A16988476D1C182DDF
:106F5000E8DB70BD70B500252548006890B90120B8
:106F600023490860144C00BF09E0A0682149884209
:106F700004D12068204941F825006D1C2034206888
:106F80004128F2D3002514E01B4951F82500FFF7F2
:106F900013FE0446E168A068FCF774FB40B1E168A9
:106FA000A068FCF77BFBA06910B1E069A169884784
:106FB0006D1C182DE8DB70BDF001002080E100E0C1
:106FC0002C0A0020001001405C4E0120300A0020F5
:106FD00000200140BC4E0120340A00200030014056
:106FE0001C4F0120380A0020005001407C4F012036
:106FF0003C0A002000600140DC4F012070B50025F4
:107000001748006890B9012015490860154C00BF69
:1070100009E0A0681449884204D12068134941F866
:1070200025006D1C203420684128F2D3002514E08F
:107030000E4951F82500FFF7BFFD0446E168A0683E
:10704000FCF720FB40B1E168A068FCF727FBA069D2
:1070500010B1E069A16988476D1C182DE8DB70BD8F
:10706000400A0020F0010020008001403C50012037
:107070000246002000230B6032B1012A06D0022A0A
:1070800006D0032A08D105E0B14808E0B14806E07F
:10709000B14804E0B14802E001230B6000BF00BF2B
:1070A000704770B586B005460C460020019001A9D6
:1070B0002846FFF7DDFF06460198012801D101901F
:1070C0005DE035B1012D2AD0022D4ED0032D4ED1D9
:1070D0004CE00123642202210020FCF771FF002311
:1070E000642203211846FCF76BFF029400208DF800
:1070F0000C008DF80D008DF80E0007208DF80F00A4
:1071000001208DF8100000208DF811008DF812007C
:10711000FF208DF8130001208DF8140028E00123D2
:10712000652204210020FCF74BFF00236522052186
:107130001846FCF745FF029400208DF80C008DF8EE
:107140000D008DF80E0007208DF80F0001208DF83E
:10715000100000208DF811008DF81200FF208DF82E
:10716000130001208DF8140002E001E000E000BFF0
:1071700000BF02A93046FCF798FC06B070BD784A03
:1071800078A0019905F094F800BFFEE738B50446F1
:107190000020009069462046FFF76AFF05460098E8
:1071A000012800D138BD2846FCF762FD00BFF9E791
:1071B00038B504460020009069462046FFF758FF86
:1071C00005460098012800D138BD2846FCF768FC28
:1071D00000BFF9E7F8B504460D4600200090694667
:1071E0002046FFF745FF06460098012800D1F8BD6C
:1071F00000BF3046FCF75CFD0028FAD12946304636
:10720000FCF73BFD00BFF2E77047042800DB704746
:10721000584A42F8201000BFF9E730B50A46042862
:1072200000DB30BD72B100F1270359B201F01F0439
:107230000123A3404C09A40004F1E024C4F8003168
:1072400000BF0CE000F1270359B201F01F04012335
:10725000A340494C4D0944F8253000BF00BF00BF92
:10726000DFE738B53A4D002444F210012846FCF718
:10727000BEFD88B10BE069462846FCF700FD30B939
:107280000098C1B23B4850F8242020469047284639
:10729000FCF708FD0028EED038BDF8B52D4D0124CF
:1072A00044F210012846FCF7A2FD0646012E11D13A
:1072B0000BE069462846FCF7E2FC30B90098C1B201
:1072C0002C4850F82420204690472846FCF7EAFC3A
:1072D0000028EED0F8BDF8B51F4D022444F210018D
