:020000040001F9
:1018000010620120195501001D550100F919010050
:10181000655601006F560100795601000000000076
:10182000000000000000000000000000611901003D
:101830002955010000000000A51901001938010018
:101840002F55010031550100335501003555010078
:1018500037550100395501003B5501003D55010048
:101860003F55010041550100435501004555010018
:1018700047550100495501004B5501004D550100E8
:101880004F550100515501005355010055550100B8
:1018900057550100595501005B5501005D55010088
:1018A0005F55010061550100635501006555010058
:1018B00067550100695501006B5501006D55010028
:1018C0006F550100715501007355010075550100F8
:1018D00077550100795501007B5501008B7C010093
:1018E000C37C0100FF7C01003B7D01000000000083
:1018F0008555010087550100895501008B55010070
:10190000137E01008F55010091550100ED77010014
:1019100051780100B5780100197901007D79010045
:10192000257A01009F550100A1550100A355010032
:10193000057F0100A7550100A9550100AB55010025
:10194000AD550100AF550100DFF810D00AF068FF77
:1019500000480047CF560100AFF30080106201201D
:10196000224B19680868B0E8F00F80F30988BFF3CC
:101970006F8F4FF0000080F311884EF00D0E70470E
:101980000000000006480068006880F3088862B61E
:1019900061B6BFF34F8FBFF36F8F00DF00BF00BF93
:1019A00008ED00E0EFF30980BFF36F8F0F4B1A686B
:1019B00020E9F00F106008B54FF0800080F3118827
:1019C000BFF34F8FBFF36F8F00F0B1FF4FF00000F8
:1019D00080F31188BDE8084019680868B0E8F00F86
:1019E00080F30988BFF36F8F704700BF00000020AD
:1019F000EFF30580704700001EF0040F0CBFEFF3FB
:101A00000880EFF3098003F0D5BD00F108014160C3
:101A10004FF0FF31816000F10801C16001610021D8
:101A20000160704700210161704742684A60936815
:101A30008B60936859609160086103685B1C036068
:101A4000704710B502460B685C1C0CB9106907E0C2
:101A500002F1080000E04068446824689C42FAD91A
:101A600044684C604C68A160886041600A611468F9
:101A7000641C146010BD01460A69D1E90130986008
:101A8000D1E9010358605068884201D188685060EC
:101A9000002008611068401E106010687047000048
:101AA00070B505460E462C4601F099FED4E90F129A
:101AB000206801FB020060600020A0632068A06035
:101AC000E06B401E226C216800FB0210E060FF20EA
:101AD00084F8440084F845009EB9206908B90120C3
:101AE00000E00020A8B904F1100001F017FA80B15D
:101AF0004FF08050F7490860BFF34F8FBFF36F8FEF
:101B000007E004F11000FFF780FF04F12400FFF765
:101B10007CFF01F073FE012070BD2DE9F041064607
:101B20000D4617469846069C0DB9246000E02760D4
:101B3000E663256401212046FFF7B2FF84F84C805C
:101B4000BDE8F0812DE9F84307460D4690460DB9F2
:101B5000002601E007FB05F606F1500001F0DDFE6E
:101B6000044644B104F1500943464A4629463846E2
:101B70000094FFF7D2FF2046BDE8F88370B5044615
:101B800001F02DFE94F9455010E0606A08B901207B
:101B900000E0002038B904F1240001F0BFF918B1C9
:101BA00001F050FA00E003E0681E45B2002DECDCC5
:101BB00000BFFF2084F8450001F020FE01F00FFE79
:101BC00094F9445010E0206908B9012000E0002099
:101BD00048B904F1100001F0A1F908B101F032FA9E
:101BE000681E45B200E001E0002DECDC00BFFF20E4
:101BF00084F8440001F002FE70BD70B5054601F0A6
:101C0000EEFDA86BE96B884201D1012400E00024BD
:101C100001F0F4FD204670BD2DE9F04104460F4669
:101C200015464FF00008A66B206C40B9206860BBD9
:101C3000606801F07CFA80460020606025E07DB994
:101C40003946226CA0680AF05AF9216CA068084451
:101C5000A060D4E90110884217D32068A06014E086
:101C60003946226CE0680AF04AF9216CE068401AB3
:101C7000E0602168E068884203D2216C6068401A05
:101C8000E060022D01D106B1761E701CA0634046B3
:101C9000BDE8F0812DE9FF4383B0074688461D4625
:101CA0004FF000093C4600BF01F099FDA06BE16BCD
:101CB000884201D3022D28D12A4641462046FFF70B
:101CC000ABFF0646606A08B9012000E0002068B951
:101CD00004F1240001F022F988B14FF080507D49D1
:101CE0000860BFF34F8FBFF36F8F08E03EB14FF036
:101CF000805078490860BFF34F8FBFF36F8F01F0BA
:101D00007DFD012007B0BDE8F083059818B901F00A
:101D100075FD0020F6E7B9F1000F04D101A801F02C
:101D200060F94FF0010901F069FD00F0E8FC01F0F5
:101D300056FD94F94400401C10B9002084F844007A
:101D400094F94500401C10B9002084F8450001F0CA
:101D500055FD05A901A801F04BF9F0B92046FFF7A0
:101D60004CFFA0B104F11000059901F0B5F8204630
:101D7000FFF704FF00F0F8FB002895D14FF08050EA
:101D800054490860BFF34F8FBFF36F8F8CE7204635
:101D9000FFF7F4FE00F0E8FB86E72046FFF7EEFED3
:101DA00000F0E2FB0020ADE710B504464CB1002086
:101DB00060602060E06000231A4619462046FFF765
:101DC00069FF10BD2DE9F041044601260027224697
:101DD00000210120FFF7B6FE05462846FFF7E4FF85
:101DE0002846BDE8F0812DE9F05F05468A46164693
:101DF0001F462C4600BF8021EFF3118081F311882C
:101E0000BFF34F8FBFF36F8F00BF8146A06BE16BB5
:101E1000884201D3022F20D194F945B03A46514669
:101E20002046FFF7F9FE0BF1010070B9606A08B9AE
:101E3000012000E0002068B904F1240001F06EF8F0
:101E400040B13EB10120306004E00BF1010040B22E
:101E500084F845004FF0010801E04FF0000800BF92
:101E600089F3118800BF4046BDE8F09F2DE9F04797
:101E700005460E462C4600BF8021EFF3118081F30A
:101E80001188BFF34F8FBFF36F8F00BF8046D4F828
:101E90003890E06B48451FD994F945A009F101003D
:101EA000A0630AF1010070B9606A08B9012000E07E
:101EB000002068B904F1240001F030F840B13EB1CF
:101EC0000120306004E00AF1010040B284F84500CE
:101ED000012702E004ED00E0002700BF88F311882D
:101EE00000BF3846BDE8F08770B5054601F077FCC5
:101EF000A86B08B9012400E0002401F07FFC204613
:101F000070BD70B504460D46206C70B1216CE06860
:101F10000844E0606168E068884201D32068E060BE
:101F20002846226CE16809F0EAFF70BD2DE9FF4701
:101F300082B0054689461E464FF0000A2C4600BF77
:101F400001F04DFCD4F83880B8F1000F3BD0E768C1
:101F500049462046FFF7D5FFDEB9A8F10100A0638E
:101F6000206810B901F023FA6060206908B90120E7
:101F700000E0002008BB04F1100000F0CFFFE0B14A
:101F80004FF080508E490860BFF34F8FBFF36F8FC3
:101F900013E0E760606A08B9012000E0002060B942
:101FA00004F1240000F0BAFF38B14FF080508449AA
:101FB0000860BFF34F8FBFF36F8F01F01FFC01204C
:101FC00006B0BDE8F087049818B901F017FC0020AE
:101FD000F6E7BAF1000F04D1684601F002F84FF0BD
:101FE000010A01F00BFC00F08AFB01F0F8FB94F908
:101FF0004400401C10B9002084F8440094F94500C6
:10200000401C10B9002084F8450001F0F7FB04A93A
:10201000684600F0EDFF40BB2046FFF765FFF0B1DA
:10202000206830B901F0DBFB606801F02EF801F0A8
:10203000E5FB04F12400049900F04EFF2046FFF771
:102040009DFD00F091FA00287FF47AAF4FF08050A8
:102050005B490860BFF34F8FBFF36F8F70E7204677
:10206000FFF78CFD00F080FA6AE72046FFF786FD57
:1020700000F07AFA2046FFF737FF0028EED0002064
:102080009EE72DE9F05F05468A4616462C4600BFBE
:102090008021EFF3118081F31188BFF34F8FBFF3DD
:1020A0006F8F00BF8046D4F83890B9F1000F21D06F
:1020B00094F944B051462046FFF723FFA9F10100EF
:1020C000A0630BF1010070B9206908B9012000E09C
:1020D000002068B904F1100000F020FF40B13EB1CB
:1020E0000120306004E00BF1010040B284F84400AC
:1020F000012700E0002700BF88F3118800BF3846A1
:10210000BDE8F09F2DE9F047054689462C4600BF03
:102110008021EFF3118081F31188BFF34F8FBFF35C
:102120006F8F00BF0746A06B48B1D4F80C804946BA
:102130002046FFF7E6FEC4F80C80012600E00026EA
:1021400000BF87F3118800BF3046BDE8F08770B547
:10215000044601F044FBA56B01F050FB284670BD1E
:1021600070B50446254601F03AFBD5E90E10461A33
:1021700001F044FB304670BD0146886B704770B576
:1021800004462546284601F026FC70BD0146886CB1
:10219000704781647047014691F84C0070470146D2
:1021A0008A6B0AB9012000E00020704701468A6B63
:1021B000CB6B9A4201D1012000E000207047000063
:1021C00004ED00E010B5002407E004EB8401FE4AB2
:1021D00002EB8100FFF719FC641C052CF5D3FB48CA
:1021E000FFF713FCFA48FFF710FCFA48FFF70DFC65
:1021F000F948FFF70AFCF948FFF707FCF348F849EC
:102200000860F348F749086010BD10B5044601F0B6
:10221000E6FAF5480068401CF3490860F348006896
:1022200040B9F24804600846006801280DD1FFF764
:10223000C9FF0AE0EE48006838B9EC480068C06A97
:10224000E16A884201D8E9480460EA480068401C15
:10225000E849086008460068606494F82C10012082
:102260008840E54909680843E3490860E16A01EBF1
:102270008101D54A02EB8100211DFFF7D6FB01F059
:10228000BDFADB48006868B1D8480068C06AE16AF6
:10229000884207D24FF08050D8490860BFF34F8F73
:1022A000BFF36F8F10BD2DE9F05F81460F4690465A
:1022B0009A460A9E0C9C4FEA8801A522206B09F0E1
:1022C00030FEA8F10100216B01EB800B2BF0070B16
:1022D000002507E0795D04F134004155785D00B9CF
:1022E00002E06D1C102DF5D300BF002143200155E5
:1022F000052E00D30426E662E66400202065201D3A
:10230000FFF790FB04F11800FFF78CFB2461C6F186
:102310000500A061646200206065A06584F85C002F
:1023200052464946584601F02EFA20600B9808B1F3
:102330000B980460BDE8F09F2DE9FF4F85B0804603
:1023400089461746DDE912ABB80001F0E6FA064609
:1023500056B1602001F0E1FA04460CB1266304E0B6
:10236000304601F038FB00E000247CB10020CDE9CC
:1023700000ABCDE902403A4649464046089BFFF78C
:1023800092FF2046FFF741FF012501E04FF0FF35A6
:10239000284609B0BDE8F08F91490968096809B974
:1023A000012100E0002121B14FF0FF31944A11607A
:1023B00006E08B490968C968C868914A416811609C
:1023C000704710B50446206B01F005FB204601F074
:1023D00002FB10BD70B5054601F001FA15B983483E
:1023E000006800E028460446201DFFF744FB78B94A
:1023F000E06A00EB8000744951F8200040B994F87D
:102400002C10012088407C49096881437A4801608A
:10241000A06A18B104F11800FFF72DFB7548006899
:10242000401C7449086071480068844209D1211D2C
:102430006948FFF7FAFA73480068401C7149086060
:1024400009E069480068401E674908602046FFF7B8
:10245000B8FFFFF7A1FF01F0D1F96548006858B156
:1024600062480068844207D14FF080506349086099
:10247000BFF34F8FBFF36F8F70BD2DE9F041002781
:1024800061480068002863D160480068451C5F48C7
:1024900005608DB95248D0F8008052480068504914
:1024A00008605048C0F8008059480068401C5849EE
:1024B0000860FFF771FF00BF5148006885423BD3B9
:1024C00000BF47480068006808B9012000E000200C
:1024D00020B14FF0FF304A4908602CE040480068C6
:1024E000C068C4686668B54202D24548066022E00A
:1024F000201DFFF7C0FAA06A18B104F11800FFF719
:10250000BAFA94F82C10012088403B490968084326
:1025100039490860E16A01EB81012B4A02EB810035
:10252000211DFFF782FA3149E06A0968C96A8842C9
:10253000C7D30127C5E700BF2C480068C06A00EB7D
:102540008000214951F82000012800D9012704E02A
:1025500030480068401C2F4908602F48006800B1CF
:1025600001273846BDE8F08170B50024002601F04F
:1025700036F925480068401E23490860084600686F
:1025800000287AD118480068002876D04FE011481A
:10259000C068C46804F11800FFF76DFA201DFFF74A
:1025A0006AFA94F82C1001208840134909680843FE
:1025B00011490860E16A01EB8101034A02EB8100E5
:1025C000211DFFF732FA29E0EC0B0020500C00200F
:1025D000640C0020780C00208C0C0020A00C002043
:1025E000040000200800002010000020000000204F
:1025F0001C0000202C0000201800002004ED00E04A
:10260000300000200C0000203800002014000020C2
:10261000280000202000002024000020FE49E06A5D
:102620000968C96A884202D30120FC490860FC4855
:10263000006808B9012000E000200028A7D00CB1F4
:10264000FFF7AAFEF748056865B100BFFFF715FF61
:1026500010B10120F14908606D1E002DF6D1002057
:10266000F0490860ED48006838B101263007EE49AE
:102670000860BFF34F8FBFF36F8F01F0BFF8304694
:1026800070BD2DE9F04105460E46E8480768E2486E
:102690000068001DFFF7EFF950B9DF48006890F8B7
:1026A0002C1001208840E24909688143E04801601C
:1026B000681C38B936B1D8480168091DDD48FFF7F4
:1026C000B4F91AE07C19D44800684460BC4207D2CF
:1026D000D1480168091DD8480068FFF7B2F90CE03D
:1026E000CD480168091DD5480068FFF7AAF9D4480C
:1026F0000068844201D2D2480460BDE8F081D1482C
:102700000068401CCF49086070472DE9F047044637
:1027100088464FF00009FFF7F2FFC44806682068BA
:1027200000EB08052068B04207D92068A8420BD901
:10273000B54209D94FF0010906E02068A84201D846
:10274000B54201D94FF001092560B9F1000F03D05E
:10275000A81B0021FFF795FFFFF706FF07463FB9CB
:102760004FF08050B0490860BFF34F8FBFF36F8FB9
:10277000BDE8F08770B50446002544B1FFF7BFFF00
:1027800000212046FFF77DFFFFF7EEFE05463DB92D
:102790004FF08050A4490860BFF34F8FBFF36F8F95
:1027A00070BD2DE9F041064637469B4800688742D8
:1027B00001D100241EE001F012F87D6901F01EF83D
:1027C0009E480068854203D09B480068854201D13D
:1027D00002240FE09748854205D1B86A08B903245E
:1027E00008E0022406E09848854200D00DB9042490
:1027F00000E001242046BDE8F08170B5044600F0F9
:10280000EEFF14B98448006800E020460646F56AE9
:1028100000F0F4FF284670BD70B5024600BF802569
:10282000EFF3118485F31188BFF34F8FBFF36F8FE0
:1028300000BF214612B9784C246800E014462346B4
:10284000D86A00BF81F3118800BF70BD2DE9F04741
:1028500080460D464FF00009052D00D3042500F0F9
:10286000BEFFB8F1000F02D16B48006800E040469F
:102870000446E66CAE4256D0B5420BD966480068B5
:1028800084420DD064480068C06AA84208D84FF05E
:10289000010905E060480068844201D14FF0010958
:1028A000E76AE16AE06C884200D1E562E564A0690C
:1028B00000F0004010B9C5F10500A06107EB8701E9
:1028C000624A02EB81016069884201D1012000E087
:1028D0000020E0B1201DFFF7CEF830B90120B8404C
:1028E0005349096881435248016094F82C10012033
:1028F00088404F49096808434D490860E16A01EB87
:102900008101524A02EB8100211DFFF78EF8B9F1D7
:10291000000F07D04FF0805043490860BFF34F8F3E
:10292000BFF36F8F00BF00F069FFBDE8F08770B59F
:102930004448006818B101203849086052E000207E
:102940003649086042480068424908600846006805
:102950004149096888420BD92F49096801F154009F
:10296000496D3C4A12683C4B1B68D21A1144016005
:10297000384800683849086027480068046B4FF001
:10298000A5352068B0F1A53F0BD16068B0F1A53F37
:1029900007D1A068B0F1A53F03D1E068B0F1A53F31
:1029A00005D01D4801683431006802F06AFE2048F5
:1029B0000068B0FA80F0C0F11F0101EB8102234BE7
:1029C00003EB820042685268426000F108024368EB
:1029D000934202D14268526842604268D2680E4B0C
:1029E0001A6000BF70BD70B5054600F0F8FE15B95D
:1029F0000948006800E028460446201DFFF73BF820
:102A000060BBE06A00EB8000104951F8200028BB51
:102A100094F82C10012022E0000000202400002067
:102A2000780C00202000002004ED00E014000020BD
:102A300018000020A00C0020080000200400002046
:102A400030000020380000208C0C0020EC0B00200F
:102A5000AC0A0020400000203C00002005E0884037
:102A6000FE4909688143FD480160A06A18B104F17C
:102A70001800FFF700F8211DF948FEF7D6FF00F017
:102A8000BDFEF848006828B100F0A9FEFFF784FCFD
:102A900000F0B4FEF4480068844217D1F1480068A1
:102AA00040B14FF08050F1490860BFF34F8FBFF342
:102AB0006F8F0BE0EA480068ED490968884203D14E
:102AC0000020E949086001E0FFF731FF70BD10B553
:102AD000014600200A46E24C5369A34201D101237A
:102AE00000E0002373B1E34C936AA34201D10123B8
:102AF00000E0002333B9936A0BB9012300E00023FF
:102B000003B1012010BD70B505462C4674B3D648FC
:102B1000006884422AD000F062FE2046FFF7D7FF0B
:102B200010B3201DFEF7A7FF94F82C100120884059
:102B3000CA4909680843C9490860E16A01EB810193
:102B4000CD4A02EB8100211DFEF76FFFC649E06A06
:102B50000968C96A884207D34FF08050C3490860AA
:102B6000BFF34F8FBFF36F8F00F048FE70BD2DE9AC
:102B7000F04106460027344600BF8021EFF3118064
:102B800081F31188BFF34F8FBFF36F8F00BF0546EE
:102B90002046FFF79CFF20B3B8480068E0B9B2496F
:102BA000E06A0968C96A884200D30127201DFEF740
:102BB00062FF94F82C1001208840A8490968084356
:102BC000A6490860E16A01EB8101AB4A02EB810092
:102BD000211DFEF72AFF04E004F11801A548FEF7C5
:102BE00024FF00BF85F3118800BF3846BDE8F0819F
:102BF00070B523E0FFF783FDA148006808B9012004
:102C000000E000200546FFF7AFFCBDB900F0E7FD8E
:102C10009B48C068C468201DFEF72DFF94480068DB
:102C2000401E9349086097480068401E9549086017
:102C300000F0E4FD2046FFF7C4FB00BF91480068A8
:102C40000028D7D170BD00BFFFF7D2FF8A480068C7
:102C50000128F9D94FF0805084490860BFF34F8FA5
:102C6000BFF36F8FF0E71CB5874800210B46802229
:102C7000CDE9001085A18748FFF75EFB0446012CD3
:102C800016D100BF802080F31188BFF34F8FBFF3B0
:102C90006F8F00BF4FF0FF307F49086001207149FE
:102CA000086000207D4908607D49086000F081FDD2
:102CB0001CBD10B500BF802080F31188BFF34F8F7B
:102CC000BFF36F8F00BF00206649086000F086FDEB
:102CD00010BD7249086870470021704A106870473B
:102CE000634800687047014611B95F48006800E01A
:102CF0000846024602F1340070470246002101E016
:102D0000521C491C1078A528FAD0890888B270474F
:102D10002DE9F04107460C4690461E4617B9524829
:102D2000006800E038460546256005F13400606023
:102D3000E86A2061286BE061686CA060207B032852
:102D400007D1FFF7DCFCA86A08B102202073FFF767
:102D50000BFCE86C6061686DA061052E01D02673E4
:102D600003E03846FFF71DFD2073B8F1000F04D0D3
:102D7000286BFFF7C2FF208401E000202084BDE81B
:102D8000F0812DE9F04707460C4690460026206862
:102D900048B3204641684968416000F10801426833
:102DA0008A4202D14168496841604168D1F80C907B
:102DB00000BF204641684968416000F1080142684F
:102DC0008A4202D14168496841604168CD6806EB9A
:102DD000C60007EB8001434601222846FFF798FF13
:102DE000761C4D45E5D13046BDE8F0872DE9F04130
:102DF00005468846164600240527FFF780FC1C4838
:102E00000068804563D300BF7F1E07EB87021A4B23
:102E100003EB820104EBC40205EB82000122FFF701
:102E2000B0FF0444002FEFD104EBC40105EB810097
:102E300002221C490968FFF7A4FF044404EBC40103
:102E400005EB8100022218490968FFF79AFF044444
:102E500004EBC40105EB8100042227E018000020E8
:102E6000A00C00201C0000200000002004ED00E069
:102E700010000020780C0020EC0B0020380000200F
:102E80008C0C00200C0000203400002049444C45EC
:102E900000000000472C010030000020140000203A
:102EA000AC0A00200400002008000020FC49FFF7C5
:102EB00068FF044404EBC40105EB81000322F949D7
:102EC000FFF75FFF044416B1F74800683060FFF772
:102ED0004BFB2046BDE8F08170B505460C46F34833
:102EE000016818312846FEF7ACFD01212046FFF7A6
:102EF000C8FB70BD70B506460C46154644F0004050
:102F0000EA4909688861E948016818313046FEF7E6
:102F10008CFD01212846FFF7B4FB70BD70B5064655
:102F2000F068C46804F11800FEF7A5FDE0480068E9
:102F3000A8B9201DFEF79FFD94F82C1001208840B1
:102F4000DC4909680843DB490860E16A01EB81015B
:102F5000D94A02EB8100211DFEF767FD04E004F170
:102F60001801D648FEF761FDD049E06A0968C96AD0
:102F7000884204D901250120D149086000E00025DC
:102F8000284670BD2DE9F04105460F4647F0004048
:102F90002860EC682846FEF76EFD201DFEF76BFDED
:102FA00094F82C1001208840C24909680843C1499F
:102FB0000860E16A01EB8101BF4A02EB8100211D3B
:102FC000FEF733FDB949E06A0968C96A884204D945
:102FD00001260120BA49086000E000263046BDE81D
:102FE000F081B84909680160B749096841607047D4
:102FF00070B504460D4600F0F2FBB348026828683D
:10300000401C08B9002619E0AE49206809688842CA
:1030100004D06068904201D801260FE06068101A61
:103020002968884209D228686168511A401A2860C4
:103030002046FFF7D6FF002600E0012600F0DEFB69
:10304000304670BD01209E4908607047014611B1AD
:103050000A46906C00E00020704708B10246916477
:1030600070472DE9F041044614B99048006800E02B
:10307000204607463D6B2846FFF73FFE0646304692
:10308000BDE8F08189490868704770B505462C464F
:10309000002D4BD08549E06A0968C96A884245D24B
:1030A000A06900F0004028B980480068C06AC0F1FB
:1030B0000500A061E16A01EB81017F4A02EB810119
:1030C0006069884201D1012000E0002050B3201D3A
:1030D000FEF7D1FC78B9E06A00EB8000764951F840
:1030E000200040B994F82C100120884071490968EB
:1030F0008143704801606D480068C06AE06294F8DE
:103100002C10012088406B49096808436949086010
:10311000E16A01EB8101684A02EB8100211DFEF7A3
:1031200084FC03E061480068C06AE06270BD70B56D
:1031300005462C460026ADB3206D401E2065E16C8F
:10314000E06A88422ED0206D60BB201DFEF793FC04
:1031500078B9E06A00EB8000574951F8200040B987
:1031600094F82C1001208840524909688143514845
:103170000160E06CE062E06AC0F10500A06194F8D3
:103180002C10012088404B490968084349490860D0
:10319000E16A01EB8101484A02EB8100211DFEF743
:1031A00044FC0126304670BD70B505460E463146DA
:1031B000284608F0EFFE284608F0D7FE044602E055
:1031C00020202855641C0F2CFAD3002028552819DC
:1031D00070BD7FB50546002028703C48006803900C
:1031E0003A49096801EBC101880000F096FB0446EA
:1031F000002C53D0002220460399FFF7F7FD0390DF
:103200000020029043E0029800EBC00004EB800035
:10321000007B012806D0022806D0032806D0042807
:1032200008D105E0522607E0422605E0532603E0D8
:10323000442601E0002600BF00BF029800EBC0005A
:1032400004EB800041682846FFF7AEFF0546029870
:1032500000EBC00004EB80008068029901EBC10123
:1032600004EB8101098CCDE90010029800EBC0004D
:1032700004EB8000324616A10369284609F090FD50
:10328000284608F072FE05440298401C0290DDE9D1
:1032900002018842B7D3204600F09DFB7FBD0000AD
:1032A0008C0C0020A00C0020AC0A002000000020A4
:1032B0003800002018000020EC0B0020780C0020C3
:1032C000240000202800002014000020100000200E
:1032D0000925630925750925750925750D0A00005D
:1032E000FEB5054600202870F84800680290F749AE
:1032F000096801EBC101880000F00FFB0446002CB7
:1033000048D06A4620460299FFF770FD029064217A
:103310000098B0FBF1F000900098002837D0002012
:10332000019030E0019800EBC00004EB8000806960
:103330000099B0FBF1F6019800EBC00004EB8000AF
:1033400041682846FFF730FF05465EB1019800EB63
:10335000C00004EB80003346DDA18269284609F0F5
:103360001FFD09E0019800EBC00004EB8000DBA129
:103370008269284609F014FD284608F0F6FD054448
:103380000198401C0190DDE901018842CAD3204622
:1033900000F021FBFEBDD44909688869D24909685B
:1033A000C96AC1F10501D04A126891617047CE48DF
:1033B000006830B1CC49096801F15000096D491C21
:1033C0000160C9480068704770B506460D4600F0B8
:1033D00006FAC5480068806D88B90120C2490968AD
:1033E00081F85C005DB101212846FFF74AF94FF0F2
:1033F0008050BE490860BFF34F8FBFF36F8F00F05E
:10340000FDF900F0ECF9B8480068846D4CB126B1C4
:103410000020B5490968886503E0601EB249096863
:1034200088650020B049096881F85C0000F0E6F981
:10343000204670BD2DE9F0410746884614461D46DA
:1034400000F0CDF9A848006890F85C00022818D078
:10345000A549096801F15800896DB943016001204F
:10346000A149096881F85C005DB101212846FFF798
:1034700008F94FF080509D490860BFF34F8FBFF3AC
:103480006F8F00F0BBF900F0AAF91CB196480068F4
:10349000806D20609448006890F85C00012801D19C
:1034A000002608E09049096801F15800896D21EA79
:1034B00008010160012600208B49096881F85C0041
:1034C00000F09CF93046BDE8F0812DE9F0478146D7
:1034D0000D4616461F464FF0010A4C4600F07FF994
:1034E0000FB1A06D386094F85C80022084F85C0015
:1034F000052E17D2DFE806F01503070B0D00A06DAF
:103500002843A0650EE0A06D401CA0650AE0A565FB
:1035100008E0B8F1020F01D0A56501E04FF0000A04
:1035200000E000BF00BFB8F1010F22D1201DFEF75F
:10353000A2FA94F82C10012088406D4909680843CC
:103540006B490860E16A01EB81016A4A02EB810084
:10355000211DFEF76AFA6449E06A0968C96A88426F
:1035600007D94FF0805061490860BFF34F8FBFF318
:103570006F8F00F043F95046BDE8F0872DE9F84F12
:1035800082460D4616461F46DDF828B00120009001
:10359000544600BF8021EFF3118081F31188BFF3FF
:1035A0004F8FBFF36F8F00BF81460FB1A06D3860A2
:1035B00094F85C80022084F85C00052E17D2DFE8C6
:1035C00006F01503070B0D00A06D2843A0650EE063
:1035D000A06D401CA0650AE0A56508E0B8F1020FE7
:1035E00001D0A56501E00020009000E000BF00BF11
:1035F000B8F1010F2DD140480068A8B9201DFEF791
:103600003AFA94F82C100120884039490968084397
:1036100037490860E16A01EB8101364A02EB81001B
:10362000211DFEF702FA04E004F118013348FEF709
:10363000FCF92D49E06A0968C96A884209D9BBF1D9
:10364000000F03D00120CBF8000002E001202C493C
:10365000086000BF89F3118800BF0098BDE8F88FAB
:103660002DE9F04105460E462C4600BF8021EFF3C0
:10367000118081F31188BFF34F8FBFF36F8F00BFAD
:10368000074694F85C80022084F85C00A06D401C22
:10369000A065B8F1010F47D117480068A8B9201DEF
:1036A000FEF7E9F994F82C100120884010490968C8
:1036B00008430F490860E16A01EB81010D4A02EB02
:1036C0008100211DFEF7B1F921E01BE01000002070
:1036D0000925750909257525250D0A00092575098E
:1036E000093C3125250D0A000000002004ED00E012
:1036F00018000020EC0B002038000020780C00207F
:103700002400002004F118011648FEF78EF916492E
:10371000E06A0968C96A884206D916B1012030609A
:1037200002E001201149086000BF87F3118800BF43
:10373000BDE8F08170B5054615B90B48006800E09A
:103740002846064600F04BF896F85C00022804D1A3
:10375000002086F85C00012400E0002400F04EF810
:10376000204670BD780C00200000002024000020BE
:1037700000BF802080F31188BFF34F8FBFF36F8F9E
:1037800000BF00BFFEE7001F4FF080730360001F03
:1037900021F001030360001F2B4B0360143802600B
:1037A0002038704729484FF0E02148610720086120
:1037B000704710B52648006840F47F00244908602F
:1037C0000846006840F07F400860FFF7EBFF0020EC
:1037D00020490860FEF7D6F8002010BD704700BFF2
:1037E000802080F31188BFF34F8FBFF36F8F00BF2E
:1037F00018480068401C1749086070471548006861
:10380000401E144908600846006820B9002080F373
:10381000118800BF00BF704710B500BF802080F343
:103820001188BFF34F8FBFF36F8F00BFFEF725FEE8
:1038300020B14FF0805006491C39086000BF0020BD
:1038400080F3118800BF10BD71370100FFAF010088
:1038500020ED00E04400002010B50146714800E072
:10386000006803688B42FBD30246436813448B42D3
:1038700004D143684C682344436001460A464B68C0
:1038800013440468A34211D1674C03682468A3421F
:1038900008D04B680468646823444B6003681B6865
:1038A0000B6005E0604B1B680B6001E003680B6078
:1038B000884200D0016010BD30B54FF4A0335B48A2
:1038C00000F007042CB1C01D20F00700574C041B6A
:1038D0001B1B0246534C22600024524D6C60D018D2
:1038E000083820F00700504C206000244E4D2D6811
:1038F0006C604D4D2D682C601146441A4C604A4C4A
:1039000024680C604A4D4C682C604A4D4C682C6011
:103910004FF00044484D2C6030BD2DE9F041054684
:103920004FF00008FEF7EBFE3F48006808B9FFF7CC
:10393000C3FF414800682840002847D145B10835F9
:1039400005F0070020B105F00700C0F108000544AC
:10395000002D3BD037480068854237D8314E30467D
:10396000046801E0264624686068A84202D2206804
:103970000028F7D12C480068844227D0306800F135
:103980000808206830606068401B102807D9671954
:103990006068401B786065603846FFF75DFF254929
:1039A00060680968081A23490860084600682049C9
:1039B0000968884203D21F4800681D4908601E49F3
:1039C000606809680843606000202060FEF7CCFD55
:1039D0004046BDE8F08170B506463546D6B1083D93
:1039E0002C46154960680968084098B1206888B974
:1039F00011496068096888436060FEF780FE0D49E0
:103A00006068096808440B4908602046FFF724FFF6
:103A1000FEF7AAFD70BD07480068704704480068BB
:103A2000704770474800002050000020B40C002070
:103A300058000020540000205C000020426901234F
:103A40008B409A434261704770B504460D46164656
:103A500029462046FFF7F2FF06F0100098B1A06853
:103A60000121A9400843A06006F0010028B12069A7
:103A70000121A9400843206126E020690121A940D5
:103A80008843206120E0A1680120A8408143A16013
:103A900006F0020028B1E0680121A9400843E06077
:103AA00012E0E0680121A9408843E06006F00100CF
:103AB00028B121690120A8400143216104E0216966
:103AC0000120A840814321610120A840206270BDEF
:103AD000426901238B401A43426170470246D06914
:103AE000C84000F00100704702469069C84000F0ED
:103AF0000100704701228A40026270472DE9F041BF
:103B000007460C4615461E46DDF81880F149781A1E
:103B10008F4273D009DCF048384468B1B0F5805F5B
:103B200041D0B0F5005F3DD173E0B0F5805F6FD05C
:103B3000B0F5405FF7D10CE14FF08040806840F075
:103B400001004FF080418860012300222146104689
:103B500000F0F6FE012D09D1DF4840424068012106
:103B6000A1400843DC494942486008E0DA48404245
:103B700040680121A1408843D74949424860012E4D
:103B800008D1D64800680121A1400843D449C1F8B2
:103B9000000207E0D14801680120A0408143D048DD
:103BA000C0F800120AE14FF08040806840F0020047
:103BB0004FF080418860012300222146184600F022
:103BC000BFFE012D07D1C74841680120A040014335
:103BD000C448416006E0C34841680120A0408143D9
:103BE000C0484160B8F1010F09D1BF480068012108
:103BF000A1400843BA49C1F8000308E03EE0BA48D2
:103C000001680120A0408143B548C0F80013D5E009
:103C100069E04FF08040806840F004004FF0804140
:103C20008860012300222146022000F089FE012D38
:103C300007D1AE4841680120A0400143AB48416034
:103C400006E0AA4841680120A0408143A74841609E
:103C5000012E09D1A148103000680121A14008437C
:103C60009F49C1F8100208E09C481030016801200B
:103C7000A04081439A48C0F810129FE04FF0804066
:103C8000806840F010004FF08041886001230022DE
:103C90002146032000F054FE012D07D18D484168D4
:103CA0000120A04001438B48416006E089484068FC
:103CB0000121A140884387494860012E09D18748E6
:103CC000203001680120A04001438548C0F820123F
:103CD00008E08248203000680121A14088438049E3
:103CE000C1F820026AE04FF08040806840F0200078
:103CF0004FF080418860012300222146042000F01B
:103D00001FFE012D07D17A4841680120A0400143E0
:103D10007748416006E0764840680121A140884329
:103D200073494860B8F1010F09D16F48203001682C
:103D30000120A04001436A48C0F8201308E06A4807
:103D4000203000680121A14088436549C1F8200363
:103D500034E04FF08040806840F400104FF0804124
:103D60008860012300222146052000F0E9FD012D95
:103D700007D1604840680121A14008435D4948607F
:103D800006E05C4840680121A140884359494860E9
:103D9000012E09D15148303001680120A040014373
:103DA0004F48C0F8301208E04C483030006801211C
:103DB000A14088434A49C1F8300200BF00BFBDE8B6
:103DC000F08110B501234FF0844404EB401242F817
:103DD000213010BD10B500234FF0844404EB401295
:103DE00042F8213010BD10B54FF0844303EB401270
:103DF00052F82120C2F101034FF0844404EB401239
:103E000042F8213010BD02461068C84000F00100A1
:103E1000704730B5C2F118056FF07F4444FA05F3DE
:103E2000046803FA01F52C43046030BD30B5C2F1DB
:103E300018056FF07F4444FA05F3046803FA01F5AE
:103E4000AC43046030BD30B5C2F118056FF07F445B
:103E500044FA05F3046803FA01F56C40046030BDD0
:103E600030B50346C2F118056FF07F4040FA05F403
:103E70001868C840204030BD30B5C2F118056FF059
:103E80007F4444FA05F372B6046803FA01F52C4343
:103E9000046062B630BD30B5C2F118056FF07F44E2
:103EA00044FA05F372B6046803FA01F5AC43046002
:103EB00062B630BD30B5C2F118056FF07F4444FAE8
:103EC00005F372B6046803FA01F56C40046062B64B
:103ED00030BD00000050014000F0FEBF0002014074
:103EE000000001400020014000030140003001407B
:103EF0000060014000800140816821F00101816083
:103F000070472DE9F04105460E4617461C464FF016
:103F10008040806840F040004FF080418860284633
:103F2000FFF7EAFFA86820F00200A860A86840EA4E
:103F30004600A8602F60F849681A8D4245D007DC1A
:103F4000F648284448B10C2819D0182876D129E021
:103F50000C284DD0182871D15DE00120EE4924399C
:103F600048670846006F20F0010008670846006FA8
:103F70002043086714B13C2000F042FA5EE00220C2
:103F8000E549243948670846006F20F002000867B9
:103F90000846006F40EA4400086714B13D2000F075
:103FA0002FFA4BE00420DC49243948670846006FAB
:103FB00020F0040008670846006F40EA84000867A4
:103FC00014B13E2000F01CFA38E00820D249243910
:103FD00048670846006F20F0080008670846006F31
:103FE00040EAC400086714B13F2000F009FA25E058
:103FF0001020C949243948670846006F20F0100096
:1040000008670846006F40EA0410086714B14020B2
:1040100000F0F6F912E02020BF492439486708462D
:10402000006F20F0200008670846006F40EA441047
:10403000086714B1412000F0E3F900BF00BFBDE8FC
:10404000F081816841F0010181607047B24A811AB4
:10405000904228D007DCB149014449B10C2910D065
:1040600018293BD116E00C2926D0182936D12CE08E
:10407000A9492439896F41F00101A74A243A91677F
:104080002CE0A5492439896F41F00201A24A243A63
:10409000916723E0A0492439896F41F004019E4AC9
:1040A000243A91671AE09C492439896F41F008014C
:1040B000994A243A916711E097492439896F41F070
:1040C0001001954A243A916708E093492439896F91
:1040D00041F02001904A243A916700BF00BF704729
:1040E0008D4A811A904228D007DC8C49014449B19D
:1040F0000C2910D018293BD116E00C2926D01829FC
:1041000036D12CE084492439896F21F00101824A9B
:10411000243A91672CE080492439896F21F002010B
:104120007D4A243A916723E07B492439896F21F045
:104130000401794A243A91671AE077492439896F52
:1041400021F00801744A243A916711E07249243938
:10415000896F21F01001704A243A916708E06E4996
:104160002439896F21F020016B4A243A916700BFFE
:1041700000BF7047016070470146086870470146FC
:104180004868704710B504466349601A8C4231D0C4
:1041900007DC6248204448B10C2813D018284DD1C0
:1041A0001CE00C2832D0182848D13BE05A4824386B
:1041B000006F40F001005849243908673C2000F0A6
:1041C0001FF93BE054482438006F40F00200524988
:1041D000243908673D2000F013F92FE04E482438B9
:1041E000006F40F004004C49243908673E2000F07D
:1041F00007F923E048482438006F40F0080046499A
:10420000243908673F2000F0FBF817E042482438C3
:10421000006F40F01000404924390867402000F04A
:10422000EFF80BE03C482438006F40F020003A499A
:1042300024390867412000F0E3F800BF00BF10BD3B
:10424000354A811A904228D007DC3449014449B1EB
:104250000C2910D018293BD116E00C2926D018299A
:1042600036D12CE02C492439096F21F001012A4A6A
:10427000243A11672CE028492439096F21F0020102
:10428000254A243A116723E023492439096F21F094
:104290000401214A243A11671AE01F492439096FA1
:1042A00021F008011C4A243A116711E01A49243907
:1042B000096F21F01001184A243A116708E01649E5
:1042C0002439096F21F02001134A243A116700BFF5
:1042D00000BF7047104A811A904221D007DC0F4975
:1042E000014449B10C290CD0182925D10EE00C2924
:1042F0001AD0182920D11BE00121074A243A51671E
:104300001AE00221044A243A516715E00421024AC6
:10431000243A516710E00000247001400090FEBF75
:1043200008213D4A516707E010213B4A516703E0ED
:104330002021394A516700BF00BF70470146364A05
:104340002432881A91421CD007DC3448084448B112
:104350000C280CD0182823D10EE00C2816D01828D1
:104360001ED118E02C48406F00F0010070472A4829
:10437000406FC0F34000F9E72748406FC0F380006A
:10438000F4E72548406FC0F3C000EFE72248406FD4
:10439000C0F30010EAE72048406FC0F34010E5E7A3
:1043A0000020E3E770B504460D464FF0804080687A
:1043B00040F040004FF080418860002040EA440017
:1043C000154908660846006F40F48030086715B14B
:1043D000242000F015F870BD0F48006E40F0010079
:1043E0000D49086670470C48406F00F4803028B1D2
:1043F0004FF4803008494867012070470020FCE7EF
:1044000000F01F02012191404209920002F1E022D6
:10441000C2F8001170470000007001400090FEBF1C
:10442000416821F400714160704770B504460D4643
:10443000E948204448B1B0F5805F0FD0B0F5005F87
:1044400015D0B0F5405F24D11AE04FF0804080686D
:1044500040F400604FF0804188601AE04FF08040E7
:10446000806840F480504FF08041886011E04FF048
:104470008040806840F400504FF08041886008E040
:104480004FF08040806840F480404FF08041886069
:1044900000BF00BF2046FFF7C3FF606840F4005034
:1044A0006060A0686FF30D00A060CC480068000950
:1044B0002968B0FBF1F0401EA1680843A060606865
:1044C00020F47C00606028798004697940EAC1406A
:1044D000A97940EA8150616808436060BE48204481
:1044E00048B1B0F5805F0AD0B0F5005F0BD0B0F5F1
:1044F000405F10D10BE0272000F065F90BE0282089
:1045000000F061F907E0292000F05DF903E02A20BE
:1045100000F059F900BF00BFE06880B2E060E879C0
:10452000401C0004697A40EA0160E1680843E060E9
:10453000606820F07F4060606068E97A40EA01606E
:104540006060606844F2140188436060287A00016A
:10455000A97A40EA8100297B40EA813061680843FA
:1045600060609D48204448B1B0F5805F14D0B0F53C
:10457000005F1FD0B0F5405F38D129E0287AA97AD2
:104580000843297B084318B1272000F011F902E005
:10459000272000F018F929E0287AA97A0843297B16
:1045A000084318B1282000F003F902E0282000F0A9
:1045B0000AF91BE0287AA97A0843297B084318B135
:1045C000292000F0F5F802E0292000F0FCF80DE0C9
:1045D000287AA97A0843297B084318B12A2000F0D9
:1045E000E7F802E02A2000F0EEF800BF00BF70BD3F
:1045F000416841F4007141607047016070470246B4
:104600001368C3F30800086003F4806008B1022057
:1046100070470020FCE70146486800F0010080F088
:104620000100704701464868012222EAD000704725
:1046300001464868C0F34000704782686FF30D027E
:104640008260664A12681209B2FBF1F2521E836858
:104650001A43826070470146604800680209886812
:10466000C0F30D00401CB2FBF0F0704710B5436979
:1046700023F005034361436941EA82042343436114
:1046800010BD01464869C0F3C010704730B5446999
:1046900024F07A0444614C0044EAC20444EA03145E
:1046A00045692C43446130BD01464869C0F3002090
:1046B000704710B5036923F005030361036941EAFC
:1046C00082042343036110BD016941F010010161BF
:1046D000704701460869C0F3400070470146086909
:1046E000C0F3C000704710B50022FF2903D040F28C
:1046F000FF13994201D1002216E0FE2902D0B1F544
:10470000FF7F01D101220FE0F82902D0B1F5FC7F33
:1047100001D1022208E0802902D0B1F5C07F01D189
:10472000032201E000BFFEE7836823F0607383602B
:1047300083684FF4000444EA02642343836010BD9D
:104740000146886800F4000008B1002070478868BE
:1047500000F0806008B10220F8E70120F6E7426827
:104760000A434260704742688A434260704702468B
:1047700001F0100018B1906800F48000A0B901F4B5
:10478000804018B1906800F4001068B901F004008E
:1047900018B1906800F4003030B901F0400028B141
:1047A000906800F0006008B1012070470020FCE72D
:1047B00000F01F02012191404209920002F1E02223
:1047C000C2F80011704700F01F0201219140044A15
:1047D000430942F8231070470000FEBF700000201C
:1047E00080E100E0816821F001018160704770B5CF
:1047F00003460C464FF08040806840F080004FF048
:10480000804188601846FFF7EDFF82B960081860A4
:10481000252000F01F050121A940164D460945F845
:10482000261000BF986840F00200986010E01C60FD
:10483000252000F01F050121A9404509AD0005F123
:10484000E025C5F8001100BF986820F002009860CC
:1048500070BD816841F0010181607047552101619F
:1048600070470146486870470121C16070470146A2
:10487000C868704780E100E010B5044672B6200BAE
:1048800027490968884727480068804762B610BDF5
:1048900070B505460E46144605F00F0008B102201B
:1048A00070BD04F0030008B10220F9E772B6A20857
:1048B000314628461C4B1B6898471A4800688047B9
:1048C00062B60020ECE710B5044672B61E2C06D086
:1048D000282C0BD0502C10D0782C15D115E0134972
:1048E00040F28940124A1268904715E0114940F29F
:1048F00089400F4A126890470EE00F4940F2894004
:104900000B4A1268904707E000BF0C4940F28A400A
:10491000074A1268904700BF00BF62B610BD000092
:1049200068000020600000206C000020251FF4AB10
:10493000640000202929F4AB4D52F8AB6E7AFCAB31
:1049400070B506285CD2DFE800F0035CB9FDFCFB23
:10495000632A33D9062916D2FE4C246801EB81065E
:104960001F25B540AC43FC4DC5F80041A2F16404DD
:1049700001EB8105AC40F84DD5F800512C43F64DC4
:10498000C5F800411AE00C2918D2F24C241D246805
:104990008D1F05EB85061F25B540AC43EE4DC5F8D0
:1049A0000441A2F164048D1F05EB8505AC40EA4D7E
:1049B000D5F804512C43E84DC5F80441E64C246871
:1049C0004E000325B540AC43E34D2C60632A01D96A
:1049D000012400E014464D00AC40DF4D2D682C430F
:1049E000DD4D2C60DD4C246801258D40AC43DB4D52
:1049F0002C602C46246803FA01F52C43D74D2C601B
:104A0000BAE2632A34D9062917D2D24C103424686A
:104A100001EB81061F25B540AC43CF4DC5F81041D1
:104A2000A2F1640401EB8105AC40CB4DD5F81051E7
:104A30002C43C94DC5F810411AE00C2918D2C54CB9
:104A4000143424688D1F05EB85061F25B540AC4343
:104A5000C14DC5F81441A2F164048D1F05EB850515
:104A6000AC40BD4DD5F814512C43BB4DC5F8144195
:104A7000B94C64684E000325B540AC43B64D6C603C
:104A8000632A01D9012400E014464D00AC40B24D28
:104A90006D682C43B04D6C60B04C10342468012517
:104AA0008D40AC43AD4D10352C602C46246803FA84
:104AB00001F52C43A94D10352C605DE2632A34D9F1
:104AC000062917D2A34C2034246801EB81061F2548
:104AD000B540AC43A04DC5F82041A2F1640401EB00
:104AE0008105AC409C4DD5F820512C439A4DC5F81A
:104AF00020411AE00C2918D2964C243424688D1FCA
:104B000005EB85061F25B540AC43934DC5F8244100
:104B1000A2F164048D1F05EB8505AC408E4DD5F8E0
:104B200024512C438C4DC5F824418B4CA4684E0075
:104B30000325B540AC43884DAC60632A05D902E03B
:104B400067E1CFE01BE0012400E014464D00AC40DB
:104B5000814DAD682C43804DAC60804C203424687E
:104B600001258D40AC437D4D20352C602C462468BA
:104B700003FA01F52C43794D20352C60FCE1632AC2
:104B800070D9062917D2734C6034246801EB810672
:104B90001F25B540AC43704DC5F86041A2F16404D7
:104BA00001EB8105AC406C4DD5F860512C436A4D4A
:104BB000C5F8604156E00C2919D2664C643424686B
:104BC0008D1F05EB85061F25B540AC43624DC5F82A
:104BD0006441A2F164048D1F05EB8505AC405E4D78
:104BE000D5F864512C435C4DC5F864413AE0122974
:104BF0001BD2584C68342468A1F10C0505EB8506DE
:104C00001F25B540AC43544DC5F86841A2F164047A
:104C1000A1F10C0505EB8505AC404F4DD5F8685169
:104C20002C434D4DC5F868411CE018291AD2494C57
:104C30006C342468A1F1120505EB85061F25B540EB
:104C4000AC43454DC5F86C41A2F16404A1F11205D5
:104C500005EB8505AC40404DD5F86C512C433E4DDD
:104C6000C5F86C41102914D23B4C246A4E00032530
:104C7000B540AC43384D2C62632A01D9012400E0D1
:104C800014464D00AC40344D2D6A2C43324D2C62FD
:104C900017E0314C646AA1F110056E000325B540A0
:104CA000AC432D4D6C62632A01D9012400E0144607
:104CB000A1F110056D00AC40274D6D6A2C43264DC7
:104CC0006C62264C4034256801248C40A543234C5B
:104CD00040342560246803FA01F52C431F4D40350C
:104CE0002C6049E1632A57D9062917D2194C703430
:104CF000246801EB81061F25B540AC43164DC5F86D
:104D00007041A2F1640401EB8105AC40124DD5F86D
:104D100070512C43104DC5F870413DE00C291FD255
:104D20000C4C743424688D1F05EB85061F25B54097
:104D3000AC43094DC5F87441A2F164048D1F05EB25
:104D40008505AC40044DD5F874512C43024DC5F88F
:104D5000744121E0000101400000014000060140D3
:104D6000122919D2854C2468A1F10C0505EB8506A2
:104D70001F25B540AC43824DC5F87841A2F16404CB
:104D8000A1F10C0505EB8505AC407D4DD5F87851BA
:104D90002C437B4DC5F87841102914D2784C246BF4
:104DA0004E000325B540AC43754D2C63632A01D9F1
:104DB000012400E014464D00AC40714D2D6B2C4396
:104DC0006F4D2C6317E06E4C646BA1F110056E0003
:104DD0000325B540AC436A4D6C63632A01D90124B5
:104DE00000E01446A1F110056D00AC40644D6D6B00
:104DF0002C43634D6C63634C256801248C40A543B0
:104E0000604C2560246803FA01F52C435D4D2C604D
:104E1000B2E0632A70D9062917D2584C08342468A6
:104E200001EB81061F25B540AC43554DC5F88041C7
:104E3000A2F1640401EB8105AC40514DD5F88051DD
:104E40002C434F4DC5F8804156E00C2919D24B4CEC
:104E50000C3424688D1F05EB85061F25B540AC4337
:104E6000474DC5F88441A2F164048D1F05EB85050B
:104E7000AC40434DD5F884512C43414DC5F8844195
:104E80003AE012291BD23D4C10342468A1F10C05E4
:104E900005EB85061F25B540AC43394DC5F8884163
:104EA000A2F16404A1F10C0505EB8505AC40344D7D
:104EB000D5F888512C43324DC5F888411CE018299B
:104EC0001AD22E4C14342468A1F1120505EB850684
:104ED0001F25B540AC432A4DC5F88C41A2F16404AE
:104EE000A1F1120505EB8505AC40254DD5F88C5197
:104EF0002C43234DC5F88C41102914D2204C246C2E
:104F00004E000325B540AC431D4D2C64632A01D9E6
:104F1000012400E014464D00AC40194D2D6C2C438B
:104F2000174D2C6417E0164C646CA1F110056E004F
:104F30000325B540AC43124D6C64632A01D90124AA
:104F400000E01446A1F110056D00AC400C4D6D6CF5
:104F50002C430B4D6C640B4C1034256801248C40A1
:104F6000A543084C10342560246803FA01F52C434E
:104F7000044D10352C6000BF00BF70BD78010140AA
:104F800000000140500601402DE9F0418EB0054679
:104F90000F46904600263422A44901A806F0AFFF30
:104FA000012404E001A850F824000644641CBC421B
:104FB000F8D3464405F0030078B96420B5FBF0F15E
:104FC00000FB115030B94FF4C870B5FBF0F100FB95
:104FD000115010B9032F00D3761CA5F26D7040F26A
:104FE0006D1100FB016640F26D7411E004F00300E6
:104FF00068B96420B4FBF0F100FB114030B94FF404
:10500000C870B4FBF0F100FB114000B9761C641CC1
:10501000AC42EBD3701C0721B0FBF1F201FB120094
:105020000EB0BDE8F08100214162704770B50546C1
:105030000C464FF08040806840F080704FF0804117
:1050400088607B48006A20F00100794908624FF0CF
:105050008040806877490843090588602846FFF743
:10506000E2FF00BFA86A0028FCD0A079617940EA7D
:10507000811028602079E17840EA41106860E27888
:10508000A1782088FFF780FFA17840EAC100A860DE
:105090002088E8600120A8611F202862E079217A39
:1050A00040EA4100E861E079217A084318B13020F4
:1050B00000F0B1F80AE0302000F01F020121914019
:1050C0005D4A430942F8231000BF00BF70BD0121B3
:1050D00041627047C2680A808268C2F3C3028A7064
:1050E0004268C2F34412CA70826802F007030122C8
:1050F0009A400A71426802F01F024A710268C2F3C4
:1051000085128A71026802F03F02CA71704770B559
:1051100004460D4600BFA06A0028FCD0E878A978B4
:1051200040EA811020616878297840EA4110606186
:105130000220A06100BFA06900F002000028FAD19F
:1051400010202062E06920F01000E061E069297918
:1051500040EA0110E061287910B1302000F05BF8DE
:1051600070BDC16941F00101C1617047C16921F0A1
:105170000101C16170470121016270470146086A5F
:1051800000F001007047C16941F00201C161704740
:10519000C16921F00201C1617047022101627047BB
:1051A0000146086AC0F340007047C16941F004013C
:1051B000C1617047C16921F00401C16170470421D8
:1051C000016270470146086AC0F380007047C169F8
:1051D00041F00801C1617047C16921F00801C16156
:1051E00070470821016270470146086AC0F3C00099
:1051F0007047C16941F01001C1617047C16921F078
:105200001001C16170471021016270470146086AB0
:10521000C0F30010704700F01F02012191404209C5
:10522000920002F1E022C2F80011704720D701007D
:1052300000E001400004008080E100E04FF0804089
:10524000006800F00400B0B14FF08040006800F04A
:10525000020018B1A448A54908602EE0A4480068DF
:1052600000F0010018B1A348A049086025E0A24859
:105270009E49086021E04FF08040006800F0010086
:10528000B8B19B48406A00F0020018B19A489749AB
:10529000086002E094489549086094480068052138
:1052A000B0FBF1F032214843C0F35C008F49086045
:1052B00003E04FF4FA408D4908604FF080404068A9
:1052C00000F0010020B18948006840088749086063
:1052D000864800688949B0FBF1F089490860704749
:1052E0004FF08041096801F0040161B94FF080413D
:1052F000096801F0010131B9002001E000BF401C44
:105300001428FBD307E0002001E000BF401C44F656
:1053100020618842F9D3704710B5012074490862B2
:10532000FFF7DEFFFFF7DCFF7148406A20F0020064
:105330006F4948620846806A724908406C49886231
:105340000846806A70490843694988620846406A8D
:1053500020F00400486200BF6548006B0028FBD0C5
:1053600010BD10B5FFF7D8FF6148406A40F001005A
:105370005F4948628804006840F0010089040860C1
:105380000846006820F00400086010BD10B5012038
:1053900057490862FFF7A4FFFFF7A2FF4FF08040D4
:1053A000006840F002004FF0804108600846006845
:1053B00040F00400086010BD10B54FF080408068D8
:1053C00040F080704FF0804188605048006A20F0C3
:1053D00001004E490862FFF783FF4FF080400068EC
:1053E00020F001004FF0804108600846006820F07E
:1053F0000400086010BD10B501203D490860FFF7AA
:105400006FFF4FF08040006820F002004FF08041B5
:1054100008600846006840F00400086010BD10B540
:10542000002033490860FFF75BFF4FF080400068C1
:1054300020F002004FF0804108600846006840F00C
:105440000400086010BD10B54FF08040806840F443
:1054500080004FF0804188607820FFF734FA042004
:10546000052813D2DFE800F00306090C0F00FFF750
:10547000D6FF0BE0FFF7BFFF08E0FFF79DFF05E059
:10548000FFF784FF02E0FFF76CFF00BF00BF4FF0A3
:105490008040406820F001004FF08041486008469D
:1054A00040684860FFF7CAFE104800681849884203
:1054B00003D97820FFF707FA14E00C4800680D497B
:1054C000884203D95020FFF7FEF90BE00748006837
:1054D0001049884203D92820FFF7F5F902E01E2081
:1054E000FFF7F1F910BD00000080510170000020AD
:1054F00000100340005A6202002D310140420F00AB
:105500007400002000FEE0FC3200050000E00140D5
:1055100000B4C40480C3C90125480047FEE7FEE784
:10552000FEE7FEE7FEE7FEE7FEE7FEE7FEE7FEE753
:10553000FEE7FEE7FEE7FEE7FEE7FEE7FEE7FEE743
:10554000FEE7FEE7FEE7FEE7FEE7FEE7FEE7FEE733
:10555000FEE7FEE7FEE7FEE7FEE7FEE7FEE7FEE723
:10556000FEE7FEE7FEE7FEE7FEE7FEE7FEE7FEE713
:10557000FEE7FEE7FEE7FEE7FEE7FEE7FEE7FEE703
:10558000FEE7FEE7FEE7FEE7FEE7FEE7FEE7FEE7F3
:10559000FEE7FEE7FEE7FEE7FEE7FEE7FEE7FEE7E3
:1055A000FEE7FEE7FEE7FEE7FEE7FEE7FEE7FEE7D3
:1055B0004919010088B0044625686668A768D4F8D0
:1055C0000C80D4F81090D4F814A0D4F818B0E06986
:1055D00007904F48006806904D48001D00680590F0
:1055E0004B48083000680490494814300068039024
:1055F00047480C3000680290454810300068019020
:1056000044A007F0A3FB294648A007F09FFB3146C2
:1056100049A007F09BFB39464AA007F097FB41469B
:105620004BA007F093FB49464CA007F08FFB514677
:105630004DA007F08BFB59464EA007F087FB50A00A
:10564000079907F083FB0398009050A0DDE904322E
:10565000069907F07BFB58A0DDE9012107F076FBF6
:1056600000BFFEE75AA000F071FA00BFFEE75DA0A0
:1056700000F06CFA00BFFEE75DA000F067FA00BF23
:10568000FEE70C4621465EA007F060FB00BFFEE788
:105690001FB50123642202210020FFF751F90023E6
:1056A000642203211846FFF74BF94FF4E1300090D4
:1056B00000208DF808008DF80A008DF80C0069466E
:1056C0005448FEF7B2FE5348FEF792FF1FBD10B5D7
:1056D000FFF7B9FEFFF7DCFF4FA007F037FB55A03F
:1056E00007F034FB00F004FAFDF7BDFA002010BD0E
:1056F00070B504460D4600BF4648FEF799FF0028E6
:10570000FAD121464348FEF778FF204670BD0000DD
:1057100028ED00E00D0A486172644661756C7420E2
:105720006465746563746564210D0A005230203D20
:1057300020253038580D0A005231203D20253038C0
:10574000580D0A005232203D20253038580D0A00ED
:105750005233203D20253038580D0A005231323D59
:1057600020253038580D0A004C52203D2025303875
:10577000580D0A005043203D20253038580D0A00AE
:105780005053523D20253038580D0A00434653529D
:105790003D2530385820484653523D253038582052
:1057A000444653523D2530385820414653523D25FA
:1057B0003038580D0A0000004D4D4641523D25300D
:1057C000385820424641523D253038580D0A0000D5
:1057D0004D656D4D616E616765204661756C740D38
:1057E0000A0000004275734661756C740D0A000072
:1057F00055736167654661756C740D0A00000000A1
:10580000537461636B4F766572666C6F773A2025CF
:10581000730D0A00000002402D2D2D2D2D2D2D2D54
:105820002D2D2D2D2D2D2D2D2D2D2D2D2D2D0D0AEB
:10583000000000004170705F5F5F5F5F412073791F
:105840007374656D2072756E2E2E2E0D0A00000089
:105850000E490FA000F07AF904E000F0F5F90520F8
:10586000FCF788FFF9E71CB50B4909A000F06EF9B9
:105870000A48032100234FF48062CDE9001008A1FB
:10588000AFF23300FCF758FD1CBD000054D70100F7
:1058900025730D0A000000005ED70100780000208B
:1058A0006372746C5F7461736B000000ADF5007D12
:1058B0002E48006801210268002090472B490968A2
:1058C000486880472A492BA000F040F93AE04FF49D
:1058D0000071684606F02CFB284909684868804733
:1058E0002749096888688047FDF7F3F9804606F084
:1058F000FBFC06460022234B06F010FC044606F093
:1059000014FD214908600846006820490968401ACA
:1059100040F6B831884211D31B4800681B49086023
:105920006846FDF7DDFC694612A000F00FF9FEF7AE
:1059300075F80446214616A000F008F90520FCF78A
:1059400019FF00BFC3E71CB518490AA000F0FEF814
:105950001748032100234FF48062CDE9001015A100
:10596000AFF2B700FCF7E8FC1CBD0000BC0A002049
:105970006FD7010025730D0A00000000C800002049
:10598000840100200000F03F8000002084000020FF
:105990006D696E2065766572206672656520686542
:1059A00061703A2025750D0A000000007BD70100C8
:1059B0007C0000206C697374656E5F7461736B00AA
:1059C00010B571480068012800D110BD0120FCF716
:1059D000F9F96E4908600846006828B96C496DA05D
:1059E00007F0B4F900BFFEE701206749086000BF77
:1059F000EBE786B06A4968A007F0A8F96948006833
:105A0000816800208847674800684FF4E1310268E8
:105A10000020904763480068416800208847FFF7EE
:105A2000CFFF00F0C6F900F0EBF8FFF78CFFFFF7AF
:105A30001AFF5D490968086880475C490968086879
:105A400080475B4909680868804759480068816851
:105A5000012088475648006841680120884754481B
:105A600000680021C268084690475148006800213C
:105A7000C268012090474FF47A70FCF77BFE4D48D6
:105A80000068002102681A2090474A4800680021F7
:105A900002680320904747480068002142681A20A6
:105AA00090474448006800214268032090474249DB
:105AB00009680868804741490968086880471822D2
:105AC0003F49684606F01BFA3E49096888688047E6
:105AD0003C4800680168684688473A490968486850
:105AE000804704E003F07AFB0120FCF743FEF9E76E
:105AF0001CB5354928A007F029F9344802210023B4
:105B00004A02CDE9001032A1AFF21910FCF714FCE3
:105B10001CBD10B51C48006800B910BD00235A1EFA
:105B200019461A480068FCF701FA044600BFF4E77A
:105B300010B51548006800B910BD00231A46194673
:105B400012480068FCF7A6F800BFF5E70FB400B5EF
:105B5000C1B00D48006810B941B05DF814FB43A80E
:105B600000904FF4807101A8009B429A07F02CF935
:105B700000200090FFF7CDFF01A918A007F0E6F87C
:105B8000FFF7D6FF00BFE7E7900000208C00002061
:105B9000C6D701006572723A25730D0A0000000035
:105BA00090D70100D001002084010020C80000200F
:105BB0004C010020B0010020DC0B0020C40B0020B1
:105BC0009CD70100E8010020B4D701008800002024
:105BD00073746172745F7461736B000025730000ED
:105BE000104911A0FFF7B2FF09E001F022F91048B7
:105BF00000680169C82088470520FCF7BBFDF4E771
:105C00001CB50C4908A0FFF7A1FF0B480221002397
:105C10004A02CDE9001009A1AFF23B00FCF78CFB72
:105C20001CBD0000D2D7010025730D0A0000000042
:105C30004C010020DCD7010094000020686F7374D1
:105C40005F7461736B00000010B500F090FD00F010
:105C5000ADF900F069FA10BD70B500206E49096811
:105C60004968086000240EE06B4800684068001D29
:105C700004EBC40101EB410100EB81056C212846D6
:105C800006F056F9641C022CEEDB70BD2DE9F041E4
:105C9000002662A002F0ABFD624908600846006879
:105CA00030B92C22604961A0FFF750FF00BFFEE72A
:105CB0006023614A00215B48006802F018FE054637
:105CC000602D06D03422584958A0FFF73FFF00BF8F
:105CD000FEE75148006800680068A5283DD057A03D
:105CE000FFF734FFA5204C490968096808600120C6
:105CF0004949096809680871002047490968096825
:105D000048710220444909680968887100204249A5
:105D100009680968487340490968096808733E4979
:105D200009680968C8713C49096809688860484879
:105D30003949096809680861014637480068006800
:105D400041610020344909680968886100213248AE
:105D500000680068C161761C02E03EA0FFF7F6FE15
:105D600000240FE02C4909680968103151F824001B
:105D700006F0F4FA07463A460B4621463BA0FFF7E9
:105D8000E5FE641C022CEDDB8EB16022002125486B
:105D9000006802F0CBFF2048006860230021026801
:105DA0002048006802F057FF34A0FFF7CFFEBDE89F
:105DB000F08110B53748006800B110BD364816496B
:105DC00008601D480968086034481349096848603C
:105DD00002F0C2FAFFF75AFFFFF73EFF01202D49FC
:105DE000086000BFE9E710B52A48006800B910BD97
:105DF000602200210B48006802F098FF0648006806
:105E00006023002102680748006802F024FF1BA0FD
:105E1000FFF79CFE00BFEAE7A0000020636F6E66FC
:105E200000000000A4000020EDD701006572723A66
:105E300025732C25640D0A00B44C0120537973207E
:105E4000697320666972737420626F6F740D0A0043
:105E500000002041537973206973206E6F742066AF
:105E60006972737420626F6F740D0A006B5B256436
:105E70005D203D2025660D0A0000000077726974E0
:105E800065206461746120746F20666C61736820A2
:105E90000D0A0000A800002098000020144D0120E9
:105EA000014600BF39480078704710B5384800688F
:105EB000012102681520904710BD2DE9F047FCF73D
:105EC00008FF824606F010FA07460022314B06F022
:105ED00025F9054606F029FA0446B4F5FA6F01D211
:105EE000BDE8F0872C480068201A052800D2F7E7A3
:105EF000294804602648006881681520884700F01A
:105F0000FF092648007810B1012815D108E0B9F141
:105F1000000F04D121480078401C204908700FE090
:105F2000B9F1000F07D000201C4908701C48007808
:105F3000401C1B49087003E000201849087000BF8E
:105F400000BF18480068201AB0F57A7F00D2C7E772
:105F500014480460124800780A2808DA01200B4926
:105F600008701148006881680120884707E0002018
:105F7000064908700C4800688168002088470020A6
:105F8000074908700549087000BFA9E7AC00002068
:105F9000B00100200000F03FB0000020CC00002045
:105FA000B8000020B40000204C0100202DE9F04191
:105FB00094B0444800684021826804A8904707468E
:105FC000002F02DA14B0BDE8F0810598022800D352
:105FD000F8E73D4800684068001D059901EBC101E4
:105FE00001EB410100EB8104049810B1012864D158
:105FF00060E0207828B104F1100134A0FFF7A6FD7D
:1060000057E039A0FFF7A2FD202104F1100005F0B0
:106010008FFF0CAB3CA2202104F1100006F0A6FE7D
:106020000020A0600120E06038490968C868804706
:1060300080461822414604F1340005F060FF3448E0
:106040000068416804F13400884705460E4606980A
:10605000C0EB00108000451946F100062C4800688E
:1060600004F14C02036828463146984728480068E6
:1060700004F13401826827A090472548006804F1A4
:106080004C01826825A0904700202549CDE90001F8
:106090000290059A2348E16800680023D0F804C004
:1060A00004F11000E047E068401CE060012020702F
:1060B00000BF03E00120E07100E000BF00BF00BFAF
:1060C00080E70000DC0B0020A00000206572723A1F
:1060D000736F636B20697320776F726B696E6720D3
:1060E0002C25730D0A0000006E6F20776F726B69AC
:1060F0006E67206F726465722C73746172742063B2
:1061000068617267650D0A0025730000E8010020D0
:10611000CC0A00207374617274000000656E640024
:1061200000005C43C40B00202DE9F04700243B48ED
:1061300000680068407B012801D0BDE8F08738483E
:10614000007810B1012865D11BE0FCF7C2FD814643
:1061500006F0CAF807460022324B05F0DFFF05467D
:1061600006F0E3F8304908602D480078401C2C49BF
:1061700008702D4814222DA1036834A0FFF7E6FC17
:1061800049E03749096848688047FCF7A2FD814625
:1061900006F0AAF807460022224B05F0BFFF05468D
:1061A00006F0C3F8044620480068201A42F2107135
:1061B00088422ED923461C221CA124A0FFF7C6FC2E
:1061C000AFF29B05B5F5203F0AD9022013490968B3
:1061D00009684873212215A122A0FFF7B7FC09E046
:1061E00000200E4909680968487326220FA125A0DE
:1061F000FFF7ACFC1A490968C868804700200749C6
:10620000096809680873FFF7EEFD2648FFF79EFC52
:1062100000BF00E000BF00BF00BF8EE7A00000206D
:10622000D00000200000F03FD40000204150505C1E
:10623000776F726B5C776F726B5F6379636C655FAE
:106240007265626F6F742E630000000025732C2549
:10625000642C6E7469636B3A25640D0A00000000BB
:10626000FC0100202D2D2D2D2D2D2D2D2D2D2D2DF5
:106270002D2D2D2D25732C415050425F72756E6E61
:10628000696E67002D2D2D2D2D2D2D2D2D2D2D2DB4
:106290002D2D2D2D25732C415050415F72756E6E42
:1062A000696E67007CDC010010B5044644B1012C26
:1062B0000DD1FE480068012142681A20904707E08E
:1062C000FA480068012142680320904700E000BFBF
:1062D00000BF10BD10B5044644B1012C0DD1F348E8
:1062E0000068002142681A20904707E0EF480068E4
:1062F000002142680320904700E000BF00BF10BDAE
:106300002DE9F04F89B081464FF0000A002005903A
:1063100009F0FF00E64909684A6806A99047049019
:106320000498002802DA09B0BDE8F08FE14800685F
:106330004068001D09EBC90101EB410100EB81043C
:10634000207800B9EFE7069820B101280AD002288A
:106350007FD161E0012020714A46D749D7A0FFF7DD
:10636000F5FB77E0079805F0BAFF0646089805F0B8
:10637000B6FF0746D64905F061FE0546314605F0F1
:106380008FFE0590CB4800680068103050F8291047
:10639000059805F053FE6066606E05F0DFFFCDE9FD
:1063A00000014A46C449CBA0079BFFF7CFFBFCF78F
:1063B00090FC834605F098FF07460022CD4B05F080
:1063C000ADFE054605F0B1FF8246206BAAEB000A40
:1063D0004FF47A70BAFBF0F03C21B0FBF1FA606E3A
:1063E00005F0BCFF05460022C34B05F009FF074638
:1063F00005F0C7FF8346C149606E8DE80304C048BD
:10640000E16800685B464A46456804F11000A84709
:10641000E068401CE0601DE0A06808990844A060A6
:10642000089805F05CFF0646A24800680068103036
:1064300050F82910304605F001FE054605F061FFD1
:10644000A0664A469C49AFA0089BFFF77FFB01E08E
:10645000FFE700BF00BF00BF65E72DE9F04F87B041
:106460008146944800684068001D09EBC90101EBB2
:10647000410100EB8104FCF72CFC019005F034FF96
:1064800000229C4BCDE9020105F048FECDE9040154
:1064900005F04BFF824600200690834600BF00BFF8
:1064A0006078E12874D00BDC022839D003DC80B19D
:1064B00001286ED11CE003285BD0E028F9D1B6E0BA
:1064C000E22867D0E32875D0E42874D0E528F0D11D
:1064D000B2E04846FFF7FEFE904800680021C2681F
:1064E000484690476078401C60700020A0703AE1F8
:1064F0004846FFF705FF6F4800680068807928B9B3
:106500006078401C60700020A0702CE105F016F847
:10651000012804D16078401C60700020A07022E146
:106520004846FFF7EDFE207800B91CE14846FFF72A
:10653000BBFE7A4800680121C26848469047FCF7D4
:10654000C8FB019005F0D0FE00226A4BCDE90201A4
:1065500005F0E4FDCDE9040105F0E7FE2063607875
:10656000401C60700020A07020716071A071E0710B
:10657000F9E04846FFF7C4FE206BAAEB000042F2A8
:106580001071884207D9207938B1E3206070EAE0C1
:106590004EE0E7E04DE000202071206BAAEB000008
:1065A0005F49884208D9A06EB0F5617F04D2E1202E
:1065B0006070D8E03EE03EE0206BAAEB000042F2C3
:1065C0001071884207D95749606E05F0F7FE02D274
:1065D000E2206070C7E054480068816848468847F8
:1065E000012802D1E4206070BDE0E079012802D1E9
:1065F000E5206070B7E04D490968C868804705909C
:106600004B480068416805988847074688464848CF
:106610000068416804F14C00884705460E46E81BB7
:1066200076EB080102D2E02060709CE09BE000BFA6
:1066300000BF00BF00BF00BF6078A0F1E002494684
:106640003CA0FFF783FA00202070A06805F047FE09
:106650000490184800680068103050F82910049819
:1066600005F0ECFC1A49059005F01AFD0690FCF7C0
:1066700030FB019005F038FE00221E4BCDE90201EF
:1066800005F04CFDCDE9040105F04FFE8346206B7B
:10669000ABEB000B4FF47A70BBFBF0F03C21B0FB8E
:1066A000F1FB6078A0F1E00315484FE0B001002055
:1066B00084010020A0000020FFD7010025732825B9
:1066C0006429203A20736F636B5F6F75740D0A0045
:1066D00000007A44257328256429203A20637963D1
:1066E0005F70756C3A25642020207077723A2566B9
:1066F0000D0A00000000F03F00806B4000005C438A
:10670000C40B0020257328256429203A206D696E6A
:106710005F70756C3A25640D0A0000004C01002082
:10672000C0D4010000004844C8000020E801002057
:10673000CC0A00202D2D2D2D2D3E3A2825642965CB
:1067400076656E743A25642C0D0A000000685A467E
:10675000D0F808C004F110000699E04700206070EE
:10676000A07000E000BF00BF07B0BDE8F08F10B51B
:10677000002404E02046FFF770FE601CC4B2022C27
:10678000F8DB10BD2DE9FC4781468A46F549F6A0A5
:10679000FFF7DCF9F648006800680168F5A0FFF72C
:1067A000D5F9F348006800680179F6A0FFF7CEF943
:1067B000EF48006800684179F6A0FFF7C7F9EC4898
:1067C000006800688179F7A0FFF7C0F9E848006821
:1067D0000068017BF7A0FFF7B9F9E5480068006899
:1067E000417BFAA0FFF7B2F9E14800680068C1797F
:1067F000FAA0FFF7ABF9DE48006800688168FCA0EA
:10680000FFF7A4F900241CE0D94909680968183188
:1068100051F8240005F0A2FD05460E46D44909684A
:106820000968103151F8240005F098FD07463A46F2
:106830000B462146F3A0CDE90056FFF787F9601C0F
:10684000C4B2022CE0DBCA480068006800F12001F5
:10685000F2A0FFF77BF9C6480068006800F140012C
:10686000F2A0FFF773F90020BDE8FC872DE9F0479F
:1068700005460C46F149BCA0FFF768F90026B14671
:10688000B246EFA1606805F077FB00B91AE0EDA110
:10689000606805F071FB00B943E0ECA1606805F0A9
:1068A0006BFB00B960E0EAA1606805F065FB00B928
:1068B00081E0E9A1606805F05FFB00B9B8E0002065
:1068C000BDE8F087052D05D0E5A0FFF73FF96FF093
:1068D0000100F5E7A06805F097FB0646022E02DBF3
:1068E000E3A0FFF733F9E06806F005FF074605F07F
:1068F00048FD8146206906F0FEFE074605F041FD91
:1069000082469B4800680068103040F826909848FE
:1069100000680068183040F826A0FFF764FA0020ED
:10692000CEE7032D05D0CEA0FFF710F96FF00100E0
:10693000C6E7A06805F068FB0646022E02DBCCA085
:10694000FFF704F9CE498A4800680068103040F823
:1069500026100021864800680068183040F826108C
:10696000FFF741FA0020ABE7032D05D0BCA0FFF7ED
:10697000EDF86FF00100A3E7C2A1A06805F0FCFAF2
:1069800028B902207A490968096888710FE0BFA117
:10699000A06805F0F1FA28B901207549096809686D
:1069A000887104E000207249096809688871FFF75E
:1069B0001AFA002084E7042D05D0A9A0FFF7C6F835
:1069C0006FF001007CE76A490968096801F120005D
:1069D000202105F0ADFA66490968096801F1400017
:1069E000202105F0A5FA6249A3680968096801F148
:1069F0002000A8A2202106F0B9F95D49E3680968E2
:106A0000096801F14000A3A2202106F0AFF958481F
:106A10000068006800F1400255480068006800F115
:106A200020019DA0FFF792F8FFF7DDF9002047E76E
:106A3000022D05D08AA0FFF789F86FF001003FE72B
:106A400000204B49096809680860FFF7CCF998A055
:106A5000FFF77CF80021084600F0CDF900202FE771
:106A600070B504460D469A498AA0FFF76FF80120D9
:106A70003F49096809684871FFF7B5F995A0FFF724
:106A800065F898A0FFF762F80021084600F0B3F916
:106A9000002070BD2DE9F0438DB006460D469849A3
:106AA00031A0FFF753F84FF000090027B8463048EF
:106AB00000680068807918B1781E0DB0BDE8F083D9
:106AC000042E05D066A0FFF741F86FF00100F4E74F
:106AD0008C490968C86880470446206828B98AA09C
:106AE000FFF734F86FF00100E7E7D4E90223D4E9B7
:106AF0000410CDE90123CDE903106068009086A25F
:106B0000202105A8236806F031F9686805F07CFAB1
:106B10000746022F02D36FF00200CEE785A1A868D6
:106B200005F02AFA30B94FF00009E86805F06CFA70
:106B3000804608E081A1A86805F01EFA18B94FF058
:106B400001094FF000087F48006805AB424639460E
:106B5000D0F804C04846E04705A8009043463946AF
:106B6000F2E0000011D8010025730D0A00000000BA
:106B7000A0000020626F6F74636F64653A2530383F
:106B8000780D0A00626F6F745F6170703A2530385B
:106B9000780D0A006F74615F7265713A253038783C
:106BA0000D0A00006E65745F6D6F64653A253038BC
:106BB000780D0A00665F617474656D705F7570644E
:106BC0006174613A25640D0A000000006170705F15
:106BD0006D6F64653A25640D0A000000646F776E7E
:106BE0006C6F61645F75707365743A25640D0A009B
:106BF000646F776E6C6F61645F616464723A256480
:106C00000D0A00005B25645D2079203D2025662A61
:106C100078202B20282566290D0A000075736572DF
:106C20005F6E616D653A25730D0A000075736572BC
:106C30005F7077643A25730D0A0000001ED80100CA
:106C40006B6200007273745F6B6200006E657400AB
:106C50007A645F757365720064656661756C740053
:106C6000757361676520657272210D0A000000006E
:106C70006572723A736F636B206E756D200D0A003A
:106C80000000204161697237383000006169723755
:106C90003234000025730000636F6E666967207AE6
:106CA000645F757365723A25732025730D0A0000C1
:106CB000636F6E6669672064656661756C742073C6
:106CC000657420737563636573730D0A00000000BB
:106CD00029D801006F74615F726571203D20310D0C
:106CE0000A00000073797374656D207265626F6FBE
:106CF00074206166746572203173200D0A000000F3
:106D000031D80100E801002072746320696E697453
:106D1000206661696C0D0A002530346425303264C8
:106D200025303264253032642530326425303264B7
:106D3000000000006F70656E00000000636C6F73F0
:106D400065000000DC0B002002A0AA68FEF7FEFE32
:106D50000020B2E66374726C2D3E736F636B5B252B
:106D6000645D2025732D3E2564206D696E202064AE
:106D700064683A25730D0A0070B505460E468349CE
:106D800083A0FEF7E3FE002406E056F82420214607
:106D900081A0FEF7DBFE641CAC42F6DB002070BD78
:106DA00070B504460D46804979A0FEF7CFFE00205D
:106DB00070BD082070477D4870472DE9F0410646B8
:106DC0000F467B4972A0FEF7C1FEFFF7F4FF0546B0
:106DD000002406E055F83420214676A0FEF7B6FEE2
:106DE000641CFFF7E6FFA042F4DC75A0FEF7AEFEE0
:106DF0000020BDE8F08170B505460E4600247149BB
:106E000063A0FEF7A3FE704800680168642088470D
:106E10006D49096888688047641E05E000BF4FF42B
:106E20007A70FBF7A7FC00BF201EA4F10104F5D186
:106E300070BD2DE9F0418AB0002500260027634887
:106E4000006810B101287DD10FE061A0FEF77EFE41
:106E50008021604805F06CF800205F4908605B48BD
:106E60000068401C594908608CE05A485A49096832
:106E700045185A48006801222946036900209847AE
:106E8000064606B97EE0544800683044524908601E
:106E900008460068802803DB00204C49086071E048
:106EA00028780A2828D004DC082809D0092861D1CC
:106EB00004E00D2828D07F285CD100E05FE000BF0F
:106EC00045480068401E4449086000214148424A44
:106ED000126881544048006848B13F480068401E2D
:106EE0003D49086000203B493B4A126888543949B3
:106EF0003BA0FEF72BFE42E037480068012802D194
:106F00000020354908603AE03748006837A36A46F0
:106F1000304904680A20A04707463FB3002420E018
:106F2000224951F8340005F020F880461F4850F8F7
:106F300034104246274805F036F888B920A0FEF7FD
:106F400005FE00E01DE0194800EBC40069464268F8
:106F50003846904700201D4908600AB0BDE8F0811E
:106F6000641C082CDCD323A0FEF7F0FD0020174999
:106F7000086004E0297822A0FEF7E8FD00BF00BF0A
:106F800000E000BF00BF00BFE7E700003AD8010003
:106F900025730D0A00000000617267765B25645D51
:106FA0003A25730D0A00000043D80100D8000020E4
:106FB0004DD801000925643A25730D0A0000000030
:106FC0000D0A000056D80100FC0100201C01002021
:106FD0000D0A3E00F04D012018010020D0010020D4
:106FE0000D0A3E2573000000E40A002020090A0D66
:106FF000000000000D0A09756E6B6E6F77000000CF
:10700000256300005D49087070475C49487070470F
:107010005A4A921C1154704710B5594800680168CB
:1070200058488847002004E0FF21574A1154411C6A
:10703000C8B20228F8D35248006802225249436875
:10704000504898474E48006881684E48884710BDB0
:1070500030B50A460346C51700EB5575C5F3C701A1
:10706000C51700EB5575ED10A0EBC505ECB23AB9AC
:10707000454B5B5C0125A540AB43434D6B5409E098
:10708000012A07D1404B5D5C0123A3401D43EBB2B5
:107090003D4D6B5430BD10B53948006802223A4965
:1070A00043683848984736480068816835488847BB
:1070B00010BD70B504460E46002508E0C4EBC401BF
:1070C000324A1144485D0121FFF7C2FF6D1C072DB4
:1070D000F4DB1EB900202E49085519E02C48005D4C
:1070E000401C2B4908550846005D072801DD00209B
:1070F0000855002508E0C4EBC401244A1144485D4A
:107100000021FFF7A5FF6D1C2148005DA842F2DCBD
:1071100070BD2DE9F0470546FBF7DBFD044605F0A1
:10712000E3F8804600221B4B04F0F8FF064605F00A
:10713000FCF8824618480068AAEB0000A84201D279
:10714000BDE8F0871448C0F800A00C480178002082
:10715000FFF77EFF094841780F20FFF779FF0024F1
:1071600006E00648801C015D2046FFF7A2FF641C74
:10717000022CF6DBFFF78FFF00BFE1E724010020C0
:10718000F40A002020010020280100202A0100200C
:10719000500100200000F03F540100202DE9F0478D
:1071A00081464C462078022801DBBDE8F087207834
:1071B0007A4951F82000401C2178784A42F8210091
:1071C000FBF78AFD824605F08FF807460022744BD4
:1071D00004F0A4FF054605F0A8F82178714A42F8AA
:1071E000210000BFE1E770B500242AE000220C2155
:1071F0000520FAF7A7FC6C4941F824006B48005DB4
:107200006B4901EB44014870694901F81440674932
:10721000085D684909680A6801219047644901EBE3
:1072200044036249085D63490968634ACD680121E6
:10723000A8475E49085D5F4909684A69012190478E
:10724000641C022CD2DB70BD2DE9FE4304460E46C1
:1072500017469846022C01DBBDE8FE830197009695
:10726000CDF80880504951F82400002301226946D6
:10727000FAF710FD0546012D04D022464F4950A0D3
:10728000FEF764FC00BFE7E72DE9F04104460E4637
:107290003746022C03DB4FF0FF30BDE8F081424956
:1072A00051F82400002301223946FAF73FFE054633
:1072B000012D01D10020F0E74FF0FF30EDE72DE97F
:1072C000F0470024FBF705FD824605F00DF8074660
:1072D0000022334B04F022FF054605F026F88146D4
