:020000040000FA
:1000000058510120512300005523000057230000C0
:10001000592300005B2300005D2300000000000066
:10002000000000000000000000000000610100006E
:100030006123000000000000A5010000651700001A
:1000400067230000692300006B2300006D2300007C
:100050006F2300007123000073230000752300004C
:1000600077230000792300007B2300007D2300001C
:100070007F230000812300008323000085230000EC
:1000800087230000892300008B2300008D230000BC
:100090008F2300009123000093230000952300008C
:1000A00097230000992300009B2300009D2300005C
:1000B0009F230000A1230000A3230000A52300002C
:1000C000A7230000A9230000AB230000AD230000FC
:1000D000AF230000B1230000B3230000B5230000CC
:1000E000B7230000B9230000BB230000000000007C
:1000F000BD230000BF230000C1230000C323000074
:10010000C5230000C7230000C9230000CB23000043
:10011000CD230000CF230000D1230000D323000013
:10012000D5230000D7230000D9230000DB230000E3
:10013000DD230000DF230000E1230000E3230000B3
:10014000E5230000E7230000DFF810D002F0A2FC56
:100150000048004739020000AFF3008058510120E9
:10016000224B19680868B0E8F00F80F30988BFF3E4
:100170006F8F4FF0000080F311884EF00D0E704726
:100180000000000006480068006880F3088862B636
:1001900061B6BFF34F8FBFF36F8F00DF00BF00BFAB
:1001A00008ED00E0EFF30980BFF36F8F0F4B1A6883
:1001B00020E9F00F106008B54FF0800080F311883F
:1001C000BFF34F8FBFF36F8F00F06EFE4FF0000054
:1001D00080F31188BDE8084019680868B0E8F00F9E
:1001E00080F30988BFF36F8F704700BF00000020C5
:1001F000EFF30580704700001FB501236422022140
:10020000002001F07DFD002364220321184601F047
:1002100077FD4FF4E130009000208DF808008DF854
:100220000A008DF80C00124C6946204601F079FB5B
:10023000204601F04CFC1FBD10B502F03FF8FFF75F
:10024000DBFF0CA002F0C6FC02F09EF900F03DFFBF
:10025000002010BD70B50546054C204601F052FC4B
:100260000028FAD12946204601F036FC284670BD08
:100270000000024073797374656D2072756E2E2EC6
:100280002E0D0A0000F1080141604FF0FF3282603C
:10029000C160016100210160704700210161704768
:1002A00042684A6093688B60936859609160086106
:1002B0000168491C0160704730B50C68621C02D0AF
:1002C00000F1080202E0026904E01A4653681D6862
:1002D000A542FAD953684B6099608A605160086101
:1002E0000168491C016030BD0169D0E901329A60A2
:1002F000D0E901235A604A68824201D182684A608B
:10030000002202610868401E0860704770B504460C
:100310000D4601F012FAD4E90F12206801FB020029
:1003200060600020A0632068A060E06B226C216800
:10033000401E00FB0210E0604FF0FF3084F84400E4
:1003400084F8450004F110004DB1FFF79BFF04F164
:100350002400FFF797FF01F0FCF9012070BD21692F
:100360000029F8D000F015FF0028F4D0FC494FF028
:1003700080500860BFF34F8FBFF36F8FEBE70346EA
:100380000098002904D00260C36301640121BDE725
:100390000060F9E7F8B506460D461746002D10D067
:1003A00006FB05F0483001F042FA04463CB104F186
:1003B00048023B46294630460094FFF7E0FF2046BE
:1003C000F8BD0020EEE72DE9F041044601F0B5F953
:1003D00094F9455004F1240609E0606A48B13046BA
:1003E00000F0D7FE08B100F052FF6D1E6DB2002D77
:1003F000F3DC4FF0FF3684F8456001F0AAF901F014
:100400009CF994F9445004F1100709E0206948B1BF
:10041000384600F0BEFE08B100F039FF6D1E6DB227
:10042000002DF3DC84F84460BDE8F04101F091B99F
:1004300010B5044601F081F9A06BE16B884201D14F
:10044000012400E0002401F084F9204610BD2DE9CC
:10045000F041044617460026A56B226C002A10D0F6
:10046000C7B1E06802F0F2F8E168206C091AE160B7
:100470002268914202D26168081AE060022F16D009
:1004800017E02068A8B9606800F058FF0646002011
:1004900060600EE0A06802F0D9F8216CA068084402
:1004A000A0606168884204D32068A06001E005B1C3
:1004B0006D1E6D1CA5633046BDE8F0812DE9FF4738
:1004C00082B004468A4699460025A8464FF08056D9
:1004D000A34F01F032F9A06BE16B884206D3B9F16A
:1004E000020F03D00498F8B115B325E04A465146EF
:1004F0002046FFF7ACFF616A51B104F1240000F01F
:1005000048FE58B13E60BFF34F8FBFF36F8F05E0D9
:1005100020B13E60BFF34F8FBFF36F8F01F019F929
:10052000012006B0BDE8F08701F013F90020F8E7DC
:10053000684600F081FE012501F00BF900F0FAFB9E
:1005400001F0FBF894F94400401C01D184F8448088
:1005500094F94500401C01D184F8458001F0F9F878
:1005600004A9684600F06EFE30B12046FFF72BFF6D
:1005700000F051FB0020D4E72046FFF759FF88B177
:1005800004F11000049900F0E8FD2046FFF71BFF7E
:1005900000F041FB00289CD13E60BFF34F8FBFF3BA
:1005A0006F8F96E72046FFF70EFF00F034FB90E7D1
:1005B000002807D0002141600160C16000231A4675
:1005C00019467BE7704710B5024600210120FFF76E
:1005D000E1FE04462046FFF7EBFF204610BD2DE963
:1005E000F041174604461A468020EFF3118680F347
:1005F0001188BFF34F8FBFF36F8FA06BE36B9842EF
:1006000005D3022A03D0002086F3118854E794F919
:1006100045502046FFF71BFF681C04D06D1C84F872
:1006200045500120F0E7606A0028FAD004F1240068
:1006300000F0AFFD0028F4D0002FF2D00120386088
:10064000EFE770B50D468021EFF3118481F3118837
:10065000BFF34F8FBFF36F8F836BC16B994217D975
:1006600090F945205B1C8363511C04D0521C80F818
:10067000452001200DE0416A0029FAD0243000F025
:1006800088FD0028F5D0002DF3D001202860F0E788
:10069000002084F3118870BD10B5044601F04DF8B8
:1006A000A06B20B1002401F054F8204610BD0124B5
:1006B000F9E730B40B46026C002A0CD0C168114433
:1006C000C1604468A14201D30168C160C16830BC07
:1006D000184601F0BBBF30BC70472DE9FF4F83B017
:1006E00004468B469A460026B1464FF08057DFF805
:1006F000708001F022F8A56BA5B3E6685946204644
:10070000FFF7D7FFBAF1000F13D0E660606A50B16F
:1007100004F1240000F03DFD28B1C8F80070BFF3DB
:100720004F8FBFF36F8F01F014F8012007B0BDE8C1
:10073000F08F6D1EA563206810B900F03DFE60606B
:1007400020690028EFD004F1100000F022FD0028FD
:10075000E9D0C8F80070BFF34F8FBFF36F8FE2E7A7
:1007600004ED00E0FFE7059808B126B107E000F0CE
:10077000F0FF0020DAE701A800F05EFD012600F09E
:10078000E8FF00F0D7FA00F0D8FF94F94400401CCD
:1007900001D184F8449094F94500401C01D184F8BB
:1007A000459000F0D6FF05A901A800F04BFD58B117
:1007B0002046FFF708FE00F02EFA2046FFF76CFFF8
:1007C000002896D00020B1E72046FFF765FFE0B192
:1007D000206830B900F0B1FF606800F06FFD00F0F4
:1007E000B8FF04F12400059900F0B7FC2046FFF79C
:1007F000EAFD00F010FA00287FF47BAFC8F8007023
:10080000BFF34F8FBFF36F8F73E72046FFF7DBFD1A
:1008100000F001FA6DE72DE9F04104469046802092
:10082000EFF3118780F31188BFF34F8FBFF36F8F02
:10083000A66B002E1DD094F944502046FFF739FFD7
:10084000761EA663681C04D06D1C84F844500120F9
:1008500010E020690028FAD004F1100000F099FCA3
:100860000028F4D0B8F1000FF1D00120C8F8000042
:10087000EDE7002087F311881EE670B5044680205E
:10088000EFF3118580F31188BFF34F8FBFF36F8FA4
:10089000A06B002806D0E6682046FFF70AFFE66056
:1008A000012000E0002085F3118870BD10B50446DA
:1008B00000F043FFA46B00F04CFF204610BD10B5C4
:1008C000044600F03AFFD4E90E10441A00F041FF4C
:1008D000204610BD806B704700F0F3BF806B00288E
:1008E00001D00020704701207047816BC06B8142AE
:1008F00001D10120704700207047000070B500242E
:10090000FE4D04EB840005EB8000FFF7BBFC641C8C
:10091000052CF6D3F9486430FFF7B4FCF74878307B
:10092000FFF7B0FCF5488C30FFF7ACFCF348A03083
:10093000FFF7A8FCF148B430FFF7A4FCEF49F048FA
:10094000643141631431816370BD70B5044600F0B9
:10095000F4FEEB4DA868401CA860286810B16869D7
:1009600038B10CE02C60A868012808D1FFF7C6FF59
:1009700005E02868E16AC06A884200D82C60686A8D
:10098000401C6862E06A01212A69814011432961A3
:10099000DA4900EB800001EB8000211DFFF780FCAD
:1009A00000F0D7FE686900280CD02868E16AC06AA8
:1009B000884207D2D3494FF080500860BFF34F8F71
:1009C000BFF36F8F70BD2DE9F0478146DDE9085711
:1009D0000A9C0E4690469A464FEA8801A522206B53
:1009E00001F046FE206BA8F1010800EB880020F022
:1009F000070800202218315C82F83410315C11B1F4
:100A0000401C1028F6D3002684F84360052D00D33F
:100A10000425E5626564A664201DFFF73EFC04F131
:100A20001800FFF73AFC2461C5F10500A06164627B
:100A3000E66484F8506052464946404600F056FE4F
:100A40002060002F00D03C60BDE8F0872DE9FF5FFB
:100A50008146DDE90E788A4616469B46B00000F0D6
:100A6000E6FE054628000AD0542000F0E0FE0446C9
:100A70000CB1256304E0284600F023FF00E00024C9
:100A80008CB10020CDE90240CDE900785B463246CA
:100A900051464846FFF797FF2046FFF756FF0120D3
:100AA00004B0BDE8F09F4FF0FF30F9E79448416B88
:100AB0000968002905D0416BC968C9684968816225
:100AC00070474FF0FF318162704710B50446206BCC
:100AD00000F0F7FE2046BDE8104000F0F2BE70B511
:100AE000044600F02AFE864D04B92C68201DFFF74D
:100AF000FBFB58B9E06A814A00EB800152F82110F3
:100B000021B901218140286988432861A06A18B170
:100B100004F11800FFF7E8FB686A401C6862286867
:100B2000844208D17548211DA030FFF7B9FB6868E1
:100B3000401C686007E0A868401EA8602046FFF7D8
:100B4000C4FFFFF7B3FF00F004FE686900280AD075
:100B50002868844207D16B494FF080500860BFF38A
:100B60004F8FBFF36F8F70BD2DE9F0410026644FAA
:100B7000386B002808D0B869401CB861F86900B12A
:100B800001263046BDE8F081FD686D1CFD6045B969
:100B9000786BB96B7963B863386A401C3862FFF7C9
:100BA00085FFB86ADFF8548185420DD3786B006801
:100BB00038B1786BC068C468606885420ED2B8628C
:100BC00002E04FF0FF30B8623868C06A00EB800086
:100BD00058F820000128D1D90126CFE7201DFFF7C2
:100BE00083FBA06A18B104F11800FFF77DFBE06AEF
:100BF00001213A6981401143396100EB800008EB23
:100C00008000211DFFF74CFBE06A3968C96A884201
:100C1000CCD30126CAE72DE9F0410024002700F0DB
:100C20008CFD374D286B401E2863286BF0BBA868ED
:100C3000E0B3DFF8C880012608F18C081DE0D8F881
:100C40000C00C46804F11800FFF74EFB201DFFF7ED
:100C50004BFBE06A2A6906FA00F111432961274932
:100C600000EB800001EB8000211DFFF719FBE06A1B
:100C70002968C96A884200D3EE61D8F800000028CC
:100C8000DDD10CB1FFF712FFAC6944B1FFF76CFF87
:100C900000B1EE61641E002CF8D10020A861E86963
:100CA00020B1012717493807086000E003E0BFF3CF
:100CB0004F8FBFF36F8F00F04CFD384662E72DE990
:100CC000F04104460F460E4EF5683068001DFFF7F0
:100CD0000BFB38B9306890F82C100120884031693E
:100CE00081433161601C08D13FB13168BDE8F041FA
:100CF0000248091DB430FFF7D3BA05E08C0000208C
:100D00000000002004ED00E02C4430684460AC4258
:100D100006D23168B06B091DBDE8F041FFF7CCBACF
:100D20003168706B091DFFF7C7FAB06A844200D2C0
:100D3000B46227E7FB48016B491C0163704770B53B
:100D400005460E460023FFF7F5FFF648C2682C68FB
:100D5000A119944205D98C4208D9914206D90123A0
:100D600004E08C4201D8914200D9012329601BB1D3
:100D7000881A0021FFF7A3FFFFF74DFF002807D1D6
:100D8000E9494FF080500860BFF34F8FBFF36F8F7A
:100D900070BD10B502460020002A07D0FFF7CAFF39
:100DA00000211046FFF78BFFFFF735FF002807D122
:100DB000DD494FF080500860BFF34F8FBFF36F8F56
:100DC00010BD10B5044600F0B8FC0CB9D548046855
:100DD000E46A00F0BEFC204610BD8022EFF31181D2
:100DE00082F31188BFF34F8FBFF36F8F002801D1BB
:100DF000CC480068C06A81F3118870472DE9F04142
:100E000004460D460026052D00D3042500F095FC70
:100E1000C44F04B93C68606CA84241D0854208D9EF
:100E200039688C4209D03968C96AA94205D80126B7
:100E300003E039688C4200D10126D4F82C8040456B
:100E400000D1E5626564A069002802DBC5F10500F8
:100E5000A061B64D08EB8801606905EB810188420D
:100E600015D1201DFFF740FA012120B93A6901FA96
:100E700008F082433A61E06A3A698140114339617E
:100E800000EB800005EB8000211DFFF709FA3EB161
:100E9000A5494FF080500860BFF34F8FBFF36F8FAD
:100EA000BDE8F04100F055BC9E4A106B002802D00E
:100EB0000120D06170470020D0611069B0FA80F045
:100EC000C0F11F00994900EB800001EB80004168F0
:100ED0004968416000F10803994201D149684160C5
:100EE0004068C0681060704770B5044600F025FC8B
:100EF0008C4D04B92C68201DFFF7F6F958B9E06A4B
:100F00008A4A00EB800152F8211021B90121814069
:100F1000286988432861A06A18B104F11800FFF716
:100F2000E3F98248211DB430FFF7BAF900F011FC53
:100F3000686928B100F001FCFFF7B8FD00F009FC7A
:100F40002868844209D1686940B177494FF08050E0
:100F50000860BFF34F8FBFF36F8F70BD7348A968F0
:100F6000B4300068884202D10020286070BDBDE81E
:100F7000704099E700216D4B4269B4339A4206D123
:100F8000806AA3F12802904201D000B901210846ED
:100F9000704770B50446002C2BD0624D28688442FF
:100FA00027D000F0CAFB2046FFF7E4FFE8B1201D80
:100FB000FFF79AF9E06A01212A698140114329610A
:100FC0005A4900EB800001EB8000211DFFF768F912
:100FD000E06A2968C96A884207D353494FF08050B4
:100FE0000860BFF34F8FBFF36F8FBDE8704000F014
:100FF000B0BB70BD2DE9F041044600268020EFF320
:10100000118580F31188BFF34F8FBFF36F8F204698
:10101000FFF7B0FF40B1434F386B48B1434804F18C
:1010200018018C30FFF73CF985F311883046A9E5AB
:10103000E06A3968C96A884200D30126201DFFF79B
:1010400053F9E06A01213A69814011433961374916
:1010500000EB800001EB8000211DFFF721F9E3E7A1
:1010600070B5324E2F4DA0361CE0FFF763FE30689E
:1010700020B10024FFF7CFFDA4B901E00124F9E776
:1010800000F05BFBF068C468201DFFF72DF9A8682D
:10109000401EA8606868401E686000F05AFB204649
:1010A000FFF713FD68680028DFD170BD1F4E4FF0B9
:1010B00080541D4DFFF7D4FF30680128FAD92C6009
:1010C000BFF34F8FBFF36F8FF4E71CB515480024B3
:1010D0002C30CDE900402346802215A11648FFF7A9
:1010E000B5FC012811D1802080F31188BFF34F8F08
:1010F000BFF36F8F0B484FF0FF31816201214161D7
:10110000C460BDE81C4000F004BB1CBD802080F31F
:101110001188BFF34F8FBFF36F8F024900204861E2
:1011200000F00ABB0000002004ED00E08C0000206D
:1011300049444C4500000000AD100000FE48C06866
:101140007047FD48C0687047FB48806870470028BA
:1011500001D1F94800683430704710B50C46F649A3
:1011600009681831FFF7A8F82046BDE810400121B2
:10117000A5E570B5154641F00043EF490C68A36141
:1011800009681831FFF78CF82846BDE87040012146
:1011900095E52DE9F041C068C46804F118000746E0
:1011A000FFF7A2F8E44D2A6B01265AB13946E3480D
:1011B000FFF776F8E06A2968C96A884215D90120E4
:1011C000EE61DFE4201DFFF78FF8E06A2A6906FA76
:1011D00000F111432961D94900EB80008C3901EB02
:1011E0008000211DFFF75CF8E4E70020CAE470B539
:1011F00041F000410160C468FFF776F8201DFFF759
:1012000073F8CD4DE06A01262A6906FA00F1114310
:101210002961CA4900EB80008C3901EB8000211D57
:10122000FFF73EF8E06A2968C96A884202D90120BE
:10123000EE6170BD002070BDBF490A6A0260C968D6
:101240004160704770B504460D4600F076FABA4921
:10125000C8682A68531C08D02368096A8B4206D0E4
:101260006168814203D801240DE000240BE061682D
:10127000401A904206D2101A28602046FFF7DCFF81
:10128000002400E0012400F064FA204670BDAA4961
:101290000120C8617047002101E0401C491C027810
:1012A000A52AFAD0880880B27047002801D1A24848
:1012B0000068006BEFE7A0480068704770B504460F
:1012C00000283AD09C4DE06A2968C96A884234D225
:1012D000A069002804DB2868C06AC0F10500A0618D
:1012E000E06A964E00EB80008C3E616906EB800060
:1012F00081421FD1201DFEF7F7FF012150B9E06A9E
:1013000000EB800256F8222022B92A6901FA00F087
:1013100082432A612868C06AE0622A6981401143D9
:10132000296100EB800006EB8000211DBDE87040C4
:10133000FEF7B6BF2868C06AE06270BD70B50446AB
:101340000020002C2DD0A16C491EA164636CE26AC0
:101350009A4226D0002924D1201DFEF7C5FF774AE6
:1013600075498C3A012350B9E06A00EB800552F8C8
:10137000255025B90D6903FA00F085430D61606CB5
:10138000E062C0F10500A061E06A0D6983402B4373
:101390000B6100EB800002EB8000211DFEF780FF57
:1013A000012070BD6449086880690A680968D26ACA
:1013B000C2F105028A6170475F490868002803D0BE
:1013C0000868826C521C82640868704770B50646D3
:1013D0000C4600F0B2F9584D2868C06C80B92A68F4
:1013E000012082F850005CB101212046FFF767FC24
:1013F00053494FF080500860BFF34F8FBFF36F8F9A
:1014000000F0A7F900F099F92868C46C002034B105
:1014100016B12968C86402E02A68611ED16429688F
:1014200081F8500000F095F9204670BD2DE9F04795
:1014300081460F461646984600F07FF93E4D2868D3
:1014400090F85000022817D02C68E06C20EA0900C0
:10145000E0642968012081F85000B8F1000F0BD03A
:1014600001214046FFF72BFC35494FF080500860C2
:10147000BFF34F8FBFF36F8F00F06BF900F05DF992
:1014800016B12868C06C3060286890F850000128B8
:101490000DD02868C16CB943C164012429680020BB
:1014A00081F8500000F055F92046BDE8F08700248F
:1014B000F4E72DE9F04104460D4690461F4601260B
:1014C00000F03BF90FB1E06C386094F85000022155
:1014D00084F85010B8F1050F13D2DFE808F01203BA
:1014E000070B0D00E16C2943E1640AE0E16C491C43
:1014F000E16406E0E56404E0022801D0E56400E070
:101500000026012826D1201DFEF7EEFE0A4DE06AD6
:1015100001212A69814011432961084900EB8000BB
:101520008C3901EB8000211DFEF7BAFEE06A2968C4
:10153000C96A88420ED905E0000000201801002089
:1015400004ED00E062494FF080500860BFF34F8F18
:10155000BFF36F8F00F0FDF8304668E52DE9F047E6
:101560000446089F01268020EFF3118580F311883F
:10157000BFF34F8FBFF36F8F002B01D0E06C18606B
:1015800094F85000022384F85030052A13D2DFE883
:1015900002F01203070B0D00E26C0A43E2640AE05A
:1015A000E16C491CE16406E0E16404E0022801D03A
:1015B000E16400E0002601282CD1DFF81881D8F87A
:1015C00030004FF0010970B104F118014248FEF7F4
:1015D00067FEE06AD8F80010C96A88421AD9BFB11C
:1015E000C7F8009016E0201DFEF77EFEE06AD8F8EE
:1015F000102009FA00F11143C8F8101000EB800127
:1016000035488C3800EB8100211DFEF749FEE0E7EC
:10161000C8F81C9085F31188304646E72DE9F04163
:10162000044688468020EFF3118780F31188BFF3CA
:101630004F8FBFF36F8F94F85010022084F8500042
:10164000E06C401CE064012927D1224D286B012663
:1016500078B104F118012048FEF722FEE06A2968FB
:10166000C96A884219D9B8F1000F15D0C8F80060CE
:1016700013E0201DFEF738FEE06A2A6906FA00F141
:1016800011432961144900EB80008C3901EB800083
:10169000211DFEF705FEE1E7EE6187F31188C6E440
:1016A00010B500280BD0044600F047F894F850001D
:1016B000022807D0002400F04CF8204610BD054851
:1016C0000468F1E7002084F850000124F3E70000EB
:1016D00004ED00E00000002018010020802080F3CD
:1016E0001188BFF34F8FBFF36F8FFEE720384FF0A5
:1016F0008073C36121F0010181612449416140F897
:10170000202970474FF0E020214941610721016104
:10171000704710B51F48016841F47F0101600168FE
:1017200041F07F410160FFF7EDFF1B490020086099
:10173000FEF728FD002010BD7047802080F311883F
:10174000BFF34F8FBFF36F8F13480168491C0160CF
:10175000704711490868401E0860002801D180F3D5
:101760001188704710B5802080F31188BFF34F8F28
:10177000BFF36F8FFFF7F8F920B106494FF08050A3
:101780001C390860002080F3118810BDDD160000B0
:10179000FFAF010020ED00E03C00002030B55C49C7
:1017A00000E011460A688242FBD34B685C18844211
:1017B00003D140681844486008460D6844682318FF
:1017C000AB420DD1524B103B1B689A4206D0526877
:1017D000224442600A681268026002E0036000E08E
:1017E0000260814200D0086030BD4FF4A03149480A
:1017F000420706D0C01D20F007004649411AC1F536
:10180000A031434A1060002353600144083921F09D
:101810000701103A11604B600B600B1A43600160C6
:101820004068906050604FF00040D06070472DE9F4
:10183000F04105460026FFF77DFA354F103F386826
:1018400008B9FFF7D2FFF868054235D13DB1083538
:10185000680704D005F00700C0F1080005445DB337
:101860007868854228D82A490846046801E021465C
:1018700004466068A84202D220680028F7D1386880
:10188000844219D00E680836206808606068411BE1
:10189000102904D9601941606560FFF77FFF616816
:1018A0007868401A7860BA68904200D2B860F868E8
:1018B0000143616000202060FFF7ADF93046BDE8CC
:1018C000F08170B5002819D008380446104D6068C2
:1018D000103DE968084211D02268002A0ED18843E1
:1018E0006060FFF727FA606869680844686020460E
:1018F000FFF754FFBDE87040FFF78DB970BD044895
:101900001038406870470248103880687047704748
:101910005000002054010020416821F40071416012
:1019200070472DE9F04704460D46D5484FF48057DF
:1019300026184FF080404FF400584FF4405973D0B0
:10194000BE4276D0464579D04E4503D1816841F4F8
:10195000804181602046FFF7DFFF606840F400505F
:101960006060A0686FF30D00A060C6482968006839
:101970000009B0FBF1F0A168401E0843A060606858
:1019800020F47C00606060682979AA7940EA81408F
:101990006979C90441EA825108436060F6B3BE42E6
:1019A00055D0464557D04E4502D12A2000F05CF96B
:1019B000E06880B2E060E879697A401C000440EA9F
:1019C0000160E1680843E060606820F07F4060608B
:1019D0006068E97A40EA01606060606844F214017E
:1019E000884360606068297A2A7B40EA0110A97AFE
:1019F000890041EA82310843606086B3BE423FD02D
:101A000046454DD04E4560D1287AA97A0843297BB6
:101A1000084355D0BDE8F0472A2003E013E003E077
:101A200007E00BE000F015B9816841F400618160C6
:101A300090E7816841F4805181608BE7816841F4CF
:101A40000051816086E7272000F00EF9B0E72820DA
:101A500000F00AF9ACE7292000F006F9A8E7FFE753
:101A6000287AA97A0843297B084304D0BDE8F047C7
:101A7000272000F0EEB8BDE8F047272000F0F4B8CA
:101A8000287AA97A0843297B084304D0BDE8F047A7
:101A9000282000F0DEB8BDE8F047282000F0E4B8C8
:101AA000287AA97A0843297B084304D0BDE8F04787
:101AB000292000F0CEB8BDE8F047292000F0D4B8C6
:101AC000BDE8F0472A2000F0CFB8BDE8F0874168B4
:101AD00041F4007141607047016070470068C0F3D5
:101AE00008020A60400501D50220704700207047B7
:101AF000406840F30000401C7047406840F3C0005D
:101B0000401C70474068C0F34000704782686FF324
:101B10000D0282605B4A12681209B2FBF1F1826821
:101B2000491E114381607047564980680968090958
:101B3000C0F30D00401CB1FBF0F07047436923F087
:101B400005034361436941EA82010B4343617047E6
:101B50004069C0F3C010704710B5446924F07A049E
:101B600044614469D20044EA410142EA031211434C
:101B7000416110BD4069C0F300207047036923F044
:101B800005030361036941EA82010B430361704766
:101B9000016941F01001016170470069C0F3400024
:101BA00070470069C0F3C00070470022FF2918D0B9
:101BB000A1F58073FF3B14D0FE290DD0B1F5FF7F56
:101BC0000AD0F8290AD0B1F5FC7F07D0802907D0C8
:101BD000B1F5C07F04D0FEE7012202E0022200E05E
:101BE0000322816821F06071816081684FF40003F5
:101BF00043EA02621143816070478168090201D59E
:101C0000002070478068400101D502207047012004
:101C1000704742680A434260704742688A434260A4
:101C20007047CA0602D5826852020ED44A0402D511
:101C30008268920209D44A0702D58268920304D4CA
:101C4000490604D58068000101D5012070470020B5
:101C5000704700F01F02012191404009800000F10F
:101C6000E020C0F80011704700F01F0201219140F0
:101C70004009800000F1E020C0F8801170470000AA
:101C80000000FEBF6800002010B572B6000B174CB4
:101C9000A16888472068804762B610BD10B572B64B
:101CA0009208124CE36898472068804762B610BDDE
:101CB00010B572B60D4940F289431E284A6808D013
:101CC00028280AD050280CD00949581C904762B6E1
:101CD00010BD084918469047F9E70749184690474C
:101CE000F5E7064918469047F1E700005800002044
:101CF0006E7AFCAB251FF4AB2929F4AB4D52F8AB3F
:101D00002DE9F04F86B001EB81074FF01F0BA2F1D8
:101D1000640A0BFA07F60AFA07F48D1F05EB850C27
:101D20000BFA0CF70AFA0CF54FF001084FEA4109DB
:101D30004FF0030CA1F10C0E0CFA09FC08FA01F8A3
:101D40000EEB8E0E8B40CDF800E00BFA0EFECDF8B8
:101D500014E0DDF800E00AFA0EFECDF810E0A1F183
:101D6000120E0EEB8E0E0BFA0EFB0AFA0EFACDE9EE
:101D700002ABA1F1100A4FEA4A0A4FF0030B0BFA2B
:101D80000AFBCDF804A0DFF89CA3062837D2DFE8D1
:101D900000F003396EA3F0EF632A18D906290AD29E
:101DA000DAF80001B043CAF80001DAF80001204374
:101DB000CAF800010BE00C2909D2DAF80401B84393
:101DC000CAF80401DAF804012843CAF80401DAF871
:101DD000000020EA0C00CAF80000632A00D90122A2
:101DE000DAF8000002FA09F20243CAF80020CE48ED
:101DF000016821EA0801016001681943016006B029
:101E0000BDE8F08F632A18D906290AD2DAF8100142
:101E1000B043CAF81001DAF810012043CAF81001E3
:101E20000BE00C2909D2DAF81401B843CAF81401FE
:101E3000DAF814012843CAF81401DAF8040020EA99
:101E40000C00CAF80400632A00D90122DAF8040061
:101E500002FA09F20243CAF80420B34810300168BC
:101E600021EA08010160016819430160C7E7632A9C
:101E700018D906290AD2DAF82001B043CAF820019D
:101E8000DAF820012043CAF820010BE00C2909D21E
:101E9000DAF82401B843CAF82401DAF82401284307
:101EA000CAF82401DAF8080020EA0C00CAF8080091
:101EB000632A00D90122DAF8080002FA09F2024383
:101EC000CAF8082098482030016821EA080101601A
:101ED00001681943016092E7632A36D906290AD2BC
:101EE000DAF86001B043CAF86001DAF86001204313
:101EF000CAF8600129E00C290AD2DAF86401B84373
:101F0000CAF86401DAF864012843CAF864011CE0E5
:101F100012290CD2DAF86801059CA043CAF86801BE
:101F2000DAF86801049C2043CAF868010DE018291A
:101F30000BD2DAF86C01039CA043CAF86C01DAF802
:101F40006C01029C2043CAF86C01102912D2DAF805
:101F5000200020EA0C00CAF82000632A00D90122E0
:101F6000DAF8200002FA09F20243CAF8202011E050
:101F700071E019E0DAF8240020EA0B00CAF8240026
:101F8000632A00D9012201988240DAF82400024332
:101F9000CAF8242064484030016821EA0801016041
:101FA0000168194301602AE7632A27D906290AD262
:101FB000DAF87001B043CAF87001DAF87001204312
:101FC000CAF870011AE00C290AD2DAF87401B84391
:101FD000CAF87401DAF874012843CAF874010DE0F4
:101FE00012290BD2DAF87801059CA043CAF87801CF
:101FF000DAF8784104980443CAF87841102910D2DD
:10200000DAF8300020EA0C00CAF83000632A00D960
:102010000122DAF8300002FA09F20243CAF830204D
:102020000FE0DAF8340020EA0B00CAF83400632A23
:1020300000D9012201988240DAF834000243CAF83C
:10204000342039485030016821EA080101600168F4
:1020500019430160D3E6632A36D906290AD2DAF891
:102060008001B043CAF88001DAF880012043CAF841
:10207000800129E00C290AD2DAF88401B843CAF8B1
:102080008401DAF884012843CAF884011CE012298B
:102090000CD2DAF88801059CA043CAF88801DAF866
:1020A000884104980443CAF888410DE018290BD2EE
:1020B000DAF88C4103988443CAF88C41DAF88C0131
:1020C000029C2043CAF88C01102910D2DAF8400093
:1020D00020EA0C00CAF84000632A00D90122DAF88D
:1020E000400002FA09F20243CAF840200FE0DAF891
:1020F000440020EA0B00CAF84400632A00D90122F8
:1021000001988240DAF844000243CAF844200648A5
:102110006030016821EA080101600168194301602B
:102120006DE60000000001400006014030B54FF0B0
:10213000804108687B4A45077B4C7C4B7C480CD52A
:102140000D68AD0701D502601CE02268D20702D0FD
:10215000784A026016E0036014E00D68ED070ED0C7
:10216000646AA40701D5036000E0026002680523E9
:10217000B2FBF3F2C8235A43D208026002E04FF4E4
:10218000FA4202604968C90702D001684908016043
:10219000694A0168B1FBF2F1416030BD4FF0804007
:1021A0000168490702D40068C00707D0002044F640
:1021B000206100BF401C8842FBD37047002000BF55
:1021C000401C1428FBD3704710B5574C01202062E7
:1021D000FFF7E4FFFFF7E2FF606A20F002006062B1
:1021E000A06A56490840A062A06A55490843A06207
:1021F000606A20F004006062206B0028FCD010BDF3
:1022000010B5FFF7E1FF4848416A41F00101416222
:102210008004016841F001010160016821F00401BE
:10222000016010BD10B5404901200862FFF7B6FFFC
:10223000FFF7B4FF4FF08040016841F002010160F8
:10224000016841F00401016010BD10B54FF08044F9
:10225000A06840F08070A0603A48016A21F0010156
:102260000162FFF79BFF206820F0010020602068DA
:1022700020F00400206010BD10B52B49012008603B
:10228000FFF78CFF4FF08040016821F002010160F0
:10229000016841F00401016010BD10B52249002021
:1022A0000860FFF77BFF4FF08040016821F00201DA
:1022B0000160016841F00401016010BD10B54FF0EC
:1022C0008044A06840F48000A0607820FFF7F0FC14
:1022D000FFF796FF606820F0010060606068606052
:1022E000FFF724FF124818490068884204D9BDE866
:1022F00010407820FFF7DCBC0E49884204D9BDE8C5
:1023000010405020FFF7D4BC1049884204D9BDE8E2
:1023100010402820FFF7CCBCBDE810401E20FFF77E
:10232000C7BC00000080510100100340002D3101A6
:1023300068000020005A620240420F0000FEE0FCEC
:102340003200050000E0014000B4C40480C3C901AC
:1023500025480047FEE7FEE7FEE7FEE7FEE7FEE76B
:10236000FEE7FEE7FEE7FEE7FEE7FEE7FEE7FEE745
:10237000FEE7FEE7FEE7FEE7FEE7FEE7FEE7FEE735
:10238000FEE7FEE7FEE7FEE7FEE7FEE7FEE7FEE725
:10239000FEE7FEE7FEE7FEE7FEE7FEE7FEE7FEE715
:1023A000FEE7FEE7FEE7FEE7FEE7FEE7FEE7FEE705
:1023B000FEE7FEE7FEE7FEE7FEE7FEE7FEE7FEE7F5
:1023C000FEE7FEE7FEE7FEE7FEE7FEE7FEE7FEE7E5
:1023D000FEE7FEE7FEE7FEE7FEE7FEE7FEE7FEE7D5
:1023E000FEE7FEE7FEE7FEE749010000124913A001
:1023F00000F082F8134C4FF47A752068FEF755FF11
:1024000002460D4910A000F077F82846FEF7C1FCFF
:10241000F3E71CB5084909A00A3100F06DF8094836
:102420000221CDE9001000234A0209A1AFF24300C6
:10243000FEF70CFB1CBD0000E834000025730D0AFC
:10244000000000007000002025732C25640D0A0098
:102450006372746C5F7461736B000000124913A0A7
:1024600000F04AF8134C4FF47A752068FEF71DFF10
:1024700002460D4910A000F03FF82846FEF789FCFF
:10248000F3E71CB5084909A00C3100F035F80948FC
:102490000221CDE9001000234A0209A1AFF2430056
:1024A000FEF7D4FA1CBD00000335000025730D0AA9
:1024B000000000007400002025732C25640D0A0024
:1024C0006C697374656E5F7461736B003848016882
:1024D000002905D000231A4619468068FDF7EEBF93
:1024E000704733480168002905D000235A1E194659
:1024F0008068FEF7F2B870470FB400B5C1B02C4841
:10250000006800280ED043AB4FF4807101A8429AB6
:1025100000F070FBFFF7E5FF01A926A000F05AFBD1
:10252000FFF7D4FF41B05DF814FB10B5204C2068D4
:10253000012806D00120FEF746F8A06010B1012066
:10254000206010BD1C491DA000F044FBFEE71A49A5
:102550001BA01D3900F03EFBFFF7E7FF00F051F82C
:10256000FFF78FFFFFF755FF114C4FF47A75606846
:10257000FEF79BFE0246104913A01D39FFF7BCFF72
:102580002846FEF706FCF2E71CB50B490CA01239F1
:1025900000F020FB06480221001DCDE900100023B9
:1025A0004A020BA1AFF25900FEF750FA1CBD000021
:1025B00078000020257300003F3500006572723AF4
:1025C00025730D0A0000000025732C25640D0A00F8
:1025D00073746172745F7461736B0000124913A0AD
:1025E000FFF78AFF134C4FF47A752068FEF75DFE03
:1025F00002460D4910A0FFF77FFF2846FEF7C9FBF2
:10260000F3E71CB5084909A00A31FFF775FF09482F
:102610000221CDE9001000234A0209A1AFF24300D4
:10262000FEF714FA1CBD00004B35000025730D0A9F
:10263000000000008400002025732C25640D0A0092
:10264000686F73745F7461736B00000040EA01038C
:102650009B0703D009E008C9121F08C0042AFAD258
:1026600003E011F8013B00F8013B521EF9D270471C
:10267000D2B201E000F8012B491EFBD270470022C4
:10268000F6E710B513460A4604461946FFF7F0FF71
:10269000204610BD30B50B46014600202022012403
:1026A00009E021FA02F59D4205D303FA02F5491B20
:1026B00004FA02F52844151EA2F10102F1DC30BD36
:1026C0002DE9F05F0546002092469B468846064667
:1026D000814640241BE0284641464746224600F0FA
:1026E000FAF953465A46C01A914110D3114618467A
:1026F000224600F0E1F92D1A67EB01084F46224609
:102700000120002100F0D8F917EB00094E41201EEE
:10271000A4F10104DFDC484631462A464346BDE8C1
:10272000F09F2DE9FE4F804681EA0300C00F0C4662
:10273000009021F0004123F00045B8EB0200A941D0
:1027400005D24046214690461C460B46024623F0E1
:102750000040104347D0270DC7F30A00C3F30A51C6
:102760000290401A019040286BDAC3F3130040F442
:10277000801B0098924620B10023D2EB030A63EB42
:102780000B0B01985946C0F14002504600F094F9F5
:1027900006460D4650465946019A00F0ACF910EB3A
:1027A00008006141002487EA115284EAE7731A4362
:1027B00040D0009A62B3019A012A4FEA075215DC11
:1027C000001B61EB02014FF0004202EA0752CDE923
:1027D0000042001C41F5801132462B4600F0ACF956
:1027E00003B0BDE8F08F40462146F9E7001B61EBDE
:1027F0000201001C41F5801300185B412018A2F56E
:10280000001747EB030140EAD570B6196D4111E09E
:102810006D084FEA360645EAC0754FEA0752001BBD
:1028200061EB0201001C41F5801149084FEA3000BC
:102830000019514132462B4603B0BDE8F04F00F07D
:102840006CB90098012240000023D0EB020263EB38
:10285000E073009821464FEAE074B8EB000061EBAA
:102860000401E9E783F000435BE781F0004158E7AA
:102870002DE9FE4F81EA030404F0004421F00041F9
:1028800000944FF0000B23F0004350EA01045ED0A7
:1028900052EA03045BD0C3F30A54C1F30A552C4433
:1028A000A4F2F3340194A0FB0254C1F3130141F4E8
:1028B0008011C3F3130343F4801301FB024400FBB4
:1028C000034E840A970A44EA815447EA8357A4FBDB
:1028D000076802958D0A05FB07854FEA932C04FBD8
:1028E0000C542705029D4FEA065847EA1637B5EB08
:1028F00008056EEB070C870E920E47EA811742EA35
:102900008312A7FB0201B6EB0B0164EB00042B0D55
:1029100043EA0C335E1844EB1C50DA465146E7FBA1
:102920000201C5F313044FEA0B3343EA14534FEA91
:102930000432019C43EA0603A4F10C040294009CB7
:10294000CDE900B400F0F8F803B0BDE8F08F002046
:102950000146F9E72DE9F04D81EA030404F0004B4C
:1029600021F0004514464FF0000A23F0004150EAE0
:10297000050220D054EA01021DD0C5F30A570246D1
:10298000C5F31303C1F31300C1F30A5640F48015D5
:1029900043F48013A7EB0608101BD64608F2FD3857
:1029A00073EB050002D308F1010801E092185B41C6
:1029B000B8F1000F03DA00200146BDE8F08D0020D9
:1029C0004FF48011064684460EE0171B73EB050793
:1029D00005D3121B63EB050306434CEA010C4908BF
:1029E0004FEA300092185B4150EA0107EDD152EAFC
:1029F000030012D082EA040083EA0501084305D0EF
:102A0000101BAB4106D20122002306E000224FF04A
:102A1000004302E06FF0010253101AEB06004CEB8A
:102A2000085110EB0A0041EB0B01BDE8F04D00F03E
:102A300074B8C1F30A52C1F3130140F2FF3341F4F9
:102A400080119A4202DA00200146704740F2334377
:102A50009A42A2F2334202DC524200F03CB800F04B
:102A60002BB8000030B5041E71F1000404DB4FF0F8
:102A70000044404264EB0101141E73F1000405DBC5
:102A80001C464FF00043524263EB0403994208BFD7
:102A9000904230BD064C074D06E0E06840F001036F
:102AA00094E8070098471034AC42F6D3FDF750FB8A
:102AB0006835000088350000202A04DB203A00FA3F
:102AC00002F1002070479140C2F1200320FA03F385
:102AD000194390407047202A04DB203A21FA02F083
:102AE0000021704721FA02F3D040C2F12002914048
:102AF000084319467047202A06DBCB17203A41FAD3
:102B000002F043EAE07306E041FA02F3D040C2F17A
:102B10002002914008431946704710B5141E73F106
:102B2000000408DA401C41F1000192185B411A438D
:102B300001D120F0010010BD2DE9F04D92469B46D9
:102B400011B1B1FA81F202E0B0FA80F2203290467F
:102B5000FFF7B2FF04460F4640EA0A0041EA0B01C4
:102B600053465A46084313D0114653EA010019D080
:102B7000C8F140025046FFF7AEFF05460E465046EC
:102B800059464246FFF798FF084305D0012004E06C
:102B900020463946BDE8F08D0020054346EAE07640
:102BA0002C4337430A986305E40AA0EB080000228F
:102BB000FD0A44EA47540A3002D500200146E9E7FD
:102BC000010510196941DDE9084500196941BDE8B1
:102BD000F04DA2E70FB4054B10B503A9044A0298C3
:102BE00000F0F4F810BC5DF814FB00005502000082
:102BF000880000207CB50C001D461646014601D019
:102C0000601E00E00020CDE90010064B6A46294610
:102C1000304600F0DBF8002C02D0009A0021117041
:102C20007CBD0000D334000002E008C8121F08C1B8
:102C3000002AFAD170477047002001E001C1121F3D
:102C4000002AFBD1704700002DE9FF5F82B0002110
:102C5000DDE90430020DDDF840B0034318D044F63E
:102C60001050A2F2FF3242431514119801281FD0D0
:102C7000A5EB0B00401C5FEA000A4FF000064E4F28
:102C8000DFF83891B046504615D5CAF1000413E07C
:102C9000119801244AA3012801D16FEA0B0102987F
:102CA000119AC0E90031C0E9024206B0BDE8F09FC8
:102CB000CBF10000DFE704460021404A491842EB0F
:102CC0000450CDE9001012E0E00707D032463B4641
:102CD00040464946FFF7CCFD8046894632463B4692
:102CE00010461946FFF7C4FD06460F466410002C37
:102CF000EAD1DDE90401DDE90023BAF1000F06DACB
:102D0000FFF7B6FD42464B46FFF7B2FD05E0FFF781
:102D100021FE42464B46FFF71DFE04460E460022AA
:102D2000284BFFF79FFE03D84FF0FF30014607E026
:102D30000022254B20463146FFF7F3FCFFF779FED2
:102D4000102409E0002C0ADB0A220023FFF7B8FC5C
:102D5000039B30321A55641E50EA0102F2D1641C02
:102D6000039AC4F111031444119A012A03D00122D9
:102D700008430DD10AE0084304D000204FF0110BA6
:102D8000119072E7A3EB0B056D1E0DE05B4504DDB2
:102D90004FF0000205F1010504E003DA4FF00002F4
:102DA000A5F10105002AECD002981199C0E9023181
:102DB000C0E9004579E70000000014400000F03F42
:102DC000300000000000F0430000E03F2DE9FF4F1D
:102DD00095B09A46884606460025EEE1252877D12B
:102DE00000242746F94A0121039400E0044316F821
:102DF000013F203B01FA03F01042F7D130782A2836
:102E000011D06FF02F033078A0F13002092A16D8C4
:102E1000039A44F0020402EB820203EB42021044E4
:102E2000761C0390EFE758F8042B0392002A03DA8C
:102E3000504244F40054039044F00204761C30786D
:102E40002E2816D116F8010F44F004042A280DD0BC
:102E50006FF02F023078A0F13003092B09D807EB6F
:102E6000870302EB4303C718761CF3E758F8047B8B
:102E7000761C30786C280FD006DC4C2817D06828D8
:102E80000DD06A2814D104E0742810D07A280FD10C
:102E90000DE044F400140AE044F4801401E044F42A
:102EA00040147278824202D104F58014761C761C9C
:102EB000307866280BD013DC582877D009DC00283E
:102EC00075D04528F6D04628F4D047281AD193E18A
:102ED00018E0632835D0642879D0652812D18BE1B9
:102EE000702873D008DC6728F1D069286FD06E286D
:102EF0000DD06F2806D1ACE073282CD0752874D083
:102F0000782853D05246179990476D1C54E1C4F36A
:102F10000250022809D003280DD0D8F80010042848
:102F20000DD00D6008F1040846E1D8F80010EA174A
:102F3000C1E90052F6E7D8F800100D80F2E70D70F5
:102F4000F0E718F8041B8DF8001000208DF8010040
:102F5000EB46012003E058F804BB4FF0FF30610757
:102F60004FF0000102D40DE009F101018946B94298
:102F70000FDA8145F8DB1BF809100029F4D108E0CD
:102F800009F1010189468142FADB1BF80910002989
:102F9000F6D103985346A0EB090721463846179A05
:102FA00000F080FA284400EB090507E044E008E15E
:102FB0000DE01BF8010B524617999047B9F1010932
:102FC000F7D2534621463846179AF2E039E00A21F3
:102FD000C4F302524FF0000B0091022A06D058F8B9
:102FE000040BC117032A09D00AE023E008F1070007
:102FF00020F00702F2E80201904605E000B2C11796
:10300000042A01D140B2C117002906DA0A4600217C
:10301000404261EB02012D2202E0220504D52B2261
:103020008DF80420012203E0E20701D02022F7E717
:10303000914657E00A2100E010214FF0000B00916B
:103040000BE010214FF0000B44F00404082700911E
:1030500003E008204FF0000B0090C4F30252022A54
:1030600005D058F8040B0021032A08D008E008F125
:10307000070020F00702F2E80201904603E080B268
:10308000042A00D1C0B24FF0000922072AD53278B5
:10309000702A07D0DDF800C08CF0100C5CEA0B0C35
:1030A00005D00EE040228DF80420012208E050EA0D
:1030B000010306D030238DF804308DF8052002225C
:1030C0009146009B83F0080353EA0B030AD150EAB0
:1030D000010201D1620705D530228DF804204FF09E
:1030E00001097F1E3278582A04D039A20C920CAA0A
:1030F00002920BE03BA2F9E75B46009AFFF7E0FA89
:103100000C9B9B5C029A521E0292137050EA0102C1
:10311000F2D1029804A9081A00F1200B600702D529
:1031200024F4803400E001275F4502DDA7EB0B00AB
:1031300000E0002000EB0B01009003984944401A86
:103140000390E00306D453462146179A039800F0F3
:10315000A9F90544002706E001A85246C05D179969
:1031600090476D1C7F1C4F45F6DBE0030CD55346A2
:103170002146179A039800F095F9054404E03020A1
:103180005246179990476D1C0099481E00900029DF
:10319000F5DC08E00298029952460078491C029139
:1031A000179990476D1CBBF10001ABF1010BF1DCED
:1031B0005BE100F065F90544761C307800287FF467
:1031C0000DAE19B02846BDE8F08F000009280100B7
:1031D000303132333435363738396162636465668D
:1031E000000000003031323334353637383941424F
:1031F0004344454600000000600700D4062708F15C
:10320000070020F00700F0E80223804603F0004C9E
:103210005FEA0C0001D097A009E0200501D596A037
:1032200005E0E00701D095A001E0AFF24C0013905B
:10323000307823F0004365280CD006DC452809D0FF
:1032400046281DD047287FD13BE0662818D0672844
:103250007AD136E00021112F01DB112000E0781C2B
:10326000CDE9000104A90CA8FFF7EEFCDDE90D0192
:103270000C9A4FF0000B07F10109109200914EE0FB
:103280004FF000400097CDE9011004A90CA8FFF70A
:10329000DBFCDDE90D020C9B0F994FF0000B914612
:1032A0001093009211B9791C00EB0109B7EB0900EA
:1032B00003D4C0F1FF3B07F10109A9EB070001901E
:1032C00042E0012F00DA01270021112F01DD11203A
:1032D00000E03846CDE9000104A90CA8FFF7B4FCD2
:1032E000DDE90D010C9A00914FF0000BB9461092E8
:1032F00021070FD4009A4A4503DA914601E0A9F16B
:103300000109B9F1010F05DD109AA9F10101515C24
:103310003029F4D0B84202DA10F1040F03DA0121A7
:10332000CDE9011010E0002803DC8344A9EB000183
:1033300002E0411C494500DD8946A0EB0B00401C22
:1033400001904FF000400290200705D401984845B5
:1033500002DB4FF0FF30019000208DF84B00029807
:103360000DF14B07B0F1004F25D002200C902B201F
:103370000D90029800280CDA404202902D200D900A
:1033800007E00A210298FFF785F93031029007F82B
:10339000011D0C99481E0C900029F2DC02980028AF
:1033A000EFD1791E0D980870307800F0200040F0C1
:1033B000450007F8020D11A8C01BC01D029013980C
:1033C000007800B1012000EB0901019801EBE071E8
:1033D000029801440398401A401E0390E00306D46B
:1033E00053462146179A039800F05CF80544139859
:1033F000007818B15246179990476D1CE00323D509
:1034000053462146179A039800F04CF805441BE0F8
:10341000BBF1000F07DB0098584504DD10981799A1
:1034200010F80B0001E017993020524690470198A0
:103430000BF1010B401E05F10105019004D12E2076
:103440005246179990476D1CB9F10001A9F1010985
:10345000DEDC05E017F8010B5246179990476D1C0A
:103460000299481E02900029F4DC53462146179A1F
:1034700003989EE62D0000002B00000020000000B5
:103480002DE9F041044600251E461746880404D461
:1034900005E039462020B0476D1C641EF9D528464A
:1034A000BDE8F0812DE9F041044600251E46904616
:1034B000C80301D5302700E02027880404D505E0A3
:1034C00041463846B0476D1C641EF9D52846BDE814
:1034D000F0814A68002A06D00A68531C0B601070FD
:1034E0004868401E486070476372746C5F74617313
:1034F0006B006372746C5F7461736B5F63726561A0
:103500007465006C697374656E5F7461736B006CD5
:10351000697374656E5F7461736B5F637265617408
:10352000650073746172745F7461736B00737461AE
:1035300065745F74616B735F63726561746500636A
:10354000736C6F636B5F696E697400686F73745F2F
:103550007461736B00686F73745F7461736B5F6326
:10356000726561746500000088350000000000206D
:103570008C000000282C0000143600008C00002075
:10358000CC500100382C00000000000000000000BA
:10359000000000000000000000000000000000002B
:1035A000000000000000000000000000000000001B
:1035B000000000000000000000000000000000000B
:1035C00000000000AAAAAAAA000000000000000053
:1035D00000000000000000000000000000000000EB
:1035E0000106001181060011810700110108001178
:1035F000002D310114000000000000000000000058
:1036000000000000000000000000000000000000BA
:0436100000000000B6
:0400000500000149AD
:00000001FF
